:1000000010310020BD67000087CC00009167000020
:100010009167000091670000916700009167000000
:10002000000000000000000000000000E964000083
:1000300091670000000000008D64000091670000DF
:100040006D6500006D6500006D6500006D65000068
:100050006D6500006D6500006D6500006D65000058
:100060006D6500006D6500006D6500006D65000048
:100070006D6500006D6500006D6500006D65000038
:100080006D6500006D6500006D6500006D65000028
:100090006D6500006D6500006D6500006D65000018
:1000A0006D6500006D6500006D6500006D65000008
:1000B0006D6500006D6500006D6500006D650000F8
:1000C0006D6500006D6500006D6500006D650000E8
:1000D0006D6500006D6500006D6500006D650000D8
:1000E0006D6500006D6500006D6500006D650000C8
:1000F0006D6500006D6500006D6500006D650000B8
:100100006D6500006D6500006D6500006D650000A7
:100110006D6500006D6500006D6500006D65000097
:100120006D6500006D6500006D6500006D65000087
:100130006D6500006D6500006D6500006D65000077
:100140006D6500006D6500006D6500006D65000067
:040150006D650000D9
:04015400FFFFFFFFAB
:1001580081F0004102E000BF83F0004330B54FEA70
:1001680041044FEA430594EA050F08BF90EA020FDD
:100178001FBF54EA000C55EA020C7FEA645C7FEA70
:10018800655C00F0E2804FEA5454D4EB5555B8BF93
:100198006D420CDD2C4480EA020281EA030382EA04
:1001A800000083EA010180EA020281EA0303362D96
:1001B80088BF30BD11F0004F4FEA01314FF4801C69
:1001C8004CEA113102D0404261EB410113F0004F7B
:1001D8004FEA03334CEA133302D0524263EB430332
:1001E80094EA050F00F0A780A4F10104D5F1200ED0
:1001F8000DDB02FA0EFC22FA05F2801841F100012B
:1002080003FA0EF2801843FA05F359410EE0A5F1FE
:1002180020050EF1200E012A03FA0EFC28BF4CF02F
:10022800020C43FA05F3C01851EBE37101F00045E5
:1002380007D54FF0000EDCF1000C7EEB00006EEBF2
:100248000101B1F5801F1BD3B1F5001F0CD349087C
:100258005FEA30004FEA3C0C04F101044FEA4452D3
:1002680012F5800F80F09A80BCF1004F08BF5FEA5A
:10027800500C50F1000041EB045141EA050130BD3A
:100288005FEA4C0C404141EB0101013C28BFB1F54C
:10029800801FE9D291F0000F04BF01460020B1FA97
:1002A80081F308BF2033A3F10B03B3F120020CDA6A
:1002B8000C3208DD02F1140CC2F10C0201FA0CF048
:1002C80021FA02F10CE002F11402D8BFC2F1200CAD
:1002D80001FA02F120FA0CFCDCBF41EA0C01904063
:1002E800E41AA2BF01EB0451294330BD6FEA0404AC
:1002F8001F3C1CDA0C340EDC04F11404C4F1200297
:1003080020FA04F001FA02F340EA030021FA04F3A8
:1003180045EA030130BDC4F10C04C4F1200220FAFF
:1003280002F001FA04F340EA0300294630BD21FA3D
:1003380004F0294630BD94F0000F83F4801306BF03
:1003480081F480110134013D4EE77FEA645C18BFF7
:100358007FEA655C29D094EA050F08BF90EA020F8E
:1003680005D054EA000C04BF1946104630BD91EA86
:10037800030F1EBF0021002030BD5FEA545C05D189
:100388004000494128BF41F0004130BD14F58004C8
:100398003CBF01F5801130BD01F0004545F0FE413C
:1003A80041F470014FF0000030BD7FEA645C1ABF71
:1003B800194610467FEA655C1CBF0B46024650EAA8
:1003C800013406BF52EA033591EA030F41F40021D4
:1003D80030BD00BF90F0000F04BF0021704730B55A
:1003E8004FF4806404F132044FF000054FF000012F
:1003F80050E700BF90F0000F04BF0021704730B5F0
:100408004FF4806404F1320410F0004548BF4042C4
:100418004FF000013EE700BF42004FEAE2014FEA19
:1004280031014FEA02701FBF12F07F4393F07F4FF4
:1004380081F06051704732F07F4208BF704793F0F7
:100448007F4F04BF41F40021704730B54FF460740A
:1004580001F0004521F000411CE700BF50EA01020D
:1004680008BF704730B54FF000050AE050EA0102B6
:1004780008BF704730B511F0004502D5404261EB26
:1004880041014FF4806404F132045FEA915C3FF467
:10049800D8AE4FF003025FEADC0C18BF03325FEA04
:1004A800DC0C18BF033202EBDC02C2F1200300FAB5
:1004B80003FC20FA02F001FA03FE40EA0E0021FADA
:1004C80002F11444BDE600BF70B54FF0FF0C4CF4C8
:1004D800E06C1CEA11541DBF1CEA135594EA0C0F7A
:1004E80095EA0C0F00F0DEF82C4481EA030621EAB5
:1004F8004C5123EA4C5350EA013518BF52EA0335F0
:1005080041F4801143F4801338D0A0FB02CE4FF0A1
:100518000005E1FB02E506F00042E0FB03E54FF0D1
:100528000006E1FB03569CF0000F18BF4EF0010EC9
:10053800A4F1FF04B6F5007F64F5407404D25FEAC5
:100548004E0E6D4146EB060642EAC62141EA555178
:100558004FEAC52040EA5E504FEACE2EB4F1FD0CBA
:1005680088BFBCF5E06F1ED8BEF1004F08BF5FEA38
:10057800500E50F1000041EB045170BD06F00046EA
:1005880046EA010140EA020081EA0301B4EB5C0497
:10059800C2BFD4EB0C0541EA045170BD41F480118F
:1005A8004FF0000E013C00F3AB8014F1360FDEBFB4
:1005B800002001F0004170BDC4F10004203C35DA90
:1005C8000C341BDC04F11404C4F1200500FA05F313
:1005D80020FA04F001FA05F240EA020001F00042B4
:1005E80021F0004110EBD37021FA04F642EB06012A
:1005F8005EEA430E08BF20EAD37070BDC4F10C0454
:10060800C4F1200500FA04F320FA05F001FA04F217
:1006180040EA020001F0004110EBD37041F1000103
:100628005EEA430E08BF20EAD37070BDC4F120050E
:1006380000FA05F24EEA020E20FA04F301FA05F276
:1006480043EA020321FA04F001F0004121FA04F21E
:1006580020EA020000EBD3705EEA430E08BF20EAEE
:10066800D37070BD94F0000F0FD101F00046400028
:1006780041EB010111F4801F08BF013CF7D041EAAA
:10068800060195F0000F18BF704703F000465200AE
:1006980043EB030313F4801F08BF013DF7D043EA7F
:1006A8000603704794EA0C0F0CEA135518BF95EA35
:1006B8000C0F0CD050EA410618BF52EA4306D1D1BC
:1006C80081EA030101F000414FF0000070BD50EADB
:1006D800410606BF1046194652EA430619D094EA65
:1006E8000C0F02D150EA013613D195EA0C0F05D14F
:1006F80052EA03361CBF104619460AD181EA0301A3
:1007080001F0004141F0FE4141F470014FF000005A
:1007180070BD41F0FE4141F4780170BD70B54FF0F5
:10072800FF0C4CF4E06C1CEA11541DBF1CEA135575
:1007380094EA0C0F95EA0C0F00F0A7F8A4EB050457
:1007480081EA030E52EA03354FEA013100F088804E
:100758004FEA03334FF0805545EA131343EA126317
:100768004FEA022245EA111545EA10654FEA0026CC
:100778000EF000419D4208BF964244F1FD0404F585
:10078800407402D25B084FEA3202B61A65EB0305E1
:100798005B084FEA32024FF480104FF4002CB6EB9E
:1007A800020E75EB030E22BFB61A754640EA0C001E
:1007B8005B084FEA3202B6EB020E75EB030E22BF5E
:1007C800B61A754640EA5C005B084FEA3202B6EB9F
:1007D800020E75EB030E22BFB61A754640EA9C005E
:1007E8005B084FEA3202B6EB020E75EB030E22BF2E
:1007F800B61A754640EADC0055EA060E18D04FEAEC
:10080800051545EA16754FEA06164FEAC30343EA8B
:1008180052734FEAC2025FEA1C1CC0D111F4801F58
:100828000BD141EA00014FF000004FF0004CB6E751
:1008380011F4801F04BF01430020B4F1FD0C88BFF0
:10084800BCF5E06F3FF6AFAEB5EB030C04BFB6EBFB
:10085800020C5FEA500C50F1000041EB045170BDEE
:100868000EF0004E4EEA113114EB5C04C2BFD4EB1B
:100878000C0541EA045170BD41F480114FF0000E9F
:10088800013C90E645EA060E8DE60CEA135594EA1B
:100898000C0F08BF95EA0C0F3FF43BAF94EA0C0F1E
:1008A8000AD150EA01347FF434AF95EA0C0F7FF493
:1008B80025AF104619462CE795EA0C0F06D152EAE7
:1008C80003353FF4FDAE1046194622E750EA4106CB
:1008D80018BF52EA43067FF4C5AE50EA41047FF4DC
:1008E8000DAF52EA43057FF4EBAE12E77BB972B95C
:1008F8000029BEBF00204FF0004106E008BF0028D5
:100908001CBF6FF000414FF0FF3000F0BBB9ADF1F4
:10091800080C6DE904CE002909DB002B1ADB00F076
:100928004DF8DDF804E0DDE9022304B070474042E9
:1009380061EB4101002B1BDB00F040F8DDF804E01F
:10094800DDE9022304B0404261EB4101524263EB0E
:1009580043037047524263EB430300F02FF8DDF87E
:1009680004E0DDE9022304B0404261EB4101704735
:10097800524263EB430300F021F8DDF804E0DDE9BF
:10098800022304B0524263EB4303704753B94AB998
:10099800002908BF00281CBF4FF0FF314FF0FF307F
:1009A80000F070B9ADF1080C6DE904CE00F006F85E
:1009B800DDF804E0DDE9022304B070472DE9F047D3
:1009C800089E0D4604468A46002B7FD18A42174668
:1009D80041D9B2FA82F24AB1C2F1200105FA02F312
:1009E8009740944020FA01F141EA030A4FEA174878
:1009F8004FEA144C1FFA87F9BAFBF8FE08FB1EA34E
:100A08000EFB09F14CEA0343994206D9FB1802D2BE
:100A1800994200F224810EF1FF3E591AA3B2B1FBAC
:100A2800F8F008FB101100FB09F943EA0144A1455D
:100A380005D93C1902D2A14500F20E810138A4EB78
:100A4800090440EA0E4000211EB1D4400023C6E943
:100A58000043BDE8F08702B9FFDEB2FA82F2002A4D
:100A68004FD1CB1B4FEA174E1FFA87F80121250CEF
:100A7800B3FBFEFC0EFB1C302B4608FB0CF945EAC9
:100A88000045A9450AD97D192CBF01230023A94592
:100A980002D9002B00F0D9800CF1FF3CA5EB090529
:100AA800A3B2B5FBFEF00EFB105508FB00F843EAB5
:100AB8000544A04505D93C1902D2A04500F2C980D9
:100AC8000138A4EB080440EA0C40BDE78B4208D982
:100AD800002E00F0B1800021C6E900050846BDE8F7
:100AE800F087B3FA83F1002946D1AB42C0F0A78062
:100AF800824240F2A4800846002EAAD0C6E9004AE5
:100B0800A7E7C2F12000974001FA02F34FEA174E17
:100B1800C14024FA00F51FFA87F894401D43B1FB41
:100B2800FEF02B0C0EFB101100FB08FC43EA0143FE
:100B38009C4509D9FB182CBF012100219C4502D9ED
:100B4800002900F095800138A3EB0C03ADB2B3FB8C
:100B5800FEF10EFB113301FB08FC45EA0345AC45E9
:100B680005D97D1902D2AC4500F289800139A5EB7F
:100B78000C0341EA00417AE7C1F120048B4002FAF4
:100B880001F705FA01FCE24020FA04F8E54000FA12
:100B980001FE134348EA0C024FEA13484FEA124C8D
:100BA8001FFA83F9B5FBF8FA08FB1A550AFB09F096
:100BB8004CEA054C60450AD913EB0C0C2CBF0125F7
:100BC8000025604501D9002D55D00AF1FF3AACEB5C
:100BD800000C92B2BCFBF8F008FB10CC00FB09F942
:100BE80042EA0C4CE14505D913EB0C0C01D2E14566
:100BF8003BD8013840EA0A40ACEB090CA0FB078956
:100C0800CC4545464A4602D306D1C64504D20138EA
:100C1800B8EB070569EB03022EB3BEEB05036CEBDB
:100C2800020C23FA01F20CFA04F42CFA01F3002165
:100C38001443C6E900430CE73146304609E7841AF5
:100C480065EB030301209A4656E7ACF1020C3D44DC
:100C580024E702383C4434E702383C44EFE6AEF17E
:100C6800020E3B44D9E63146F3E602389C44C1E71C
:100C780002383B4468E7AAF1020A9C44A7E7023914
:100C88003D4474E7704700BF01282DE9F0470D4641
:100C980009D0042852D008F02BFD162303604FF02A
:100CA800FF30BDE8F0874FF02003EFF3118283F3A4
:100CB8001288BFF36F8F264BD3E90067D3F808A0DB
:100CC80082F31188BFF36F8F0CF02CFFDFF8889048
:100CD800C0F30E02A2FB0923C00BD40B40EA41402B
:100CE80044EA43444FEAD338CB0BA0FB090109FB84
:100CF800031115A3D3E90023241848EB0108204663
:100D08004146FFF743FE10A3D3E90023361847EB0B
:100D1800E07741462046C5E90067FFF737FE0D4BEF
:100D280052449A42AA6007D9711C47F10003C5E9E9
:100D38000013A2EB0902AA600020B2E74FF0000AF4
:100D480000260027C0E700BF00CA9A3B0000000049
:100D580040050020FFC99A3B00CA9A3B00000000EA
:100D680001282DE9F0410F4607D008F0C1FC1623F1
:100D780003604FF0FF30BDE8F0810CF0D3FE224E47
:100D88003C687B68A4FB064506FB0355BB68C20BA1
:100D9800E41842EA414245EBE375A2FB0623C90B7E
:100DA800C0F30E0006FB0133A0FB0667F00BA41A84
:100DB80040EA474065EB0305F90B241A65EB01058A
:100DC8004FF02003EFF3118783F31288BFF36F8F7F
:100DD8000BA3D3E9002320462946FFF787FD08A384
:100DE800D3E90023094EC6E9000120462946FFF74A
:100DF8007DFDB26087F31188BFF36F8F0020BAE7DB
:100E080000CA9A3B0000000000CA9A3B4005002037
:100E180001480AF0FEB900BF4EED00004FF48073A0
:100E280007B504220193074B0DEB02011B68064826
:100E3800DB68984705480AF0ECF9002003B05DF834
:100E480004FB00BFE4070020208C040062ED0000D2
:100E580008B5034B186801F015FF002008BD00BF56
:100E68001408002008B5034B186801F001FF0020A2
:100E780008BD00BF1408002010B5094C01212068E6
:100E880001F0E2FE07480AF0C4F9206801F0F0FE1C
:100E980005480AF0BEF9206801F0F4FE002010BDF4
:100EA8001408002074ED000095ED000070B50446AC
:100EB8000821CE4A0BF061F920460821CC4ACD4DD5
:100EC8000BF05BF920460821CB4A0BF056F9204677
:100ED8000821CA4A0BF051F92A46204608210BF08E
:100EE8004CF920460821C64A0BF047F9204608214C
:100EF800C44A0BF042F92A46204608210BF03DF976
:100F0800C14E20460821C14A0BF037F92046082176
:100F1800BF4A0BF032F93246204608210BF02DF972
:100F28002A46204608210BF028F920460821B94A0C
:100F38000BF023F920460821B74A0BF01EF920468A
:100F48000821B64A0BF019F920460821B44A0BF0DB
:100F580014F920460821B34A0BF00FF9324620460F
:100F680008210BF00AF92A46204608210BF005F95A
:100F780020460821AC4A0BF000F920460821AB4A6C
:100F88000BF0FBF820460821A94A0BF0F6F820469A
:100F98000821A84A0BF0F1F82A46204608210BF050
:100FA800ECF820460821A44A0BF0E7F8204608216F
:100FB800A24A0BF0E2F820460821A14A0BF0DDF81E
:100FC800204608219F4A0BF0D8F8204608219E4A5F
:100FD8000BF0D3F82A46204608210BF0CEF820461D
:100FE80008219A4A0BF0C9F820460821984A0BF0C4
:100FF800C4F82A46204608210BF0BFF820460821ED
:10100800944A0BF0BAF820460821934A0BF0B5F839
:101018002A46204608210BF0B0F8204608218F4ABE
:101028000BF0ABF8204608218D4A0BF0A6F82046B5
:1010380008218C4A0BF0A1F82A46204608210BF01B
:101048009CF820460821884A0BF097F8204608218A
:10105800864A0BF092F82A46204608210BF08DF8B4
:1010680020460821824A0BF088F820460821814A48
:101078000BF083F82A46204608210BF07EF820461C
:1010880008217D4A0BF079F8204608217B4A0BF0AD
:1010980074F82A46204608210BF06FF820460821EC
:1010A800774A0BF06AF820460821764A0BF065F873
:1010B8002A46204608210BF060F820460821724A8B
:1010C8000BF05BF820460821704A0BF056F82A46C8
:1010D800204608210BF051F8204608216C4A0BF0F5
:1010E8004CF8204608216B4A0BF047F82A46204660
:1010F80008210BF042F820460821674A0BF03DF81A
:1011080020460821654A0BF038F82A46204608216F
:101118000BF033F820460821614A0BF02EF82046E0
:101128000821604A0BF029F82A46204608210BF0CE
:1011380024F8204608215C4A0BF01FF820460821B5
:101148005A4A0BF01AF82A46204608210BF015F8DF
:1011580020460821564A0BF010F820460821554A27
:101168000BF00BF820460821534A0BF006F82046EE
:101178000821524A0BF001F820460821504A0AF08B
:10118800FCFF2A46204608210AF0F7FF20460821DE
:101198004C4A0AF0F2FF204608214B4A0AF0EDFFBC
:1011A8002A46204608210AF0E8FF20460821474A37
:1011B8000AF0E3FF20460821454A0AF0DEFF2A46E6
:1011C800204608210AF0D9FF20460821414A0AF0A2
:1011D800D4FF20460821404A0AF0CFFF2A4620467D
:1011E800BDE8704008210AF0C8BF00BFD8ED000074
:1011F800F2ED000088FB00000FEE000039EE000061
:1012080065EE000095EE000031EF0000CDEE000025
:1012180002EF000065EF0000BEEF0000FBEF0000EA
:101228004BF0000081F00000DEF0000035F1000016
:1012380070F10000C1F10000EEF100000BF20000B7
:1012480031F2000093F20000CBF20000F4F200004B
:1012580011F300006EF300008EF30000DCF30000D1
:10126800FCF3000065F4000099F40000B7F40000F6
:10127800E4F40000FEF400002DF5000049F500003C
:101288007BF500009AF50000FCF500001CF6000054
:101298005EF6000078F6000097F60000B1F6000050
:1012A800D0F60000EBF6000015F7000030F700005C
:1012B8005EF70000A8F70000DAF7000015F8000054
:1012C80055F80000A8F80000D7F800001DF9000044
:1012D80035F9000075F900008EF9000010B50446D4
:1012E800054B0821054A0AF048FF20460821044A10
:1012F8000AF043FF002010BDC2F90000C8F9000041
:10130800DFF9000007B50821094A0AF036FF4FF057
:10131800004304220193074B0DEB02011B684FF4B5
:101328009160DB689847002003B05DF804FB00BFBC
:101338002DFA0000E407002013B5144A08210AF02A
:101348001CFF4FF400330422114C019323680DEB6A
:101358000201DB684FF4806098474FF00043042295
:10136800019323680DEB0201DB6840F29440984733
:101378000422084B0DEB02010193236840F28440DC
:10138800DB689847002002B010BD00BF47FA000094
:10139800E4070020EE7BFF7F002238B50446084DA5
:1013A8001146286809F0D0FD00220121286809F0BB
:1013B800CBFD20460821034A0AF0DFFE002038BD95
:1013C800D40700205EFA00001346002210B511462B
:1013D80058680BF0FCFC064BC4B22146186801F0B3
:1013E80033FC2146034809F014FF002010BD00BF5C
:1013F8001408002074FA00001FB5002168460BF09D
:1014080020FE009A029B034800FB023005B05DF8FD
:1014180004FB00BF40420F00F8B5154601F05CFC24
:101428000022134F1146386068680BF0D0FC002288
:1014380006461146A8680BF0CAFC0022044611466D
:10144800E8680BF0C4FC0C210A4A3B6801FB042441
:101458005E603146A06083F83000074809F0D9FE85
:101468003B68064893F8301009F0D3FE0020F8BD19
:10147800D0070020000000208BFA0000A0FA00002E
:1014880010B5012001F056FC0A4C0B4B186083681C
:101498002068984723680948596809F0BAFE236804
:1014A800074893F8301009F0B4FEBDE8104005482D
:1014B80009F0AFBED0070020E4070020B5FA00000D
:1014C800CEFA0000E7FA00000C23534330B50C4C69
:1014D800E518E458844211D86B6883420ED38C42D5
:1014E8000CD88B420AD3032A08BF00214FF0010011
:1014F80004BF044B1970044B1A6030BD0020FCE790
:101508000000002008230020E8070020012210B571
:10151800094C1146206809F017FD0021422008F007
:101528009BFF01220021206809F00EFD034809F005
:1015380070FE002010BD00BFD407002001FB000092
:1015480038B5224808F0A8F8214C206010B94FF0AF
:10155800FF3038BD4FF44072012109F0E8FC002843
:10156800F5DB20684FF40072002109F0E0FC002848
:10157800EDDB20680921174A09F0D9FC0028E6DBD1
:1015880020680269836812689D6912F4007F14BF9D
:101598004FF400334FF480234FF4A0320921A847B9
:1015A8000028D4DB0C490D4B20684B604FF40073C6
:1015B8008B608368DB690BB101229847084809F002
:1015C80028FE084809F025FE0020C2E717FB0000A6
:1015D800D407002000C10500D8070020190E00001C
:1015E8001EFB00003AFB00002DE9F341134809F007
:1015F80010FE134809F00DFE124809F00AFE1048C3
:1016080009F007FE0026104D104FDFF84880D5E995
:1016180000239C1AA4080134394640460094013638
:1016280009F0F7FD0B2E05F10C0507F10F07EED1B8
:10163800074802B0BDE8F04109F0EBBD57FB0000D8
:101648008CFB0000C1FB00000000002054030020B8
:101658005EFB0000F6FB00002DE9F0414FF00108A9
:101668004F1E07442E4D00223946064685F8008055
:10167800FFF72AFF4246044639463046FFF724FF63
:101688000222394604433046FFF71EFF032239463B
:1016980004433046FFF718FF042239460443304616
:1016A800FFF712FF0522394604433046FFF70CFFC7
:1016B8000622394604433046FFF706FF072239461B
:1016C80004433046FFF700FF0822394604433046FA
:1016D800FFF7FAFE0922394604433046FFF7F4FEC5
:1016E8000A22044339463046FFF7EEFE044307D189
:1016F8000C4809F08EFDFFF777FF2046BDE8F08122
:101708002B7833B10C21084B084A1B6801FB0323D3
:101718001B7A074A0124126882F83030EDE700BFCF
:10172800082300201DFC0000E8070020000000201E
:10173800D00700202DE9F04F1446002287B011464B
:10174800064660680BF043FB002207461146A06876
:101758000BF03DFB4FEA800A804651463846FFF7BA
:101768007BFF002879D03E4B1B68052B01D0082B46
:1017780004D1082130463B4A0AF0FFFC50460CF0E1
:1017880077FB0023044698455FD1FFF735FEDFF865
:10179800ECB05246DBF800308146DB68214638461B
:1017A8009847002102A80BF04CFC2F4B0498029D8F
:1017B80003FB05054046FEF70DFE00222B4BFEF706
:1017C80083FEA5EB0905804628468946FEF712FEEA
:1017D80002460B4640464946FEF7A0FF2B46CDE998
:1017E8000001234A082130460AF0C7FCFFF704FE2F
:1017F800204B05461B7863B3DBF800305B69524623
:10180800214638469847002102A80BF01AFC164AD0
:101818000498029B02FB03035D1B2846FEF7EAFDC2
:1018280002460B4640464946FEF778FF2B46CDE96F
:101838000001114A082130460AF09FFC20460CF0AE
:1018480010FB002007B0BDE8F08F44F823300133C7
:1018580099E7DBF800301B69D1E74FF0FF30F1E77B
:10186800E80700205BFC000040420F0000004040F9
:1018780080FC000008230020B5FC0000E4070020DD
:101888002DE9F74F144600228046114660680BF098
:101898009EFA002207461146A0680BF098FA00222B
:1018A80081461146E0680BF092FA0022009011463A
:1018B80020690BF08CFA044681003846FFF7CCFE0D
:1018C80000285ED0364B1B68052B01D0082B04D1AD
:1018D80008214046334A0AF050FC4FF4FA500CF005
:1018E800C7FA05464FF4FA500CF0C2FA4FF4FA63FF
:1018F8000646009ADFF8BCB053430193002C0EDC77
:101908000821294A40460AF038FC30460CF0A9FA6A
:1019180028460CF0A6FA002003B0BDE8F08FB4F515
:10192800FA6F2346A8BF4FF4FA63294648464FEAA0
:10193800830A05EB8303994226D1DBF8003052462F
:10194800DB68294638469847184B1B780BB3DBF8F9
:1019580000305B6952463146384698475246314610
:1019680028460BF023FB019B9944B0B1082140465F
:101978000F4A0AF002FC30460CF073FA28460CF0C5
:1019880070FA4FF0FF30C7E7009A41F8040B104493
:10199800D1E7DBF800301B69DCE7A4F5FA64ADE7B2
:1019A800E80700205BFC0000F9FC00000823002089
:1019B800E9FC0000E407002037B51346002205467D
:1019C800114658680BF003FA01210446FFF744FE5C
:1019D800A8B10C4A0C4B12781B6872B15B690422DF
:1019E80020460DEB0201984728460821019B074A2B
:1019F8000AF0C3FB002003B030BD1B69EFE74FF0CE
:101A0800FF30F8E708230020E407002009FD000064
:101A180073B5154600220646114668680BF0D7F9DB
:101A2800002204461146A8680BF0D1F90121019063
:101A38002046FFF711FEA8B10C4B1B68052B01D0FF
:101A4800082B04D108213046094A0AF096FB0422E3
:101A5800084B20461B680DEB0201DB689847002005
:101A680002B070BD4FF0FF30FAE700BFE807002072
:101A78005BFC0000E40700202DE9F04F1646002229
:101A880085B01146054670680BF0A1F9002204469E
:101A98001146B0680BF09BF9B0F5FA6F074607D905
:101AA800082128462F4A0AF068FB4FF0FF3024E04F
:101AB8004FEA800841462046FFF7CEFD0028F4D0C3
:101AC80040460CF0D5F9284B06461A78274B1B6878
:101AD800B2B15B69424620463146984734464FF0DA
:101AE8000008DFF89090DFF890A0DFF890B0B845D4
:101AF80008D330460CF0B5F9002005B0BDE8F08FEA
:101B08001B69E7E7A7EB0802022A23680CD0032A1F
:101B180012D0012A1AD108212846154A0AF02DFBAD
:101B280008F104081034E2E76268082100922846A8
:101B38004A460AF022FBF3E7A2680821019262688C
:101B48002846009252460AF018FBE9E7E2680821A5
:101B58000292A26828460192626800925A460AF0E8
:101B68000CFBDDE712FD000008230020E40700203D
:101B780064FD00005FFD00005AFD000055FD0000F7
:101B88002DE9F041144600220546114660680BF025
:101B98001EF9002207461146A0680BF018F900222A
:101BA80006461146E0680BF012F9002280461146FD
:101BB80020690BF00CF9B0F5FA6F07D9082128460F
:101BC800184A0AF0DAFA4FF0FF3024E08400214680
:101BD8003846FFF741FD0028F5D0134B1B68052B4D
:101BE80001D0082B04D108212846104A0AF0C5FA6A
:101BF80020460CF03DF905460346221893420CD1C5
:101C08000B4B22461B682946DB683846984728460E
:101C18000CF027F90020BDE8F08143F8046B464436
:101C2800ECE700BF12FD0000E80700205BFC0000A5
:101C3800E4070020F8B51446114F05460E463868EB
:101C4800012101F001F80F4809F0E3FA386801F0C2
:101C580019F80D4809F0DDFA386801F009F80B4B5E
:101C6800A20019780A4B1B6841B15B6931462846C6
:101C78009847BDE8F840074800F0F0BF1B69F5E752
:101C88001408002074ED00006AFD000008230020FD
:101C9800E4070020CC0000202DE9F0411446002282
:101CA8008046114660680BF092F8002206461146FD
:101CB800A0680BF08CF88500074629463046FFF7E8
:101CC800CBFC20B3134B1B68052B01D0082B04D188
:101CD80008214046104A0AF050FA28460CF0C8F885
:101CE80004463A4601463046FFF7A4FF26460B4F06
:101CF8002544AE4205D120460CF0B3F80020BDE8DB
:101D0800F081384656F8041B09F083FAF1E74FF0E2
:101D1800FF30F4E7E80700205BFC0000ABFD0000A3
:101D280010B500F0D9FF0A4C41682060094809F055
:101D380070FA2368084893F8301009F06AFA0748DF
:101D480009F067FABDE810400549064809F061BA8C
:101D5800D00700208BFA0000A0FA0000B3FD0000B5
:101D6800C2F900000AFE0000084B1B685B7B5BB1F0
:101D7800074B984208D1074B4FF0FF3218694FF0D4
:101D8800FF33303009F018B9704700BF0C08002045
:101D98000000AD0BCC00002038B9044B1B685B7BFE
:101DA8001BB101F1300008F01DB870470C08002085
:101DB80073B54C68054694B3D4E90043886880B38A
:101DC800D0E9006070B36BB398422ED10133092B70
:101DD8002BD88DF8013040F20113ADF80230002302
:101DE800097828468DF800108DF804308DF8052004
:101DF80009F0E4F821463246684607F0A5F904469A
:101E08002869183007F0EEFF04F1744000F5A600C9
:101E18000A280DD8084B33F9100002B070BD2346CC
:101E2800CCE7064601330344D1E76FF01500F4E729
:101E38006FF00F00F1E700BF38ED00007FB5FF231A
:101E48008DF803300DF10303002201930123CDE93E
:101E58000232052303A98DF80C30064801AB049221
:101E68000593FFF7A5FF0028A8BF9DF8030007B05A
:101E78005DF804FBCC0000202DE9F0410024074662
:101E88000D460C4EDFF83880C6F808260A4A11605D
:101E98005460AC4202D30948BDE8F081D6F8043654
:101EA800DB07FBD53819042241460BF0A6F80434A9
:101EB800EFE700BF00B002500CB602500000AD0BB7
:101EC80018B602502DE9F0410D4E0C46C6F808260A
:101ED8000C4A0746116001210025DFF83080516067
:101EE800A54202D30848BDE8F0810422404679198A
:101EF8000BF083F8D6F804369B07FBD50435EFE7DB
:101F080000B002500CB602500000AD0B18B60250DB
:101F1800034B1B685B7B0BB9FFF7AEBF0BF0E9BB4C
:101F28000C0800202DE9F74F06461446884642481B
:101F380009F044F8734203F0030306F0030558BFA1
:101F48005D426D4205F00305A54228BF2546D8F13C
:101F5800000303F0030308F0030A58BFC3F1000AA3
:101F6800CAF1000A0AF0030AA24528BFA246631B69
:101F7800A4EB0A0424F0030423F00307A742C8BF14
:101F8800274603F00309C8BFA3EB0409A7B108EB70
:101F98000A0B394672195846FFF7BAFF0446FFF78D
:101FA800E3FE264B9C4231D1554505D03A46594669
:101FB80008EB05000BF00AF89DB1C5F1040A0421ED
:101FC800A6EB0A026846FFF7A3FF0446FFF7CCFE1C
:101FD8001A4B9C421AD12A4640460DEB0A010BF0D7
:101FE8000CF8B9F1000F24D0721908213A44684658
:101FF800FFF78EFF0446FFF7B7FE104B9C4205D152
:1020080078194A46694640440AF0F7FF0A4B1869AE
:10201800183004F1744407F0E5FE04F5A6040A2C10
:102028008EBF6FF00F00064B33F9140003B0BDE804
:10203800F08F024CEAE700BFCC0000200000AD0B97
:1020480038ED0000034B1B685B7B0BB9FFF73ABF09
:102058000BF04CBB0C08002008B506F08DFF054BB3
:10206800054A1B68D2F840161B7B04480B43C2F88C
:10207800403608BD0C08002000B002500000AD0B2F
:1020880060234268F0B5B3FBF2F3534F013B38606D
:10209800C370C37B0024002B14BF042300234370A8
:1020A80014BF0323234683704FF050232246012197
:1020B80087B0C3F8B84505462B2004F091F9474E80
:1020C800474B3460736041F20F0333813B683046FD
:1020D8001A78444932735A78B2729A78F272DB7875
:1020E80074737374404BF4811A693474FFF7B4FF46
:1020F80000F1744000F5A6000A2869D83B4B33F973
:10210800104024B9FFF79AFE002830DA04463868F0
:102118001430012211460BF0BDFBAB7C0BBB2B7CB2
:102128001BB105F1340007F051F86B7CABB105F138
:102138004803002201930423CDE902324F2303A967
:102148008DF80C30284801AB05920493FFF730FE58
:10215800011E02DA264809F05CF82B7C0BB101233A
:10216800AB74244809F055F8204607B0F0BDF37A5F
:10217800C0B2023B012B29D9B37A033B012B8CBF98
:1021880000230123C0F380129342C0D00DF1030352
:1021980001220193002380F04000CDE9022305933A
:1021A8008DF8030001AB104803A98DF80C200493A7
:1021B800FFF7FEFD04460028A9D1FFF73FFE041EE5
:1021C80001DBE307F9D404EAE474A0E70123D9E7C3
:1021D8006FF00F049BE700BF0C080020EC070020FD
:1021E80011120D0EA11D0000CC00002038ED0000DA
:1021F80046020100600201000B4B10B51B681B7CF6
:102208008BB10A4C236803B13AB1094A1368013308
:102218001360084AC2F8983502E004339842F4D1B2
:1022280001440439216010BD0C0800200808002072
:102238000408002000B002507FB50B4643EA0006B0
:1022480002F003053243920700F0030103F0030490
:1022580010D0003D18BF0125003C18BF01240039EB
:1022680018BF0121024600910348044902950194D0
:1022780008F0CFFF04B070BD73020100B402010082
:102288002DE9F0430546904689464B4E85B0FFF749
:10229800D3FF30684FF0FF32C36A14301D434FF04C
:1022A800FF3308F089FE002241462846FFF7A4FFC5
:1022B800B9F1000F7AD0B8F1000F77D0B8F1040F58
:1022C80002D918F0030F71D115F003046ED13B4FFA
:1022D8004FF0FF324FF0FF33386908F06DFE0623E8
:1022E8002246384601A9CDE9014403948DF804300B
:1022F800FFF75EFD00280CBF04466FF00404384663
:1023080008F05CFEE4B9B8F1030F44D804212A466A
:102318000DEB0100FFF7FCFD0446FFF725FD284BF8
:102328009C420DD14246494601A80AF066FE0421A6
:102338002A460DEB0100FFF785FE0446FFF714FD62
:102348003869183007F04EFD042300220DEB030115
:102358001A48CDE9012203928DF80430FFF728FDD1
:10236800051E18BF6FF004053869002C08BF2C46FD
:1023780004F1744404F5A60407F034FD0A2C18D8B7
:10238800104B33F914403068143007F02BFD204609
:1023980005B0BDE8F08309F06043B3F1005F03D1F5
:1023A8002A4641464846C6E7074CC9E76FF0150478
:1023B800E9E76FF00F04E6E70C080020CC000020E6
:1023C8000000AD0B38ED00000A00AD0BF8B505466E
:1023D80014460F46104EFFF72FFF30684FF0FF32BC
:1023E800C36A14301D434FF0FF3308F0E5FD0022A7
:1023F80021462846FFF700FF5FB124B1224639463F
:10240800FFF790FD04463068143007F0EBFC2046D7
:10241800F8BD6FF01504F6E70C0800202DE9F04729
:102428004FF0040ADFF880808146D8F800300E4665
:1024380093F8305015FB0AF71AFB05A528460BF050
:1024480017FD044650B940F2E7521549154808F0FF
:10245800E0FE6FF00B052846BDE8F0872A4600210C
:102468000AF0D6FDD8F800004FF0FF334FF0FF32E6
:10247800143008F0A1FD514648460122FFF7BCFE82
:102488002A462146FFF74EFD0546D8F800001430CD
:1024980007F0A8FCE359204633600BF0E2FCDAE7CA
:1024A800C40201009A0201000C08002038B5044655
:1024B800002201210A2003F093FF2369084ADC6502
:1024C800606800F1100106F029FF064B98420CBF26
:1024D80000256FF00F05206908F0CCFD284638BDAF
:1024E800C1B000000000AD0BF0B5056985B02B6DDB
:1024F800AC6D7BB99CB900222846114608F095FDC1
:10250800AC6305F1200007F06DFC002385F864300A
:1025180005B0F0BD002C35D09C4228BF1C46E96CA4
:10252800466879B173B101F06043B3F1005F09D037
:10253800082C28BF082405F16507224638460AF00A
:102548005CFD3946B268EB6C944228BF1446009192
:102558002C661BB12B6D002B18BF234601936B6DA6
:1025680002931BB1AB6D002B18BF234600226946AE
:102578003046039306F0A6FF034B9842C8D06FF08D
:102588000404B8E71C46CAE70000AD0B2DE9F84F74
:102598001D468B888846990407461646046904D563
:1025A800236913B96368984509D04FF0FF324FF09B
:1025B800FF3304F1080008F036FDC4F804803A69D6
:1025C8001368984571D0B8F8043013F0090F40F03B
:1025D800CB80C3F34513082B40F0C680D8F8001011
:1025E800634B994240F2C080D8F80830D7F804907D
:1025F800C2F8008003B31868F0B119795B794FF01D
:10260800010BD0F810E0DA0754BF43F4B05383F459
:10261800D053DEF800C023F48052D0F808A0DB07BE
:102628000BFA01FB4CBF4BEA0C032CEA0B03CEF868
:102638000030DAF800309847B8F80410D9F80020CC
:10264800880701F0040366D5002B14BF0323022377
:10265800022BC1F3001162D0032B63D0012B01D1EF
:1026680041F00201434BC2F854151B689968424B6C
:1026780099425AD9414B99425AD9414B99425AD910
:10268800404B99425AD9404B99425AD93F4B9942AB
:102698005AD33F4B99425AD33E4B994234BF4FF0DD
:1026A80020614FF0A051C2F82415012384F864304A
:1026B800002E4FD033687268E36322641A685B683F
:1026C800E2642365002D4AD02B686A686364A264BB
:1026D8001A685B686265A36500220121A26320462F
:1026E80008F0A3FC3846FFF7FFFE4FF0FF324FF02B
:1026F800FF3304F1200008F096FCA56B23689B8843
:1027080013F4005304D1636004F1080007F06AFB76
:102718002846BDE8F88F003B18BF012398E741F031
:1027280004019FE741F006019CE74FF00071BAE70A
:102738004FF08061B7E74FF00061B4E74FF0805188
:10274800B1E74FF00051AEE74FF08041ABE74FF0F3
:102758000041A8E7C4E90F66C4E91366B2E7C4E913
:102768001155C4E91555B7E76FF01505C6E700BF61
:1027780047E80100100800208FD003001FA10700C0
:102788003F420F007F841E00FF083D0000127A00C0
:102798000024F4000048E80110B5074806F07CFF63
:1027A800044620B9054808F034FD204610BD01460E
:1027B800034808F02EFDF8E7D2020100D802010014
:1027C800F20201002DE9FF47DDF83090054609F1D6
:1027D800040A504614461F460E460BF049FB0123D7
:1027E80003930223CDE9000ACDF808D00370230C27
:1027F800DFF8388063F07F034370230AC8F80000CD
:102808008370C4704A46394604300AF0F6FB002348
:10281800314602AA284608F000FC0446D8F8000011
:102828000BF01FFB204604B0BDE8F0871808002015
:102838002DE9F04F89B0DDF84890824609F1050589
:1028480028468B46174698460BF012FB044638B9C3
:10285800244808F0DEFC6FF00B0009B0BDE8F08FEB
:1028680028460BF005FB064630B91F4808F0D1FC96
:1028780020460BF0F6FAEEE72A46002120460AF039
:10288800C7FB2A46002130460AF0C2FB012304AAEE
:10289800CDE90336CDE906230B23CDE90045CDF874
:1028A80008D0059523703B0C63703B0AA370E77052
:1028B800594602AA504606AB08F0AFFB05464A4601
:1028C8004046711D0AF099FB1DB12946074808F0DA
:1028D800A0FC20460BF0C5FA30460BF0C2FA284699
:1028E800BBE700BF03030100260301004503010005
:1028F8002DE9F043234B8FB00622069306AB0893CD
:10290800012306460A250F4604A9CDE90A120792B3
:102918000AAACDE90C23DFF87490DFF874800993D4
:1029280039460CAB08AA304608F077FB04469DF8F8
:1029380015309DF8112002939DF814309DF8101061
:1029480001939DF81330484600939DF8123008F023
:1029580060FC002C21469DF8112001DB93070CD464
:10296800404608F056FC2120002107F075FD013D86
:10297800D6D100200FB0BDE8F083034808F049FC29
:10298800F7E700BFF90300209B030100540301008F
:102998006703010010B5164B8EB00622069306ABEE
:1029A8000893012304ACCDE90A4207920AAACDE9AB
:1029B8000C2309930CAB08AA08F02FFB9DF81530DF
:1029C8009DF8112002939DF814309DF81010019382
:1029D8009DF81330074800939DF8123008F019FC51
:1029E80005489DF8111008F014FC00200EB010BD29
:1029F800FF03002054030100C80301001FB50B4B5F
:102A0800CDF808D05A700093022301930123039351
:102A1800002302AA08F001FB014610B1044808F09F
:102A2800F8FB002005B05DF804FB00BF050400209A
:102A3800450301001FB50A4BCDF808D000930223C7
:102A4800019301230393002302AA08F0E6FA014642
:102A580010B1044808F0DDFB002005B05DF804FB68
:102A6800070400204503010038B50446FFF794FE2B
:102A78000F4B626818600F4B0F4D53432F21A36013
:102A88000E482C6008F0C5FB2D210D4808F0C1FB4D
:102A98002E210C4808F0BDFB2C210B4808F0B9FB8F
:102AA80028681430012211460AF0F4FE002038BDCF
:102AB8001408002040420F0010080020D60301002F
:102AC800E9030100FD030100110401007FB50B4675
:102AD80043EA000602F003053243920700F00301BF
:102AE80003F0030410D0003D18BF0125003C18BFB7
:102AF8000124003918BF0121024600910348044906
:102B08000295019408F085FB04B070BD73020100C2
:102B180023040100F7B5044616460D460E4FFFF78D
:102B2800D5FF38684FF0FF32C36A14301C434FF0AA
:102B3800FF3308F078FA0948009622462B460849E0
:102B48000068FFF73FFE04463868143007F04AF97A
:102B5800204603B0F0BD00BF100800201408002074
:102B680000E60000F7B5044616460D460E4FFFF77F
:102B7800ADFF38684FF0FF32C36A14301C434FF082
:102B8800FF3308F050FA0948009622462B460849B8
:102B98000068FFF74DFE04463868143007F022F944
:102BA800204603B0F0BD00BF100800201408002024
:102BB80000E600002DE9F341DFF888800646D8F8E2
:102BC80000300F4693F830400134A40020460BF043
:102BD8004FF9054658B940F25D321649164808F0D3
:102BE80018FB6FF00B06304602B0BDE8F0812246B4
:102BF80000210AF00DFAD8F800004FF0FF324FF02C
:102C0800FF33143008F00FFA0C48009432462B4674
:102C18000B490068FFF70CFE0646D8F80000143090
:102C28002C4407F0DFF854F8043C28463B600BF0CE
:102C380018F9D8E7330401009A02010014080020AB
:102C480000E6000010080020024B0A4618680249F6
:102C5800FFF7D4BE1408002000E60000024B034929
:102C68001868FFF7E7BE00BF1408002000E6000060
:102C7800024B03491868FFF73BBE00BF1408002049
:102C880000E60000024B03491868FFF783BE00BF47
:102C98001408002000E60000D0B50E4806F0FCFC41
:102CA80004464FF4B0520C2108F057FA4FF480460E
:102CB80000273046394607F0CFFB4FF4D0520C219D
:102CC800204608F04AFA30463946BDE8D04007F0B9
:102CD800C3BB00BF4104010070B5134C742200212E
:102CE80020460AF095F94FF4D073A3814FF40003FE
:102CF800E3620823002563600C4B0126C4E91453E2
:102D080040F201131022FF2104F1340023822570C0
:102D1800256784F83050E6730AF07AF9044B2046A8
:102D2800C4E91135E66470BD1C08002048040100A0
:102D380048161816034A044B002814BF10461846B4
:102D4800704700BF70010020540100200B68013358
:102D58000B60014B1B6818478C010020014B186061
:102D6800704700BF8C01002007B50B4600210246C2
:102D78000191034801A900F079F903B05DF804FB5B
:102D8800552D000030B5002585B0CDE90101044678
:102D980001A90548039500F069F9DDE90230984278
:102DA800B8BF255405B030BDF5B100002DE9F84F86
:102DB800B0F81890044619F0080893460DD0012978
:102DC8000CBF49F0100949F02009A0F818908BF3BE
:102DD8001188BFF36F8FBDE8F88F09F00709022942
:102DE80007D1204608F02FFA0028F0D00128238BBD
:102DF80050D16769218B002F15DA256821F007016A
:102E0800C4E9008841F0010121830026218B01F0EB
:102E1800070ACA4502D0A368002B5CD10DB9002E61
:102E280074D0002358E001F007035A1F012A20D864
:102E380021F00701062B256889B2C4E900880CD166
:102E4800002D2B4638BF00232BB1628B1B68013243
:102E58006283002BF8D141F002012046218308F05B
:102E6800F2F906460028D1D0238B43F020032383B0
:102E7800CBE7042B0CD121F0070189B2204621832E
:102E880008F0E1F905460028BFD041F02001218370
:102E98000025BAE7032809D1226923F00703166839
:102EA80043F00603002523832F46AFE7042806D105
:102EB800226923F00703566843F00403F2E7052864
:102EC80006D1226923F00703966843F00503E9E772
:102ED80000252E46E8E7012341F0080121838BF302
:102EE8001188BFF36F8F03BB002D33D116B1204675
:102EF8002049B0474FF02003EFF3118B83F312887A
:102F0800BFF36F8F238B23F008032383238BDA0609
:102F180028D5012123F010032383B4F8189009F071
:102F2800070900297FF45BAF51E7A1680029DBD0CE
:102F38000B68002B38BF0023994652463B46204673
:102F4800D1F804B0D847B9F1000FCDD04946D9F827
:102F58000030EEE729463B46524620462D6808F0E9
:102F68008EF9C1E713F020011EBF23F020030221D0
:102F78002383D2E7B3B200002DE9F047C4680025E7
:102F880004F1FF3A40F26C7443690769E41807F1E9
:102F9800010745EBE375022F8CBF00230123E41AD8
:102FA80065F10005002C75F1000306464FDA6FF451
:102FB800C7704FF4C8720023201845F1FF31FDF7A0
:102FC80095FC264B022F03FB0044D6E90053984694
:102FD8004FEAE379B3684FF03C06C6FB0389A8FBC8
:102FE800062306FB09338CBF6FF0020C4FF0090C67
:102FF800521943EBE57340F26D15A60805FB04650D
:10300800AA446425B4FBF5F4AAEB04044FF0990A2A
:1030180067440AFB07FA05270AF1020ABAFBF7FA1E
:103028000F4D5444A0FB056705FB017736190D4C7D
:103038000D4947F100073419A4FB014547F1FF305A
:1030480001FB0055A01845EB0301BDE8F0874FF4DC
:10305800C872002320462946B1E700BF70FEFFFF73
:10306800B13A02009405F5FF805101002DE9F04FB7
:10307800884691461C460025A5B0039099F80000A3
:1030880010B9284600F018BE09F101032528099354
:1030980007D04146039B98470028C0F20D860135AA
:1030A80045E21822002116A809F0B2FF99F801306C
:1030B800252B79D00022164696461746944609983D
:1030C800014610F8013B2B2B00F09E8000F2958002
:1030D800202B00F09B80232B00F09B80BCF1000F7D
:1030E80005D09DF8600040F004008DF860002FB115
:1030F8009DF8600040F008008DF86000BEF1000FF8
:1031080005D09DF8600040F010008DF860002EB1E9
:103118009DF8600040F020008DF860002AB19DF80D
:10312800602042F040028DF860209DF8602002F097
:103138004400442803D16FF386128DF860209DF86F
:1031480060202A2B42F080028DF860207CD19DF807
:1031580061204B1C42F001028DF861201A782E2A5A
:103168000CBF012100219DF8612061F341028DF817
:10317800612075D15A782A2A6BD000210A2601339A
:10318800184610F8012BA2F13007092F40F2AA8047
:103198009DF860201A91C2F3400040EAD17161F3B2
:1031A80041028DF860205BE009F1020209928DF876
:1031B80063309DF86130DE0740F16F8154F8042BCD
:1031C800002A089208DA9DF8602042F004028DF87F
:1031D8006020089A52420892580740F1668154F8D4
:1031E800047B002F80F265819DF861306FF3410305
:1031F8008DF861304FF0FF375BE12D2B0BD0302B72
:103208007FF46CAF01225BE7012759E74FF0010E0D
:1032180056E7012654E74FF0010C51E733460CFB03
:103228000202303A1E4616F8010BA0F13007092FAA
:10323800F4D9994292D09DF860101992D20F62F396
:1032480041018DF8601089E70B4600224FF00A0C07
:10325800E8E79DF86120023342F004028DF861200E
:10326800194611F8012B6C2A5CD040D8682A46D040
:103278006A2A61D04C2A67D019460B4613F8012BED
:10328800782A09938DF8632000F2DF80572A68D8DE
:10329800412A04D0A2F14503022B00F2D680042172
:1032A8009DF8623002F0DF02A2F1410A61F30203E5
:1032B800DAF100029DF8611042EB0A0262F3C711CD
:1032C8000A068DF862308DF86110CBB200F1E38008
:1032D80003F07802182A40F0B5806FF3C6038DF822
:1032E80061309CE006FB01210346303948E7742A27
:1032F80026D07A2AC0D106229DF861300DE05A788E
:10330800682A9DF8612006D1012161F3C6028DF873
:103318006120991CB1E71346022262F3C6038DF8B7
:103328006130AAE75A786C2A9DF8612001D10421FE
:10333800EBE713460322F0E705229DF86130ECE73E
:1033480007229DF86130E8E7BDF8603023F4F043C8
:1033580023F0020343F4804343F00203ADF86030E6
:103368008BE7A2F15803202B6FD801A151F823F065
:103378002B34000053340000533400005334000051
:103388005334000053340000533400005334000019
:1033980053340000A7320000533400002B340000DF
:1033A800FD330000A7320000A7320000A73200005A
:1033B80053340000FD330000533400005334000040
:1033C8005334000053340000613400002B340000F3
:1033D800813400005334000053340000813400006D
:1033E800533400002B3400005334000053340000E1
:1033F8002B34000001219DF8623061F302038DF83F
:1034080062309DF8613003F07803402B02BF9DF8CD
:10341800601041F001018DF86010632A05D0002387
:1034280006E002219DF86230E7E7003B18BF012360
:103438009DF86020C2F340010B4363F341028DF80D
:103448006020B6E613F0380FE9D09DF8603043F0FD
:1034580001038DF86030E2E703229DF8623062F3E1
:1034680002038DF862309DF8613003F07803A3F110
:1034780040077B427B41DBE703229DF8623062F321
:1034880002038DF862309DF8613013F0780F14BF95
:1034980001230023CCE70123CAE79DF96020002A15
:1034A800ACBF4FF0FF32199A95E699077FF5A2AEA7
:1034B8001A9F0023CDE919339DF8623003F0070302
:1034C800042B09D19DF861309A0705D49DF9613024
:1034D800002BB4BF0D2706279DF862309DF86110B8
:1034E80003F00703012BC1F3C30136D1CB1E042B14
:1034F80020D8DFE803F00307071F1F0054F8042B48
:10350800D31704E0073424F00704F4E80223CDE9D4
:1035180016239DF86060B30755D04A464146099B7B
:10352800039808F083FA0028C0F2C6830544DDF842
:103538002490A3E554F8042B01294FEAE273CDE95E
:10354800162305D19DF85830169300231793E0E70A
:103558000229DED1BDF95820D2E7022B23D1CB1E98
:10356800042B13D8DFE803F0030A0A121200002321
:103578002268201D169217930446CAE7073424F0E0
:103588000700F0E80223CDE91623F5E754F8043BD9
:10359800012916934FF000031793D3D00229B8D10D
:1035A800BDF85830D0E7042B07D1073424F00704BE
:1035B800F4E80223CDE91623ABE7032B04BF54F844
:1035C800043B1693A5E79DF86390B9F1780FAED840
:1035D800B9F1570F00F2A780B9F1250F00F0EE807E
:1035E800B9F1240FA3D9B9F1410F03D0A9F14503CB
:1035F800022B9CD8DDE91623002A73F10001C0F2E2
:10360800D581310700F1D48116F0100618BF2026A5
:10361800C3F30A5BC3F3130306920793DDE906239A
:10362800CDE91223BBF1000F40F0C481DDE9063279
:10363800134314BF4FF0010C4FF0000C5846079984
:10364800B9F1460F4FEAC123069908BF4FF0660942
:10365800CA0243EA51534BEA02010C91C1171943BC
:103668000D91DDE90C010143CDE9122300F015822B
:10367800BCF1000F40F0D581129B05210493139BE8
:10368800ABF2FE3B43F000430593DDE90423CDE9AB
:10369800122300231A461BF1020FC0F2CB811BB183
:1036A800DDE90401CDE91201DDE91231BBF1000FBA
:1036B80000F3DB811399129BCBF104000BF11C0B77
:1036C80001FA0BFBA0F1200CC34021FA0CFC43EAE1
:1036D8000B0343EA0C03C140CDE9123109F0DF03C3
:1036E800472B40F0E181D01C02DB974280F2D88161
:1036F800A9F10209002F5FFA89F900DD013F9DF861
:103708006030990600F1D081002FD4BF0023012337
:10371800B9F1660F0E9340F0C981BB1840F1C7811B
:103728004FF0000AC7E1A9F15803202B3FF6FFAE7E
:1037380001A252F823F000BF5539000037350000C8
:1037480037350000373500003735000037350000C1
:10375800373500003735000037350000FD350000EB
:1037680037350000F1370000F5380000FD3500005E
:10377800FD350000FD35000037350000F538000044
:103788003735000037350000373500003735000081
:103798008B390000553900005939000037350000D1
:1037A80037350000CB3700003735000055390000A9
:1037B8003735000037350000553900004146484686
:1037C80068E4002FDDF858900ADB3946484609F0CE
:1037D800C9FB002609EB000AB9F1000F0CD1A6E6D7
:1037E800484609F0B8FBF4E70026169B0DF1750A68
:1037F8008DF874300DF17409AAEB090206B1013293
:103808009DF86200C30640F14C82023219994006C5
:103818000A44089B44BF1A995218002B25DD9B1AAD
:103828009DF860205107C2F3800B00F14C825706C7
:1038380040F14582002E00F044820893414630460C
:10384800039B98470028C0F237825E463027089BC2
:103858000135089303EB050B089BABEB0305002B25
:1038680003F1FF33089300F320823EB1414630460E
:10387800039B98470028C0F21F8201359DF86220FB
:10388800560640F17E829DF96120002AC0F21D8211
:10389800A5EB090599F800004F46A0F13002092A66
:1038A80005EB090B09F1010940F23F829DF86220FE
:1038B800199E900608D406EB0B09002EA9EB060BFF
:1038C80006F1FF3600F3388238782E280BD14146AE
:1038D800039B98470028C0F2EF81002E0BF1010BE3
:1038E80000F332820137ABEB070B38E230072BD4F9
:1038F80016F0100618BF2026DDE91623002A73F1FA
:10390800000105DA2D26524263EB4303CDE9162365
:10391800DDE916010DF18D03009318AA1DAB08F01F
:103928003AF88146002F0DF18D030BDB9DF86010EE
:10393800A3EB09026FF3861197428DF8601001D945
:10394800BF1A19979A4647E72B26D5E70026DFE7DF
:103958001698002800F09F810DF18D030093002137
:103968001DAB18AA08F017F8BDF86230814603F0BD
:10397800EF0343F4F04343F010030026ADF8623040
:10398800D0E7169B07293FF6D2ADDFE801F00D041A
:10399800060D08080D0D1D70C9E51D80C7E52846F0
:1039A800E917C3E90001C2E51D60C0E52D262FE631
:1039B8002B262DE640F2FF739B452DD1DDE906232A
:1039C8001343A9F1410918D1B9F1190F95BF44F66C
:1039D800496346F66963ADF87430ADF8743094BF46
:1039E800462366238DF876309DF860300DF1770A0E
:1039F8006FF386138DF86030FCE6B9F1190F95BFA7
:103A080044F24E1346F26E13ADF87430ADF87430CC
:103A180094BF4E236E23E5E74FF0000C0EE60BF142
:103A2800FF3B92185B41002A73F10001F7DACDE9F8
:103A3800122321E6049B05985B0843EAC0734008FB
:103A4800B0F1333FDC46CDE904300BF1010BF1D284
:103A5800A3FB01AB4843CDE904AB059B0CF1020B7A
:103A6800C3180593013A012315E6023341F1000119
:103A780012A8CDE912310E9207F057FFDDE91201C5
:103A88000E9A0BF1FF3B013200184941002871F1F1
:103A980000030BF1FF3BF7DA04E60022934609E640
:103AA8004FF06609BF1A2AE6002331E67B1C102B6B
:103AB800A8BF10239A461021002011914FF00061F1
:103AC800CDE91401DDE914100AF1FF3ABAF1FF3F1C
:103AD8001FD1129BCB180A93139B6FF0704140EBD8
:103AE80003034FF0FF300B93DDE90AAB594508BFDC
:103AF80050451AD350465946CDE91201B9F1660F1F
:103B080053D1002A20DC30230DF1750A8DF874306A
:103B18002BE0490841EAC0714008CDE9141014A807
:103B28000F9207F002FF0F9ACCE70A9B0F920B9AAD
:103B38005B0843EAC273510812A8CDE9123107F0B5
:103B4800F4FE0F9A0132D9E70DF1740A1199002990
:103B580009DD11A912A80F9207F006FF0F9A0AF8BB
:103B6800010B013AF2D1199200229DF860108806E3
:103B780001D4002F3FDD53462E2103F8011B92B1DB
:103B8800002F76DD5142B942A8BF39460029199164
:103B9800A7EB0107D4BF002101219DF8620061F362
:103BA80045108DF862009A4620E011A912A80F92DC
:103BB80007F0DAFE0F9A9DF86030302818BF02F13E
:103BC800FF3299068DF8740001D4002F53DD2E239F
:103BD8008DF875300DF17603E5E711A912A80F925B
:103BE80007F0C2FE0F9A0AF8010B013F002F02DD11
:103BF80011990029F1DC0E9B002B3FD11A9709F08F
:103C0800DF01452923D1002AB4BF2D212B2150469D
:103C1800B8BF5242632A00F8029B8AF801100ADDF5
:103C28006427B2FBF7F107FB112201F1300C0AF10E
:103C380003008AF802C00A27B2FBF7F1824607FBA5
:103C4800112201F1300C30320AF802CB4270199A75
:103C5800002A1EDC1A9A002AD4BF002201229DF8ED
:103C6800621062F3861100228DF862108AF8002033
:103C7800C0E59A46BFE70DF1750ABCE700211A9125
:103C880050461AF8011D3029FAD02E2918BF82464D
:103C9800B5E70122E3E7DFF83CA10646AAF10509EA
:103CA800AAE5070748BF0132B0E541463846039BFD
:103CB80098470028BFF6D0AD25B0BDE8F08F202783
:103CC800C7E53027C5E50893CFE5A5EB090B4E46B8
:103CD8000BEB090519F8010B702820D11A9A02EB91
:103CE8000509A9EB0502002A43DC53463246414642
:103CF800039807F09BFE0028DEDB089B284403445A
:103D080005469A46AAEB0503002B7FF710AC4146FF
:103D18002020039B98470028CEDB0135F2E7414677
:103D2800039B98470028D2DAC6E74146039B984789
:103D38000028BFF6AFADBFE741463020039B984748
:103D48000028BFF6BAADB7E741463020039B984735
:103D5800013EBFE54146039B98470028ACDB3E4641
:103D68000BEB070517F8010BA0F13002092AF1D96E
:103D7800B4E741463020039B984700289CDB013577
:103D8800AFE7D10601D4120706D541463020039B80
:103D98009847002890DB01359DF86220D30607D5A7
:103DA80041469DF86300039B9847002884DB013552
:103DB800199E2E44721B002A02DC53464A4696E797
:103DC80041463020039B98470028FFF675AF013520
:103DD800F0E700BF5704010008B54FF02002EFF3E9
:103DE800118382F31288BFF36F8F02F019FD034825
:103DF80007F00FFA02F0BEFAFCE700BF5804010012
:103E0800094B0A4900F01F024009012808BF0B4668
:103E180003EB8203D3F8002222F0E04242F0405242
:103E2800C3F80022704700BF002584500028845042
:103E380070B54FF02003EFF3118683F31288BFF3B8
:103E48006F8F01240C4B0D4DC3F800450223002051
:103E5800C5F8D036FFF7D4FF2046FFF7D1FFC5F8E5
:103E68000447C5F80449C5F8004B86F31188BFF329
:103E78006F8F002070BD00BF001000500040005040
:103E880048B1054B1A68054BB2FBF3F2044B50439B
:103E980043F00103184770476002002040420F00BA
:103EA800D0E30000062807D10122044BC3F80025FF
:103EB800BFF34F8F20BFFDE7704700BF00400050A1
:103EC80013B5044605F0A8FEC0F307230193C0F319
:103ED800074300930821030E034A204608F04DF9D2
:103EE800002002B010BD00BF810401002DE9304858
:103EF800044609F017FE4FF47A75A0FB05BC05FBD4
:103F080001CC4FEADB32204642EA4C430821034AFF
:103F180008F033F90020BDE8308800BF9A0401009A
:103F280010B5044604F088F908210346074A2046DC
:103F380008F023F92046064A082108F01EF9214610
:103F4800044805F0FDFC002010BD00BFA9040100D5
:103F5800C8040100613F0000F0B587B004460D4673
:103F6800D0F8A07009F073FC064606F08FFA234BD0
:103F7800234A002E08BF1E46224B0821844218BF40
:103F88001346CDE9004628461F4A08F0F6F8D4E95A
:103F98000A23CDE9022394F90E30082128461B4A4A
:103FA8000093237B08F0E9F8204605F011FD626EC6
:103FB8000346009208212846154A08F0DEF82046F4
:103FC80005A909F054FC034630B108212846114AD6
:103FD80008F0D3F807B0F0BD6423059A2846B91A4B
:103FE8004B43B3FBF7F3CDE90021CDE90273082178
:103FF8003B46094A08F0C1F8ECE700BFD4040100C9
:10400800F80C0100D2040100D7040100E304010008
:104018000F050100260501005305010070B5124E79
:1040280088B004460146114805F08AFC07AA4FF4F7
:104038000061304609F00FFC64224FF4006300254C
:1040480007990095C1F500604243D20ACDE9030300
:10405800CDE901312046059233460821044A08F08B
:104068008CF8284608B070BD5032002099400000F6
:104078008A05010010B5044609F0B3FA0821034681
:10408800024A204608F079F8002010BDD00501004A
:10409800F0B504460D46D0F8A06089B007A909F02C
:1040A800E6FB034630B1082128460F4A08F065F8B8
:1040B80009B0F0BD204609F0CAFB6423079A0B4FEC
:1040C800B11A4B43002808BF3846B3FBF6F3CDE9D5
:1040D8000221CDE90463CDE90006234608212846DC
:1040E800034A08F04AF8E3E726050100D404010072
:1040F800E60501000346006810B50C46114608B1F4
:10410800027822B92046024A02F054FD204610BD2A
:10411800E906010010B50C68D1E90112FFF7EAFFC2
:1041280008210346024A204608F027F8002010BD5F
:10413800EE0601002DE9F0478AB0054601A805F012
:104148009DFA1826019B082106FB0036194A2846C5
:1041580008F013F8DFF86880019CDFF86890DFF852
:1041680068A0B44203D300200AB0BDE8F08705AFC9
:10417800394614222046FFF7BDFF42460346082170
:10418800284607F0FAFF204609F0D5FA082100284A
:1041980014BF4B465346084A284607F0EEFF14233F
:1041A8002046064902AACDE902570493183409F0BB
:1041B800CCFAD6E70D0701001C0701001D410000DD
:1041C80017070100FE060100040701002DE9F0436E
:1041D80006460027104BDFF8449053F82140013180
:1041E80053F8218087B0A04503D8384607B0BDE80A
:1041F800F083204609F09FFA054658B1142201A918
:104208002046FFF777FF4A4603460821304607F065
:10421800B4FF2F461834E6E714E70000230701002F
:1042280010B5044608211E4A07F0A7FF00212046C2
:10423800FFF7CCFF20B9082120461A4A07F09DFF56
:1042480008212046184A07F098FF01212046FFF769
:10425800BDFF20B908212046124A07F08EFF082129
:104268002046124A07F089FF02212046FFF7AEFFD9
:1042780020B9082120460B4A07F07FFF0821204675
:104288000B4A07F07AFF03212046FFF79FFF20B96A
:1042980008212046034A07F070FF002010BD00BF28
:1042A8002907010038070100400701004F070100F6
:1042B8005D0701007FB50A684B6904924A6803F2FA
:1042C8006C7303928A680292CA6801920A6908218B
:1042D80001320092024A07F050FF07B05DF804FB74
:1042E800C1070100F7B5137806463A2B0F46154665
:1042F80016D1541C23783A2B2ED1013400230A22DC
:10430800204601A9019308F0ECFC019A0346A24259
:10431800386010D0107870B93C2B0ED9184A14E0C8
:1043280000230A22284601A9019308F0DAFC019C1F
:10433800B860AC4203D16FF0150003B0F0BD23782C
:104348003A2BF8D1172805D90E4A0121304607F033
:1043580014FFF0E70134CDE700230A22204601A923
:10436800019308F0BEFC019A7860A242E3D013786A
:104378003A2BE0D13B2801D9034AE6E7541CBDE7B4
:1043880000080100E2070100F00701002DE9F043F1
:1043980004460D46174691B0012002A9FCF774FCAB
:1043A80007A902A802F01EFC032D60D14FF00009F6
:1043B8007D680A22284601A9CDF8049008F091FCEE
:1043C800019E8046B54218D032782D2A15D1013683
:1043D8000A22304601A9CDF8049008F082FC019B1E
:1043E8009E420AD01A782D2A07D1451E0B2D0DD9C9
:1043F8002B4A0121204607F0C0FE204607F0CAFEDE
:104408006FF01505284611B0BDE8F0835E1C0A223E
:10441800304601A9CDF8049008F063FC019B9E4248
:10442800EBD01B78002BE8D1431E1E2B01D91D4A67
:10443800DFE7A8F26C73CDE90B53BA680A902046FF
:1044480007A9FFF74FFF0028D7D107A806F0B0FF4C
:104458000B460246CDE90223013308BFB0F1FF3F06
:1044680009D101212046104A07F087FEC8E7022D2E
:10447800C3D17A68E3E70023012002A90493FCF77B
:104488006FFC054630B1034601212046074A07F074
:1044980074FEB5E7204607A9FFF70CFFB2E700BF97
:1044A800100801001F0801002C0801005508010030
:1044B8008B1E022B2DE9F04107468846144633D857
:1044C80010220021606808F082FCB8F1020F06464D
:1044D8001ED00A220021A06808F079FCC5B22B463C
:1044E800082138461F4A07F048FEB8F1040F1ED0CD
:1044F800102D0FD0202D10D0082D10D13378DBB21D
:1045080008213846184A07F038FE0020BDE8F08137
:104518002025E4E733889BB2F2E73368F0E7082107
:104528003846124A07F029FE6FF01500EEE7102210
:104538000021E06808F04BFC0821034604460C4AB9
:10454800384607F01AFE102D06D0202D07D0082D6A
:10455800E5D1E4B23470D8E7A4B23480D5E734604A
:10456800D3E700BF9A080100C5080100AF080100A1
:10457800D608010070B50F4C05460E46237839B1B0
:1045880033B101210C4A07F0F8FD6FF00F0070BD40
:1045980083F00103237033B108212846074A07F046
:1045A800ECFD012323702846314607F008FE002061
:1045B800EDE700BF0B230020EA08010025090100F0
:1045C80000232DE9F74F144606462D480D46036093
:1045D8002C492D48DFF8C090DFF8C0A0DFF8C0B044
:1045E8000B7003600091012D274654F8043F21D930
:1045F800184602224946019308F0C9FC019B88B974
:1046080022689278003A18BF012203EB020851464B
:104618000222404608F0BBFC30B90123009A13700F
:10462800013DE0E70022F0E74946404608F0A3FCD8
:10463800B0B9043700227868114608F052FB00220E
:10464800124B11461860786808F04BFB104B114963
:1046580018603046FFF78EFF002003B0BDE8F08FEA
:1046680098F800202D2AE5D198F80120002AE1D0F9
:1046780043465A460821304607F07FFDD0E700BF81
:10468800940800200C2300209C080020900800209B
:1046980098080020AD4600004F09010052090100AA
:1046A8005509010070B53E4B05461878182802D107
:1046B8000878112831D00846013A5418844225D187
:1046C8008A5C384C1A700A78A2F13003092B04D995
:1046D80022F02003413B052B04D823683249CA54F1
:1046E800013323602368022B34D1102200212E4885
:1046F80008F06DFB2D4A136803F8010B13602C4A70
:104708001368013313600023236023E010F8016B62
:10471800182ED3D10678112ED0D1254C0821236824
:104728002846244A07F029FD00212846FFF722FFE2
:10473800214B187870B9214A23681168042B0ADCC8
:1047480008B11160236013F003010BD112681368DC
:104758001BBA136070BD0868043B00BA41F8040B2B
:104768000120EBE75B4203F0030358BF59420229DB
:1047780007D112681168C1F3072343EA01239BB2EA
:10478800E7E70329E6D1106802681104C2F307437A
:1047980001F47F010B4302F47F4213430360D9E71E
:1047A8000D230020940800200923002090080020F1
:1047B8009C0800206A0901000C23002098080020AA
:1047C80013B5094808F0B7FF58B10024074A012378
:1047D800126805490648009400F070FD204602B0B2
:1047E80010BD6FF01200FAE76CE0000008E8000066
:1047F800DCE2000010B50C46114642681068836080
:104808000023C0E900419168C1E90233C1E90533D9
:104818004B600B61D168C1E90233C1E905334B60D4
:104828000B61C360A36823B19B6C13B12046044994
:104838009847A3689B6A0BB120469847002010BD93
:1048480007BF000010B504468168083101F072F90D
:10485800A1682046BDE81040014A083101F006B9B8
:10486800250A010037B5044680680D46D0F8643241
:104878005A0705D5002107F017FCE06808F007F98A
:10488800E368DB686BB9002D37D0A068423007F0C9
:10489800F8FBA36898B303F1420103F5A17008F08F
:1048A8002FFBA2682946E0680DF10603423208F0A2
:1048B800F1F858B9A06800F5A171423008F020FB62
:1048C800A068423007F0DDFBADF80600204607F08F
:1048D80047FFA368D3F860329B0603D5094960698E
:1048E80007F0D5FB204600F015FFA368BDF80620A9
:1048F8002046DA879A8700F0CFFE03B030BD83F8F0
:104908004201CEE790E300000222836810B51A71D5
:104918009B6B0446CBB9826882F84230D3638368C4
:10492800D3F86432DB040BD50321084B084A07F09F
:10493800C3FFA0686FF4805100F5197007F059FBA8
:104948002046BDE8104000F0FFBF10BD330A01004B
:104958001907010000232DE9F04F04469FB0CDE967
:10496800053383684233039307F000FF204607F0BE
:1049780084FE18B99F49606907F089FB00264FF04B
:10498800FF38B146B2463546B346A0681422002126
:10499800083008F03DFB204607F0E8FDA168E06814
:1049A8008A8F423108F0ADF8204608F02AF911AF95
:1049B8000296DDE90532012A00F0D7800B2B40F280
:1049C800AF80069B022B40F0AF8001218A4B8B4AB7
:1049D80014E002233946039A06A807F05BFC7A68BC
:1049E80006990346039229B96FF0070528461FB0B8
:1049F800BDE8F08F012905D120B1814A204607F092
:104A08005BFFF1E7059B4BB3386801F0B7F898B145
:104A180066B1A5680D9608350CAE0FCE0FC5336884
:104A28002B602046FFF70EFF0125DFE7754A0121BD
:104A3800204607F041FFD7E7059B7BB12946204672
:104A48003A6801F0F9F9022800F08F80032805D0B0
:104A5800059B0133059301230293AAE7BAF1000FDE
:104A680005D15846396807AA07F0FFFC0546043700
:104A780008F1FF38002D41D0029B4BB1EB683BB1E8
:104A8800204607F073FE204600F006FE5E4ACEE799
:104A9800EB68CBB1AE46A368DDF8149003F1080CBF
:104AA800BEE80F00ACE80F00DEF80030CCF80030AC
:104AB800AB684BB96B7CFE2B01BF95F8108009F1F0
:104AC800010308F1FF380593D5F804C0BCF1000FC5
:104AD80008D0AE460CAEBEE80F000FC6DEF80030B8
:104AE80033606646AB46B8F1000F03D1069B022B34
:104AF8007FF45FAF059B013305935AE7059B63B9C4
:104B0800A368DB690BB1DB683BB9404B012100931B
:104B18002046119B3E4A07F0CFFE4FF0010AE2E71C
:104B2800B8F1000F7FF455AF029B4BB1204608F057
:104B380089F8A2680C23423211A905A807F0AAFB3C
:104B48000022059DA0681EAB03EB850343F8342CB7
:104B5800436973B9002E3FF447AFC368B3423FF4CB
:104B680060AF0D9600F1080556E7059B0B2BDBD9C6
:104B780027E7037EA5EB0905B3B14FF6FF71427E27
:104B8800FF2A08BF0A469D4202D313449D420BD90F
:104B98008368012120461F4A07F08EFE2046FFF752
:104BA80051FE6FF0150521E74FF4006100F519700B
:104BB80007F014FAA06800F53E7007F060FAA368E1
:104BC80011AA294602EB890220465B6998470546E7
:104BD800A0684FF0FF324FF0FF3300F53E7007F04A
:104BE8008DFAA0686FF4006100F5197007F001FAFA
:104BF800FCE600BF88050100EC0A0100250701005A
:104C0800770A01008B0A0100A90A0100D80A0100ED
:104C18006A0D0100100B01002DE9F04F0446806871
:104C28000121ABB000F5197007F0D8F9A3681B791A
:104C3800022B17D100230B93A36860689E6B03684F
:104C48001D690BABC6B110221DA9A8470B9A4AB122
:104C580020461DA9B047A3689B6B002BECD12046CA
:104C6800FFF752FEA0686FF0010100F5197007F018
:104C7800C0F92BB0BDE8F08F01220DF12B01A84738
:104C88000B9B002BEED09DF92B209DF82B30002A92
:104C9800A068D1DB4279032A00F2FD82DFE812F036
:104CA80004007D029402FB020D2B1AD00A2B18D0A7
:104CB800B0F864226FF3CA02A0F86422092B4DD021
:104CC80033D8002BB8D0082B00F0C981A3F12002FB
:104CD8005E2A00F2D081012107F0E6F99DF82B1039
:104CE800E9E0D0F86422C2F3C7022AB1D0F86422FE
:104CF800C2F3C7029342E1D1B0F86422818F63F313
:104D0800CA02A0F8642261B907F0CEF9E06807F09A
:104D1800BEFEAC49606907F0BAF92046FFF7F4FD1A
:104D28008AE72046FFF716FEF7E71B2B13D07F2BE9
:104D3800CCD1D0F860329D077FF57EAF012107F016
:104D4800B3F9A368D3F86032190700F190812046BF
:104D580007F0F3FD70E7012343716DE7D0F8603287
:104D68009B077FF569AF012107F09EF9A068838F43
:104D7800FF2B3FF461AF0025C28F00F1420100F51F
:104D8800A17008F03AF9A2681DA9D38F0DA81344A1
:104D980083F8425102F5A1720C2307F07BFA0D99B2
:104DA8000C293FF649AF2AAB03EB810343F8345C87
:104DB800A368DA8F134493F84130202B00F06D82FA
:104DC800093B042B40F2698201294FD800250C9534
:104DD8000C9B2AAA02EB830353F834AC00265046F6
:104DE80007F04FF9B04681463746049639462846BB
:104DF80018AA00F0F3FB8346002844D1012E63D1A2
:104E08000C9B2AAA02EB830353F8340C07F039F9F8
:104E1800A268064641462846083200F0DFFB0546F0
:104E2800006807F02EF9864206D02968821B92B2E4
:104E38002046314407F07FFDA068C38F034493F8F0
:104E48004230202B3BD0093B042B38D9D0F86032B4
:104E5800DF072FD5002107F037F92021204600F081
:104E68003BFD0121A06807F02FF9E5E60139002094
:104E78000EAB009301900CAB1DAA07F016FB05467C
:104E88000028A5D1D8E64A465146DBF8000008F0CC
:104E98007EF868B9DBF8000008F05DF8049B8342EF
:104EA80038BF03469BB2002E08BFB84604930136AC
:104EB80001379BE72021204600F00EFDBCE60121CA
:104EC800204607F0EEFBB7E67FF6B6AE0C9B2AAAA3
:104ED80002EB830353F834AC504607F0D2F8A368CA
:104EE8000690A3F830B0DFF8E0B00596CDF80C8056
:104EF800A26828460399083200F070FB039B074616
:104F080001330393BAF1000F52D13B68002B5DD1F6
:104F1800A2681386059B013B0593E9D1294960697D
:104F280007F0B5F8204600F00FFD0C9B2AAA02EB0B
:104F3800830353F8340C07F0A4F8414613AA074634
:104F4800284600F04BFB08F101098046A068D8F814
:104F58000010FF2200F5A17007F0DCFFD8F800A0D0
:104F68004FF6FF784946284618AA09F1010B00F0C8
:104F780035FB002866D00022A368006803F5A173FA
:104F880013F801CB815C614505D121B14FF6FF7162
:104F980001328A42F4D10FB1BA4207DB9045A8BF6B
:104FA8009046013E012E1FFA88F84BD0D946D9E722
:104FB80000680028A9D05146069A07F0E8FF0028A3
:104FC800A3D095E788050100F70C01005846079320
:104FD80007F057F8049BA168C21892B258464F8D43
:104FE800099207F04EF8079B0890184607F049F811
:104FF8000899099A7F1AA2EB000997FBF2F2A068B8
:1050080092B2B0F830C0079BBCFBF2F102FB11C2B0
:105018000CF1010E92B21FFA89F9A0F830E05AB9E2
:10502800009306215B4620469E4A07F045FC494608
:10503800204600F01BFB6DE7062120469A4A07F040
:105048003BFCF4E7B8F1000F3FF4F6ADA8EB07021C
:10505800204692B20AEB070107F06DFCECE5D0F8A8
:1050680060329E077FF5E8AD012107F01DF8204664
:1050780007F07EFCE0E5D0F8602292077FF5DCAD12
:10508800013B162B3FF6D8AD01A252F823F000BF22
:1050980071520000F5500000FD500000574D00000F
:1050A800655200001D510000414C0000414C0000B9
:1050B800414C0000414C0000255100002D510000DA
:1050C800414C000057510000414C00006151000064
:1050D800414C0000414C0000414C0000414C000094
:1050E80065510000414C000093510000204607F034
:1050F80044FBA1E5204607F039FB204607F0BDFA3E
:1051080018B96A49606906F0C2FF0121A06806F073
:10511800CBFF02E6204607F038FB8DE5204607F076
:105128003DFB89E5D0F860329F0603D56049606988
:1051380006F0ADFFA368D3F860329E0603D55D493B
:10514800606906F0A4FF204600F0FEFB74E500212C
:105158002046FFF787FB6FE50121F9E7204607F0B6
:10516800FFFA0022A368012183F84220DA63A068CD
:1051780006F09AFFA368D3F860329D067FF55CAD10
:105188004D49606906F083FF56E5204600F008FBAC
:105198000121A06806F088FF4EE55B2B01D10223B0
:1051A800DAE5D0F86022900706D5622B08D14FF0D7
:1051B800FF31204607F099FA0022A3685A713BE5AF
:1051C800662BF9D10121F4E700224271A268D2F8D6
:1051D800601289077FF530AD313B1B2B3FF62CADB4
:1051E80001A151F823F000BF6D5200007952000070
:1051F8008D52000061520000414C0000414C0000FB
:10520800414C0000414C0000414C0000414C000062
:10521800414C0000414C0000414C0000414C000052
:10522800414C0000414C0000615100005751000002
:105238001D510000F5500000414C0000655200006F
:10524800414C000071520000414C0000414C0000EC
:10525800414C00007D52000003235371204607F0A3
:1052680085FAE9E403235371204607F079FAE3E469
:1052780003235371A068D0F8601201F0010181F096
:105288000101F0E503235371A368D3F860329B074B
:105298007FF5D2AC5BE500235EE500293FF496ADCF
:1052A800E5E500BF2B0B0100190701008805010087
:1052B80095E300009AE3000090E300002DE9F04335
:1052C800044680688846D0F80C1315461F4689B0F6
:1052D800002961D14FF4447207F09AFEA36822684E
:1052E800E0681A6007F073FCA06800F53E7008F0EB
:1052F800CAFA4FF42A794FF41A76A068304408F0B5
:1053080090FDA0680022831901214844103608F056
:105318006BFDB6F52A7F09F11409EED10026A369C1
:10532800A06802211E6000F5197006F057FEA368F8
:105338001B4A18689A6206F0A4FEA36866F3820501
:1053480083F82C006068C3F86052036841461D6802
:10535800144A2346A8470546D0B90122A3681A7102
:10536800D4E9090100220023CDE906230E23039383
:10537800109B4FF40062CDE9017304950A4B009429
:1053880004F0C0FBA368216AC3F80C0304F010FB07
:10539800284609B0BDE8F0836FF07705F8E700BF4D
:1053A80018005000F1C000000154000010B5044678
:1053B80080680379012B19D14FF0FF324FF0FF338A
:1053C80000F53E7006F09AFE0821204600F0AAF982
:1053D8000849606906F05BFE2046FFF795FAA06869
:1053E80000F53E7006F04BFE002010BD6FF0850002
:1053F800FBE700BF87050100F8B5044640680021B7
:1054080003689B68984700283FD12046FFF7CEFFE6
:1054180000283AD11D4F1E4EA06800F52A704FF0A3
:10542800FF324FF0FF33032105F020FA0546A0684C
:105438004FF0FF324FF0FF3300F53E7075B106F0C4
:105448005DFE20462B460121124A07F035FAA06876
:10545800BDE8F84000F53E7006F011BE06F04EFEBD
:10546800606803685B6903B198473A4620460221A1
:1054780006F0EFFD20463246002106F0EAFDA0685E
:1054880000F53E7006F0FBFDC6E7F8BD11C0000050
:10549800214C0000310B010010B5044608210C4ACC
:1054A80006F06BFE204608210A4A06F066FE2046F2
:1054B8000821094A06F061FE20460821074A06F03D
:1054C8005CFE20460021064A00F0D0FA002010BDFC
:1054D800480B0100860B0100E50B0100390C0100A7
:1054E800D30C01002DE9F04716461F462A4A0B4601
:1054F80008210446002506F040FEDFF8A880DFF802
:10550800A890DFF8A8A0AF4231D94A460821204622
:10551800735D06F032FE0135102D20D1082120469A
:105528001E4A06F02AFE0025DFF88080DFF880900A
:10553800AF422AD9735D0821A3F120025F2A28BF50
:105548002E234A46204606F018FE0135102D14D1A8
:105558002046BDE8F0470821114A06F00EBE6A074A
:10556800D1D152460821204606F007FECBE7424635
:105578000821204606F001FECDE76B07D8D1424648
:105588000821204606F0F9FDD2E7424608212046C8
:1055980006F0F3FDD9E700BFE90C0100FA0C0100A1
:1055A800FC0C0100F60C0100F00C0100F80C0100E5
:1055B8001C0D010010B5044613460A46014606486C
:1055C800FDF754FD23691B7923B12046BDE810403F
:1055D80006F0F8BD10BD00BFE5C1000010B50B46D0
:1055E800144650B90E490F4A521AB3EBD20F0FD2D4
:1055F80001EBC3014C68204610BD816841B14A687F
:10560800097839B11846214690472368002BF2D112
:105618000024F0E714204343D418D358F6E700BF1A
:1056280008E3000068E300008368D3F860329B0653
:1056380003D50249406906F0FFBF7047A0E30000A8
:105648000A1E0DDC0ED042238168D1F8601289064B
:1056580008D5002A04494069B8BF524206F0ECBF99
:105668004123F1E7704700BF180D01000A1E0DDC49
:105678000ED044238168D1F86012890608D5002A23
:1056880004494069B8BF524206F0D6BF4323F1E748
:10569800704700BF180D010010B5044606F0EDFF75
:1056A80028B160690549BDE8104006F0C5BF04F19E
:1056B800080006F0CEFF0028F3D110BD88050100D0
:1056C8002DE9F041064656F8084F0546A28F04F129
:1056D8002000E18F06F0C8FD3046B4F82480E78C3E
:1056E80006F0B7FF18B10A49686906F0A5FFB84582
:1056F80007D1218C638C2846BDE8F041C91AFFF711
:10570800B5BFE18CA38C2846C91AFFF799FFF0E7CB
:1057180088050100826802494069423206F08CBF60
:105728001907010008290A4617D8836893F82E102C
:10573800914212D083F82E208368082AD3F8603269
:1057480005D0990609D50549406906F075BF9B063D
:1057580003D50349406906F06FBF70471F0D01006C
:10576800A5E3000038B50D4609780446FFF7DAFFCF
:105778006A78072A11D8A36893F82F1091420CD0A1
:1057880083F82F20A368D3F860329B0605D560699B
:105798000249BDE8384006F04FBF38BD280D01006A
:1057A800F8B5836805469A8F002A4ED0D88F00280E
:1057B8004BD04130184403F142060346C41AB342A1
:1057C8001946A4B20DD311F80179202F3BD0194600
:1057D8000878013B202804D001349E421946A4B21F
:1057E800F5D9631C4E1C121B1944304607F0EEFB1A
:1057F8000023A96828468A8F121B92B28A870A4416
:10580800614282F8423009B206F04BFFAB68D3F828
:1058180060329A0603D50D49686906F00DFF3346D4
:10582800082128460A4A07F047F82846FFF7FCFEF1
:10583800AB68D3F860329B0607D568690549BDE8AF
:10584800F84006F0F9BE0B46B8E7F8BDAAE3000039
:1058580019070100AEE300002DE9F04104460D46AA
:1058680017460AB1FFF7E0FEA368D3F86022D88F85
:10587800520700F14200034421D5184607F06BFB9C
:105888000646DFF85080013E14D2204650F8083F03
:105898009A8FDA8706F0DDFE28B107B11DB10B49F2
:1058A800606906F0C9FE69422046BDE8F04109B2C8
:1058B80006F0F7BE4146606906F0BEFEE3E7082140
:1058C8002046034A06F0F8FFDFE700BF880501001D
:1058D80019070100D204010013B583688DF8071079
:1058E800D3F860220446D00723D5D98F9A8F8A42ED
:1058F8001FD0481C9DF80720D8870B4483F8422006
:10590800A368D3F86012890711D5D3F860326069AB
:1059180013F0040F18BF2A22094906F08DFE20460D
:1059280006F0ABFE18B10749606906F085FE02B0C3
:1059380010BD012220460DF1070106F0CAFFF6E767
:105948001C0D01008805010010B50446836802217A
:105958001B68084A06F0B0FFA368D3F860329B07BB
:1059680007D52046FFF7D6FE2046BDE81040FFF7D2
:10597800A7BE10BD190701002DE9F047044690465F
:105988000E4600296ED00025735D202B25D0093BDB
:10599800042B22D9DFF8D090304607F0DCFAA36850
:1059A80080B2598D401BA1EB0803984206EB050A0B
:1059B80015D95046002710F8012B202A06D0A2F14D
:1059C800090CBCF1040F02D80A2A31D03B4608EB77
:1059D800070291422BD90137EDE70135D4E7534649
:1059E8000027B84217D013F8012B05EB07090A2A3C
:1059F8001BD1606906F0E6FB3A465146204606F0A0
:105A0800F0FE1949606906F0C4FF4146204609F1D5
:105A18000105FFF72BFE6069711906F0BAFF60698E
:105A28001149BDE8F04706F0B4BF0137D9E71F4672
:105A3800606906F0C7FB3A465146204606F0D1FE9B
:105A48003D44735D202B0BD0093B042B08D94946F4
:105A5800606906F09EFF41462046FFF707FE9BE778
:105A68000135EEE7BDE8F087880501002DE9F04F24
:105A78000E460021044617460D468BB0304605AA4F
:105A880001F10108FFF7AAFDB0B995B127B13A466F
:105A98000821204606F010FF0021224FDFF88CA0D5
:105AA800DFF88CB04B1C304605AA0293FFF796FD31
:105AB80060B90BB0BDE8F08F006810B107F04BFA81
:105AC80080B2854238BF05464146D7E70368D0F81B
