:10000000003100200D690000BDCD0000E168000056
:10001000E1680000E1680000E1680000E1680000BC
:100020000000000000000000000000003966000031
:10003000E168000000000000DD650000E1680000EC
:10004000BD660000BD660000BD660000BD66000024
:10005000BD660000BD660000BD660000BD66000014
:10006000BD660000BD660000BD660000BD66000004
:10007000BD660000BD660000BD660000BD660000F4
:10008000BD660000BD660000BD660000BD660000E4
:10009000BD660000BD660000BD660000BD660000D4
:1000A000BD660000BD660000BD660000BD660000C4
:1000B000BD660000BD660000BD660000BD660000B4
:1000C000BD660000BD660000BD660000BD660000A4
:1000D000BD660000BD660000BD660000BD66000094
:1000E000BD660000BD660000BD660000BD66000084
:1000F000BD660000BD660000BD660000BD66000074
:10010000BD660000BD660000BD660000BD66000063
:10011000BD660000BD660000BD660000BD66000053
:10012000BD660000BD660000BD660000BD66000043
:10013000BD660000BD660000BD660000BD66000033
:10014000BD660000BD660000BD660000BD66000023
:04015000BD66000088
:04015400FFFFFFFFAB
:1001580081F0004102E000BF83F0004330B54FEA70
:1001680041044FEA430594EA050F08BF90EA020FDD
:100178001FBF54EA000C55EA020C7FEA645C7FEA70
:10018800655C00F0E2804FEA5454D4EB5555B8BF93
:100198006D420CDD2C4480EA020281EA030382EA04
:1001A800000083EA010180EA020281EA0303362D96
:1001B80088BF30BD11F0004F4FEA01314FF4801C69
:1001C8004CEA113102D0404261EB410113F0004F7B
:1001D8004FEA03334CEA133302D0524263EB430332
:1001E80094EA050F00F0A780A4F10104D5F1200ED0
:1001F8000DDB02FA0EFC22FA05F2801841F100012B
:1002080003FA0EF2801843FA05F359410EE0A5F1FE
:1002180020050EF1200E012A03FA0EFC28BF4CF02F
:10022800020C43FA05F3C01851EBE37101F00045E5
:1002380007D54FF0000EDCF1000C7EEB00006EEBF2
:100248000101B1F5801F1BD3B1F5001F0CD349087C
:100258005FEA30004FEA3C0C04F101044FEA4452D3
:1002680012F5800F80F09A80BCF1004F08BF5FEA5A
:10027800500C50F1000041EB045141EA050130BD3A
:100288005FEA4C0C404141EB0101013C28BFB1F54C
:10029800801FE9D291F0000F04BF01460020B1FA97
:1002A80081F308BF2033A3F10B03B3F120020CDA6A
:1002B8000C3208DD02F1140CC2F10C0201FA0CF048
:1002C80021FA02F10CE002F11402D8BFC2F1200CAD
:1002D80001FA02F120FA0CFCDCBF41EA0C01904063
:1002E800E41AA2BF01EB0451294330BD6FEA0404AC
:1002F8001F3C1CDA0C340EDC04F11404C4F1200297
:1003080020FA04F001FA02F340EA030021FA04F3A8
:1003180045EA030130BDC4F10C04C4F1200220FAFF
:1003280002F001FA04F340EA0300294630BD21FA3D
:1003380004F0294630BD94F0000F83F4801306BF03
:1003480081F480110134013D4EE77FEA645C18BFF7
:100358007FEA655C29D094EA050F08BF90EA020F8E
:1003680005D054EA000C04BF1946104630BD91EA86
:10037800030F1EBF0021002030BD5FEA545C05D189
:100388004000494128BF41F0004130BD14F58004C8
:100398003CBF01F5801130BD01F0004545F0FE413C
:1003A80041F470014FF0000030BD7FEA645C1ABF71
:1003B800194610467FEA655C1CBF0B46024650EAA8
:1003C800013406BF52EA033591EA030F41F40021D4
:1003D80030BD00BF90F0000F04BF0021704730B55A
:1003E8004FF4806404F132044FF000054FF000012F
:1003F80050E700BF90F0000F04BF0021704730B5F0
:100408004FF4806404F1320410F0004548BF4042C4
:100418004FF000013EE700BF42004FEAE2014FEA19
:1004280031014FEA02701FBF12F07F4393F07F4FF4
:1004380081F06051704732F07F4208BF704793F0F7
:100448007F4F04BF41F40021704730B54FF460740A
:1004580001F0004521F000411CE700BF50EA01020D
:1004680008BF704730B54FF000050AE050EA0102B6
:1004780008BF704730B511F0004502D5404261EB26
:1004880041014FF4806404F132045FEA915C3FF467
:10049800D8AE4FF003025FEADC0C18BF03325FEA04
:1004A800DC0C18BF033202EBDC02C2F1200300FAB5
:1004B80003FC20FA02F001FA03FE40EA0E0021FADA
:1004C80002F11444BDE600BF70B54FF0FF0C4CF4C8
:1004D800E06C1CEA11541DBF1CEA135594EA0C0F7A
:1004E80095EA0C0F00F0DEF82C4481EA030621EAB5
:1004F8004C5123EA4C5350EA013518BF52EA0335F0
:1005080041F4801143F4801338D0A0FB02CE4FF0A1
:100518000005E1FB02E506F00042E0FB03E54FF0D1
:100528000006E1FB03569CF0000F18BF4EF0010EC9
:10053800A4F1FF04B6F5007F64F5407404D25FEAC5
:100548004E0E6D4146EB060642EAC62141EA555178
:100558004FEAC52040EA5E504FEACE2EB4F1FD0CBA
:1005680088BFBCF5E06F1ED8BEF1004F08BF5FEA38
:10057800500E50F1000041EB045170BD06F00046EA
:1005880046EA010140EA020081EA0301B4EB5C0497
:10059800C2BFD4EB0C0541EA045170BD41F480118F
:1005A8004FF0000E013C00F3AB8014F1360FDEBFB4
:1005B800002001F0004170BDC4F10004203C35DA90
:1005C8000C341BDC04F11404C4F1200500FA05F313
:1005D80020FA04F001FA05F240EA020001F00042B4
:1005E80021F0004110EBD37021FA04F642EB06012A
:1005F8005EEA430E08BF20EAD37070BDC4F10C0454
:10060800C4F1200500FA04F320FA05F001FA04F217
:1006180040EA020001F0004110EBD37041F1000103
:100628005EEA430E08BF20EAD37070BDC4F120050E
:1006380000FA05F24EEA020E20FA04F301FA05F276
:1006480043EA020321FA04F001F0004121FA04F21E
:1006580020EA020000EBD3705EEA430E08BF20EAEE
:10066800D37070BD94F0000F0FD101F00046400028
:1006780041EB010111F4801F08BF013CF7D041EAAA
:10068800060195F0000F18BF704703F000465200AE
:1006980043EB030313F4801F08BF013DF7D043EA7F
:1006A8000603704794EA0C0F0CEA135518BF95EA35
:1006B8000C0F0CD050EA410618BF52EA4306D1D1BC
:1006C80081EA030101F000414FF0000070BD50EADB
:1006D800410606BF1046194652EA430619D094EA65
:1006E8000C0F02D150EA013613D195EA0C0F05D14F
:1006F80052EA03361CBF104619460AD181EA0301A3
:1007080001F0004141F0FE4141F470014FF000005A
:1007180070BD41F0FE4141F4780170BD70B54FF0F5
:10072800FF0C4CF4E06C1CEA11541DBF1CEA135575
:1007380094EA0C0F95EA0C0F00F0A7F8A4EB050457
:1007480081EA030E52EA03354FEA013100F088804E
:100758004FEA03334FF0805545EA131343EA126317
:100768004FEA022245EA111545EA10654FEA0026CC
:100778000EF000419D4208BF964244F1FD0404F585
:10078800407402D25B084FEA3202B61A65EB0305E1
:100798005B084FEA32024FF480104FF4002CB6EB9E
:1007A800020E75EB030E22BFB61A754640EA0C001E
:1007B8005B084FEA3202B6EB020E75EB030E22BF5E
:1007C800B61A754640EA5C005B084FEA3202B6EB9F
:1007D800020E75EB030E22BFB61A754640EA9C005E
:1007E8005B084FEA3202B6EB020E75EB030E22BF2E
:1007F800B61A754640EADC0055EA060E18D04FEAEC
:10080800051545EA16754FEA06164FEAC30343EA8B
:1008180052734FEAC2025FEA1C1CC0D111F4801F58
:100828000BD141EA00014FF000004FF0004CB6E751
:1008380011F4801F04BF01430020B4F1FD0C88BFF0
:10084800BCF5E06F3FF6AFAEB5EB030C04BFB6EBFB
:10085800020C5FEA500C50F1000041EB045170BDEE
:100868000EF0004E4EEA113114EB5C04C2BFD4EB1B
:100878000C0541EA045170BD41F480114FF0000E9F
:10088800013C90E645EA060E8DE60CEA135594EA1B
:100898000C0F08BF95EA0C0F3FF43BAF94EA0C0F1E
:1008A8000AD150EA01347FF434AF95EA0C0F7FF493
:1008B80025AF104619462CE795EA0C0F06D152EAE7
:1008C80003353FF4FDAE1046194622E750EA4106CB
:1008D80018BF52EA43067FF4C5AE50EA41047FF4DC
:1008E8000DAF52EA43057FF4EBAE12E77BB972B95C
:1008F8000029BEBF00204FF0004106E008BF0028D5
:100908001CBF6FF000414FF0FF3000F0BBB9ADF1F4
:10091800080C6DE904CE002909DB002B1ADB00F076
:100928004DF8DDF804E0DDE9022304B070474042E9
:1009380061EB4101002B1BDB00F040F8DDF804E01F
:10094800DDE9022304B0404261EB4101524263EB0E
:1009580043037047524263EB430300F02FF8DDF87E
:1009680004E0DDE9022304B0404261EB4101704735
:10097800524263EB430300F021F8DDF804E0DDE9BF
:10098800022304B0524263EB4303704753B94AB998
:10099800002908BF00281CBF4FF0FF314FF0FF307F
:1009A80000F070B9ADF1080C6DE904CE00F006F85E
:1009B800DDF804E0DDE9022304B070472DE9F047D3
:1009C800089E0D4604468A46002B7FD18A42174668
:1009D80041D9B2FA82F24AB1C2F1200105FA02F312
:1009E8009740944020FA01F141EA030A4FEA174878
:1009F8004FEA144C1FFA87F9BAFBF8FE08FB1EA34E
:100A08000EFB09F14CEA0343994206D9FB1802D2BE
:100A1800994200F224810EF1FF3E591AA3B2B1FBAC
:100A2800F8F008FB101100FB09F943EA0144A1455D
:100A380005D93C1902D2A14500F20E810138A4EB78
:100A4800090440EA0E4000211EB1D4400023C6E943
:100A58000043BDE8F08702B9FFDEB2FA82F2002A4D
:100A68004FD1CB1B4FEA174E1FFA87F80121250CEF
:100A7800B3FBFEFC0EFB1C302B4608FB0CF945EAC9
:100A88000045A9450AD97D192CBF01230023A94592
:100A980002D9002B00F0D9800CF1FF3CA5EB090529
:100AA800A3B2B5FBFEF00EFB105508FB00F843EAB5
:100AB8000544A04505D93C1902D2A04500F2C980D9
:100AC8000138A4EB080440EA0C40BDE78B4208D982
:100AD800002E00F0B1800021C6E900050846BDE8F7
:100AE800F087B3FA83F1002946D1AB42C0F0A78062
:100AF800824240F2A4800846002EAAD0C6E9004AE5
:100B0800A7E7C2F12000974001FA02F34FEA174E17
:100B1800C14024FA00F51FFA87F894401D43B1FB41
:100B2800FEF02B0C0EFB101100FB08FC43EA0143FE
:100B38009C4509D9FB182CBF012100219C4502D9ED
:100B4800002900F095800138A3EB0C03ADB2B3FB8C
:100B5800FEF10EFB113301FB08FC45EA0345AC45E9
:100B680005D97D1902D2AC4500F289800139A5EB7F
:100B78000C0341EA00417AE7C1F120048B4002FAF4
:100B880001F705FA01FCE24020FA04F8E54000FA12
:100B980001FE134348EA0C024FEA13484FEA124C8D
:100BA8001FFA83F9B5FBF8FA08FB1A550AFB09F096
:100BB8004CEA054C60450AD913EB0C0C2CBF0125F7
:100BC8000025604501D9002D55D00AF1FF3AACEB5C
:100BD800000C92B2BCFBF8F008FB10CC00FB09F942
:100BE80042EA0C4CE14505D913EB0C0C01D2E14566
:100BF8003BD8013840EA0A40ACEB090CA0FB078956
:100C0800CC4545464A4602D306D1C64504D20138EA
:100C1800B8EB070569EB03022EB3BEEB05036CEBDB
:100C2800020C23FA01F20CFA04F42CFA01F3002165
:100C38001443C6E900430CE73146304609E7841AF5
:100C480065EB030301209A4656E7ACF1020C3D44DC
:100C580024E702383C4434E702383C44EFE6AEF17E
:100C6800020E3B44D9E63146F3E602389C44C1E71C
:100C780002383B4468E7AAF1020A9C44A7E7023914
:100C88003D4474E7704700BF01282DE9F0470D4641
:100C980009D0042852D008F0D3FD162303604FF082
:100CA800FF30BDE8F0874FF02003EFF3118283F3A4
:100CB8001288BFF36F8F264BD3E90067D3F808A0DB
:100CC80082F31188BFF36F8F0CF0C7FFDFF88890AD
:100CD800C0F30E02A2FB0923C00BD40B40EA41402B
:100CE80044EA43444FEAD338CB0BA0FB090109FB84
:100CF800031115A3D3E90023241848EB0108204663
:100D08004146FFF743FE10A3D3E90023361847EB0B
:100D1800E07741462046C5E90067FFF737FE0D4BEF
:100D280052449A42AA6007D9711C47F10003C5E9E9
:100D38000013A2EB0902AA600020B2E74FF0000AF4
:100D480000260027C0E700BF00CA9A3B0000000049
:100D580030050020FFC99A3B00CA9A3B00000000FA
:100D680001282DE9F0410F4607D008F069FD162348
:100D780003604FF0FF30BDE8F0810CF06EFF224EAB
:100D88003C687B68A4FB064506FB0355BB68C20BA1
:100D9800E41842EA414245EBE375A2FB0623C90B7E
:100DA800C0F30E0006FB0133A0FB0667F00BA41A84
:100DB80040EA474065EB0305F90B241A65EB01058A
:100DC8004FF02003EFF3118783F31288BFF36F8F7F
:100DD8000BA3D3E9002320462946FFF787FD08A384
:100DE800D3E90023094EC6E9000120462946FFF74A
:100DF8007DFDB26087F31188BFF36F8F0020BAE7DB
:100E080000CA9A3B0000000000CA9A3B3005002047
:100E180001480AF099BA00BF8EEE00004FF48073C3
:100E280007B504220193074B0DEB02011B68064826
:100E3800DB68984705480AF087FA002003B05DF898
:100E480004FB00BFD4070020208C0400A2EE0000A1
:100E580008B5024801F0DAF9002008BDCC000020EE
:100E680070B504460821BF4A0BF022FA2046082133
:100E7800BD4ABE4D0BF01CFA20460821BC4A0BF0B7
:100E880017FA20460821BB4A0BF012FA2A462046D8
:100E980008210BF00DFA20460821B74A0BF008FA92
:100EA80020460821B54A0BF003FA2A4620460821B5
:100EB8000BF0FEF9B24E20460821B24A0BF0F8F9C1
:100EC80020460821B04A0BF0F3F9324620460821A3
:100ED8000BF0EEF92A46204608210BF0E9F92046E6
:100EE8000821AA4A0BF0E4F920460821A84A0BF089
:100EF800DFF920460821A74A0BF0DAF92046082135
:100F0800A54A0BF0D5F920460821A44A0BF0D0F9E0
:100F18003246204608210BF0CBF92A462046082104
:100F28000BF0C6F9204608219D4A0BF0C1F920466E
:100F380008219C4A0BF0BCF9204608219A4A0BF07C
:100F4800B7F920460821994A0BF0B2F92A462046FB
:100F580008210BF0ADF920460821954A0BF0A8F9B5
:100F680020460821934A0BF0A3F920460821924A0B
:100F78000BF09EF920460821904A0BF099F920467B
:100F880008218F4A0BF094F92A46204608210BF0D5
:100F98008FF9204608218B4A0BF08AF92046082150
:100FA800894A0BF085F92A46204608210BF080F97A
:100FB80020460821854A0BF07BF920460821844AFF
:100FC8000BF076F92A46204608210BF071F92046E5
:100FD8000821804A0BF06CF9204608217E4A0BF064
:100FE80067F9204608217D4A0BF062F92A46204617
:100FF80008210BF05DF920460821794A0BF058F9D1
:1010080020460821774A0BF053F92A462046082142
:101018000BF04EF920460821734A0BF049F9204697
:101028000821724A0BF044F92A46204608210BF0A1
:101038003FF9204608216E4A0BF03AF9204608216C
:101048006C4A0BF035F92A46204608210BF030F996
:1010580020460821684A0BF02BF920460821674AE8
:101068000BF026F92A46204608210BF021F92046E4
:101078000821634A0BF01CF920460821614A0BF04D
:1010880017F92A46204608210BF012F920460821B4
:101098005D4A0BF00DF9204608215C4A0BF008F96F
:1010A8002A46204608210BF003F920460821584A11
:1010B8000BF0FEF820460821564A0BF0F9F82A46AC
:1010C800204608210BF0F4F820460821524A0BF07C
:1010D800EFF820460821514A0BF0EAF82A46204644
:1010E80008210BF0E5F8204608214D4A0BF0E0F8FE
:1010F800204608214B4A0BF0DBF82A4620460821F7
:101108000BF0D6F820460821474A0BF0D1F82046C4
:101118000821464A0BF0CCF82A46204608210BF055
:10112800C7F820460821424A0BF0C2F82046082199
:10113800404A0BF0BDF82A46204608210BF0B8F8C3
:10114800204608213C4A0BF0B3F8204608213B4AC8
:101158000BF0AEF82A462046BDE8704008210BF097
:10116800A7B800BFB4EE0000CEEE00008CFB000074
:10117800EBEE000015EF000041EF000071EF0000FA
:101188000DF00000A9EF0000DEEF000041F00000C4
:101198009AF00000D7F0000027F100005DF1000090
:1011A800BAF1000011F200004CF200009DF20000BC
:1011B800CAF20000E7F200000DF300006FF3000030
:1011C800A7F30000D0F30000EDF300004AF400009C
:1011D8006AF40000B8F40000D8F4000041F50000FB
:1011E80075F5000093F50000C0F50000DAF5000081
:1011F80009F6000025F6000057F6000076F6000014
:10120800D8F60000F8F600003AF7000054F700009E
:1012180073F700008DF70000ACF70000C7F7000077
:10122800F1F700000CF800003AF8000069F8000037
:10123800AFF80000C7F8000007F9000020F9000027
:1012480010B50446054B0821054A0BF031F8204635
:101258000821044A0BF02CF8002010BD54F90000B6
:101268005AF9000071F9000007B50821094A0BF086
:101278001FF84FF0004304220193074B0DEB0201C6
:101288001B684FF49160DB689847002003B05DF855
:1012980004FB00BF9CF90000D407002013B5144AD2
:1012A80008210BF005F84FF400330422114C019388
:1012B80023680DEB0201DB684FF4806098474FF01C
:1012C80000430422019323680DEB0201DB6840F21E
:1012D800944098470422084B0DEB020101932368C0
:1012E80040F28440DB689847002002B010BD00BF80
:1012F800B6F90000D4070020EE7BFF7F70B500240C
:1013080005460A4E0A4B22461F2130681C6009F028
:10131800C3FE22460C21306809F0BEFE284608218B
:10132800044A0AF0C5FF204670BD00BFC40700206C
:10133800DC070020CDF900001FB5002168460BF03E
:101348001BFF009A029B034800FB023005B05DF8C2
:1013580004FB00BF40420F0010B5002001F092FDD1
:101368000A4C0B4B18608368206898472368094823
:10137800596809F0E9FF2368074893F8301009F025
:10138800E3FFBDE81040054809F0DEBFC0070020B4
:10139800D4070020E3F90000FCF9000015FA00006A
:1013A800F8B5154601F042FD0022154E1146306091
:1013B80068680BF0A7FD002207461146A8680BF0E5
:1013C800A1FD002204461146E8680BF09BFD0C21A4
:1013D8000C4A336801FB04245F6083F83000A06086
:1013E800FFF7BAFF33680848596809F0ADFF33685A
:1013F800064893F8301009F0A7FF0020F8BD00BF99
:10140800C0070020000000202FFA000044FA000066
:1014180008B5024800F01AFF002008BDCC000020E3
:1014280010B5094C0121204600F078FF074809F063
:101438008BFF204600F0EAFE054809F085FF2046AC
:1014480000F004FF002010BDCC00002059FA000075
:1014580077FA00000C23534330B50C4CE518E458D8
:10146800844211D86B6883420ED38C420CD88B42CD
:101478000AD3032A08BF00214FF0010004BF044B20
:101488001970044B1A6030BD0020FCE700000020F2
:10149800FC220020D80700201346002270B50E4613
:1014A8000546114658680BF02DFD022EC4B20CD02B
:1014B800082128460A4A0AF0FBFE28460821094A5C
:1014C8000AF0F6FE4FF0FF3070BD2146064800F0E6
:1014D80025FF0648214609F037FF0020F4E700BF42
:1014E800BDFA0000D4FA0000CC000020EEFA00009B
:1014F80010B50A4C01220C21206809F0CDFD00210D
:10150800422009F051F801221F21206809F0C4FD8A
:10151800034809F019FF002010BD00BFC4070020D0
:1015280005FB000038B5224808F05EF9214C206020
:1015380010B94FF0FF3038BD4FF440720C2109F05C
:101548009EFD0028F5DB20684FF400721F2109F08A
:1015580096FD0028EDDB20681721174A09F08FFD5A
:101568000028E6DB20680269836812689D6912F426
:10157800000F14BF4FF400334FF480234FF4A03210
:101588001721A8470028D4DB0C490D4B20684B6075
:101598004FF400038B608368DB690BB10122984725
:1015A800084809F0D1FE084809F0CEFE0020C2E73D
:1015B8001BFB0000C407002000C10500C80700206D
:1015C800190E000022FB00003EFB000008B5FFF7E3
:1015D800A9FFFFF78DFFFFF7BFFEFFF721FFFFF71A
:1015E8001DFC0122014B00201A6008BDDC07002009
:1015F8002DE9F341134809F0A7FE134809F0A4FEAA
:10160800124809F0A1FE104809F09EFE0026104D70
:10161800104FDFF84880D5E900239C1AA40801344C
:10162800394640460094013609F08EFE0B2E05F12E
:101638000C0507F10F07EED1074802B0BDE8F041ED
:1016480009F082BE5BFB000090FB0000C5FB0000B8
:10165800000000205403002062FB0000FAFB000099
:101668002DE9F0414FF001084F1E07442E4D00228E
:101678003946064685F80080FFF7ECFE42460446E8
:1016880039463046FFF7E6FE022239460443304623
:10169800FFF7E0FE0322394604433046FFF7DAFE3F
:1016A8000422394604433046FFF7D4FE0522394662
:1016B80004433046FFF7CEFE06223946044330463F
:1016C800FFF7C8FE0722394604433046FFF7C2FE3B
:1016D8000822394604433046FFF7BCFE0922394642
:1016E80004433046FFF7B6FE0A2204433946304623
:1016F800FFF7B0FE044307D10C4809F025FEFFF7B9
:1017080077FF2046BDE8F0812B7833B10C21084BD8
:10171800084A1B6801FB03231B7A074A0124126845
:1017280082F83030EDE700BFFC22002021FC0000E9
:10173800D807002000000020C00700202DE9F04F46
:101748001546002287B004460F46686811460BF01C
:10175800D9FB002206461146A8680BF0D3FB4C4B78
:1017680083461B683BB94B4A082120460AF0A0FD76
:101778004FF0FF3080E0032F06D0474A082120466B
:101788000AF096FD454AEFE74FEA800841463046A1
:10179800FFF766FF0028EBD0414B1B68052B01D0F3
:1017A800082B01D13F4ADFE740460CF0FCFB002341
:1017B80005469B4563D13C4B3C48197809F0C4FD6C
:1017C800FFF7BAFD0746DFF8F8904246D9F800302F
:1017D8002946DB6830469847002102A80BF0CCFC6C
:1017E800049B334A029802FB0030C71B5846FEF799
:1017F800F1FD00222F4BFEF767FE824638468B46E6
:10180800FEF7F8FD02460B4650465946FEF786FF9E
:101818003B46CDE90001284A082120460AF048FD48
:10182800FFF78AFD204B07461B7863B3D9F80030D1
:101838005B694246294630469847002102A80BF0CA
:101848009BFC049B1A4A029802FB0030C71B3846CF
:10185800FEF7D0FD02460B4650465946FEF75EFF9E
:101868003B46CDE90001154A082120460AF020FD33
:1018780028460CF091FB002007B0BDE8F08F45F832
:101888002330013395E7D9F800301B69D1E700BF51
:10189800DC0700205FFC0000BDFA00007FFC0000B0
:1018A800D8070020AFFC0000FC220020D4FC000078
:1018B80040420F0000004040E2FC000017FD00001D
:1018C800D40700202DE9F04F1446002285B00546C4
:1018D8000F46606811460BF015FB002206461146BC
:1018E800A0680BF00FFB002282461146E0680BF05F
:1018F80009FB00220290114620690BF003FB464BBE
:1019080001901B683BB9454A082128460AF0D0FCDB
:101918004FF0FF3039E0052F06D0414A082128460C
:101928000AF0C6FC3F4AEFE7019B30469900FFF7F3
:1019380097FE0028ECD03C4B1B68052B01D0082BE8
:1019480001D13A4AE0E74FF4FA500CF02CFB044678
:101958004FF4FA500CF027FB4FF4FA630746029A4B
:10196800DDF804805343DFF8D4B00393B8F1000FD7
:101978000EDC08212E4A28460AF09AFC38460CF05C
:101988000BFB20460CF008FB002005B0BDE8F08FEB
:10199800019BB8F5FA6FA3EB080C4346A8BF4FF4B8
:1019A800FA63214650464FEA830904EB83039942C0
:1019B80025D1DBF800306644DB684A4621463046CC
:1019C80098471C4B1B78FBB1DBF800305B694A4633
:1019D8003946304698474A46394620460BF081FB3F
:1019E800039B9A44A0B108212846134A0AF060FCD8
:1019F80038460CF0D1FA20460CF0CEFA88E7029A65
:101A080041F8040B1044D2E7DBF800301B69DEE72D
:101A1800A8F5FA68AAE700BFDC0700205FFC000011
:101A2800BDFA00004BFD0000D8070020AFFC000005
:101A3800A8FD0000FC22002098FD0000D40700202B
:101A48001346002273B504460E46586811460BF03B
:101A580059FA184B05461B683BB9174A0821204616
:101A68000AF026FC4FF0FF301FE0022E06D0134A82
:101A7800082120460AF01CFC114AEFE70121FFF774
:101A8800EFFD0028EED00F4A0F4B12781B6872B199
:101A98005B69042228460DEB02019847204608217D
:101AA800019B0A4A0AF004FC002002B070BD1B69C1
:101AB800EFE700BFDC0700205FFC0000BDFA000074
:101AC800B8FD0000FC220020D4070020D5FD00004E
:101AD800F7B51646002204460F46706811460BF00B
:101AE80011FA002205461146B0680BF00BFA174BA5
:101AF80001901B683BB9164A082120460AF0D8FB1A
:101B08004FF0FF301FE0032F06D0124A082120466D
:101B18000AF0CEFB104AEFE701212846FFF7A0FDA7
:101B28000028EDD00D4B1B68052B01D0082B01D1E7
:101B38000B4AE1E704220B4B28461B680DEB020118
:101B4800DB689847002003B0F0BD00BFDC07002029
:101B58005FFC0000BDFA0000DEFD0000D807002091
:101B6800AFFC0000D40700202DE9F04F16460022F4
:101B780085B004468846706811460BF0C3F9002208
:101B880005461146B0680BF0BDF93A4B07461B688D
:101B98003BB9394A082120460AF08AFB4FF0FF304A
:101BA80033E0B8F1030F06D0344A082120460AF082
:101BB8007FFB334AEEE7B0F5FA6F01D9314AE9E71E
:101BC8004FEA800841462846FFF74AFD0028E5D03D
:101BD80040460CF0E8F92C4B06461A782B4B1B684C
:101BE800B2B15B69424628463146984735464FF0C0
:101BF8000008DFF8A090DFF8A0A0DFF8A0B0B84593
:101C080008D330460CF0C8F9002005B0BDE8F08FC5
:101C18001B69E7E7A7EB0802022A2B680CD0032A06
:101C280012D0012A1AD108212046194A0AF040FB8D
:101C380008F104081035E2E76A6808210092204696
:101C48004A460AF035FBF3E7AA68082101926A6858
:101C58002046009252460AF02BFBE9E7EA68082181
:101C68000292AA68204601926A6800925A460AF0CF
:101C78001FFBDDE7DC0700205FFC0000BDFA000069
:101C880004FE00002DFE0000FC220020D4070020E6
:101C98007FFE00007AFE000075FE000070FE000066
:101CA8002DE9F84314460022054689466068114626
:101CB8000BF028F9002207461146A0680BF022F91C
:101CC800002206461146E0680BF01CF90022804607
:101CD800114620690BF016F9204B1B683BB9204AC6
:101CE800082128460AF0E4FA4FF0FF3030E0B9F155
:101CF800050F06D01B4A082128460AF0D9FA1A4AC5
:101D0800EEE7B0F5FA6F01D9184AE9E784002146F1
:101D18003846FFF7A5FC0028E6D0154B1B68052BB5
:101D280001D0082B01D1134ADAE720460CF03BF921
:101D380005460346221893420CD10F4B22461B68D6
:101D48002946DB683846984728460CF025F90020D4
:101D5800BDE8F88343F8046B4644ECE7DC07002051
:101D68005FFC0000BDFA000085FE00002DFE0000AB
:101D7800D8070020AFFC0000D407002070B5144637
:101D880005460E461148012100F0C8FA104809F02E
:101D9800DBFA0E4800F03AFA0E4809F0D5FA0B487B
:101DA80000F082FA0C4809F0CFFA0C4BA20019781F
:101DB8000B4B1B6841B15B69314628469847BDE823
:101DC8007040024800F0E0BC1B69F5E7CC00002039
:101DD800CEFE000077FA0000E8FE0000FC2200209A
:101DE800D40700202DE9F041154600220446884614
:101DF800686811460BF086F8002206461146A86866
:101E08000BF080F81F4B07461B683BB91E4A082198
:101E180020460AF04DFA4FF0FF302AE0B8F1030FE0
:101E280006D01A4A082120460AF042FA184AEEE774
:101E3800850029463046FFF713FC0028EBD0154BE8
:101E48001B68052B01D0082B01D1134ADFE7284670
:101E58000CF0A9F804463A4601463046FFF78EFFD3
:101E680026460E4F2544AE4205D120460CF094F884
:101E78000020BDE8F081384656F8041B09F064FAE2
:101E8800F1E700BFDC0700205FFC0000BDFA00009E
:101E98000FFF0000D8070020AFFC00003BFF000048
:101EA80000220D4B10B51A6000F0C0FF0B4C4168C2
:101EB80020600B4809F048FA23680A4893F8301064
:101EC80009F042FA084809F03FFABDE8104007490E
:101ED800074809F039BA00BFDC070020C007002016
:101EE8002FFA000044FA000043FF000054F90000F4
:101EF8009AFF0000084B1B685B7B5BB1074B98425D
:101F080008D1074B4FF0FF3218694FF0FF333030DC
:101F180009F0EDB8704700BF000800200000AD0BC5
:101F2800CC00002038B9044B1B685B7B1BB101F166
:101F3800300007F0FFBF70470008002073B54C68F9
:101F4800054694B3D4E90043886880B3D0E90060BB
:101F580070B36BB398422ED10133092B2BD88DF86F
:101F6800013040F20113ADF8023000230978284609
:101F78008DF800108DF804308DF8052009F0B9F8B7
:101F880021463246684607F087F904462869183022
:101F980007F0D0FF04F1744000F5A6000A280DD818
:101FA800084B33F9100002B070BD2346CCE7064653
:101FB80001330344D1E76FF01500F4E76FF00F0029
:101FC800F1E700BF78EE00007FB5FF238DF80330FE
:101FD8000DF10303002201930123CDE90232052309
:101FE80003A98DF80C30064801AB04920593FFF75E
:101FF800A5FF0028A8BF9DF8030007B05DF804FB03
:10200800CC0000202DE9F041002407460D460C4E77
:10201800DFF83880C6F808260A4A11605460AC42D6
:1020280002D30948BDE8F081D6F80436DB07FBD5B2
:102038003819042241460BF07BF80434EFE700BF5F
:1020480000B002500CB602500000AD0B18B602509A
:102058002DE9F0410D4E0C46C6F808260C4A0746F5
:10206800116001210025DFF830805160A54202D3BC
:102078000848BDE8F0810422404679190BF058F869
:10208800D6F804369B07FBD50435EFE700B00250BD
:102098000CB602500000AD0B18B60250034B1B687B
:1020A8005B7B0BB9FFF7AEBF0BF0BEBB000800208F
:1020B8002DE9F74F064614468846424809F019F8B4
:1020C800734203F0030306F0030558BF5D426D42F7
:1020D80005F00305A54228BF2546D8F1000303F003
:1020E800030308F0030A58BFC3F1000ACAF1000A43
:1020F8000AF0030AA24528BFA246631BA4EB0A0400
:1021080024F0030423F00307A742C8BF274603F0BF
:102118000309C8BFA3EB0409A7B108EB0A0B3946AA
:1021280072195846FFF7BAFF0446FFF7E3FE264B3D
:102138009C4231D1554505D03A46594608EB050031
:102148000AF0DFFF9DB1C5F1040A0421A6EB0A02DB
:102158006846FFF7A3FF0446FFF7CCFE1A4B9C42E4
:102168001AD12A4640460DEB0A010AF0E1FFB9F1FF
:10217800000F24D0721908213A446846FFF78EFFF1
:102188000446FFF7B7FE104B9C4205D178194A4622
:10219800694640440AF0CCFF0A4B1869183004F12C
:1021A800744407F0C7FE04F5A6040A2C8EBF6FF02E
:1021B8000F00064B33F9140003B0BDE8F08F024C52
:1021C800EAE700BFCC0000200000AD0B78EE00006D
:1021D800034B1B685B7B0BB9FFF73ABF0BF021BBC6
:1021E8000008002008B506F06FFF054B054A1B687C
:1021F800D2F840161B7B04480B43C2F8403608BD92
:102208000008002000B002500000AD0B10B586B0E9
:102218000DF10303002201930123CDE902322F239C
:1022280003A98DF80C3001AB8DF8032004920593B7
:10223800FFF784FE04469DF80310034809F084F86C
:10224800204606B010BD00BFD60301007FB50DF1D2
:102258000303002201930123CDE902321F2303A9BE
:102268008DF80C3001AB8DF8032004920593FFF72D
:1022780065FE011E9DF8032001DB93070AD4084878
:1022880009F062F82120002108F08EF9002007B03B
:102298005DF804FB1146034809F056F8F6E700BF5D
:1022A800E4030100F403010070B586B00DF10302E8
:1022B8000023019201228DF80330CDE90223049313
:1022C8001F2305460A248DF80C30114E01AB0593E7
:1022D800002203A92846FFF731FE011E9DF80320BE
:1022E80001DB062A0BD0304609F02EF82120002108
:1022F80008F05AF9013CEBD1002006B070BD114638
:10230800044809F021F8044809F01EF8F4E700BF72
:10231800E4030100F40301000204010010B588B0D1
:102328000DF10703002203930123CDE904323F2373
:102338008DF807108DF8143005A903AB07920693A2
:10234800FFF7FCFD041E03DA2146034808F0FCFFF2
:10235800204608B010BD00BF130401006023426886
:10236800F0B5B3FBF2F3534F013B3860C370C37B46
:102378000024002B14BF04230023437014BF03233D
:10238800234683704FF050232246012187B0C3F8BB
:10239800B84505462B2004F0CBF8474E474B346030
:1023A800736041F20F0333813B6830461A78444921
:1023B80032735A78B2729A78F272DB7874737374E3
:1023C800404BF4811A693474FFF70CFF00F1744034
:1023D80000F5A6000A2869D83B4B33F9104024B908
:1023E800FFF7F2FD002830DA04463868143001227D
:1023F80011460BF0EAFAAB7C0BBB2B7C1BB105F149
:10240800340006F08BFF6B7CABB105F1480300226A
:1024180001930423CDE902324F2303A98DF80C3030
:10242800284801AB05920493FFF788FD011E02DAE4
:10243800264808F089FF2B7C0BB10123AB74244894
:1024480008F082FF204607B0F0BDF37AC0B2023B25
:10245800012B29D9B37A033B012B8CBF002301231D
:10246800C0F380129342C0D00DF1030301220193FF
:10247800002380F04000CDE9022305938DF8030086
:1024880001AB104803A98DF80C200493FFF756FD03
:1024980004460028A9D1FFF797FD041E01DBE307D6
:1024A800F9D404EAE474A0E70123D9E76FF00F0434
:1024B8009BE700BF00080020E007002011120D0E66
:1024C8002D1F0000CC00002078EE00002D04010034
:1024D800470401000B4B10B51B681B7C8BB10A4CE1
:1024E800236803B13AB1094A136801331360084AF3
:1024F800C2F8983502E004339842F4D10144043913
:10250800216010BD00080020FC070020F80700200B
:1025180000B002507FB50B4643EA000602F00305FF
:102528003243920700F0030103F0030410D0003D8A
:1025380018BF0125003C18BF0124003918BF01212C
:1025480002460091034804490295019408F0FCFEF4
:1025580004B070BD5A040100B70401002DE9F0432E
:102568000546904689464B4E85B0FFF7D3FF306845
:102578004FF0FF32C36A14301D434FF0FF3308F0A9
:10258800B6FD002241462846FFF7A4FFB9F1000F27
:102598007AD0B8F1000F77D0B8F1040F02D918F04B
:1025A800030F71D115F003046ED13B4F4FF0FF328A
:1025B8004FF0FF33386908F09AFD06232246384663
:1025C80001A9CDE9014403948DF80430FFF7B6FC66
:1025D80000280CBF04466FF00404384608F089FD53
:1025E800E4B9B8F1030F44D804212A460DEB0100E1
:1025F800FFF754FD0446FFF77DFC284B9C420DD1A4
:102608004246494601A80AF093FD04212A460DEBEB
:102618000100FFF7DDFD0446FFF76CFC3869183050
:1026280007F088FC042300220DEB03011A48CDE9CA
:10263800012203928DF80430FFF780FC051E18BFB5
:102648006FF004053869002C08BF2C4604F1744467
:1026580004F5A60407F06EFC0A2C18D8104B33F9C1
:1026680014403068143007F065FC204605B0BDE81A
:10267800F08309F06043B3F1005F03D12A46414675
:102688004846C6E7074CC9E76FF01504E9E76FF05D
:102698000F04E6E700080020CC0000200000AD0B86
:1026A80078EE00000A00AD0BF8B5054614460F4653
:1026B800104EFFF72FFF30684FF0FF32C36A143017
:1026C8001D434FF0FF3308F012FD00222146284633
:1026D800FFF700FF5FB124B122463946FFF7E8FC57
:1026E80004463068143007F025FC2046F8BD6FF02A
:1026F8001504F6E7000800202DE9F0474FF0040A1A
:10270800DFF880808146D8F800300E4693F83050C4
:1027180015FB0AF71AFB05A528460BF044FC0446EE
:1027280050B940F2E7521549154808F00DFE6FF010
:102738000B052846BDE8F0872A4600210AF003FD6C
:10274800D8F800004FF0FF334FF0FF32143008F094
:10275800CEFC514648460122FFF7BCFE2A462146D8
:10276800FFF7A6FC0546D8F80000143007F0E2FB96
:10277800E359204633600BF00FFCDAE7C704010089
:10278800810401000008002010B586B00DF1030394
:10279800002201930123CDE902323F2303A98DF8DA
:1027A8000C3001AB8DF8032005920493FFF7C6FBAC
:1027B800041E03DA2146034808F0C6FD204606B089
:1027C80010BD00BF9B04010038B50446002201215A
:1027D8000A2003F0ADFE2369084ADC65606800F151
:1027E800100106F043FE064B98420CBF00256FF01F
:1027F8000F05206908F0D9FC284638BDF7B100005C
:102808000000AD0BF0B5056985B02B6DAC6D7BB9DB
:102818009CB900222846114608F0A2FCAC6305F1D9
:10282800200007F087FB002385F8643005B0F0BD71
:10283800002C35D09C4228BF1C46E96C466879B10B
:1028480073B101F06043B3F1005F09D0082C28BFD1
:10285800082405F16507224638460AF069FC39461E
:10286800B268EB6C944228BF144600912C661BB1E9
:102878002B6D002B18BF234601936B6D02931BB180
:10288800AB6D002B18BF23460022694630460393E0
:1028980006F0C0FE034B9842C8D06FF00404B8E7B6
:1028A8001C46CAE70000AD0B2DE9F84F1D468B8882
:1028B8008846990407461646046904D5236913B95E
:1028C8006368984509D04FF0FF324FF0FF3304F1A9
:1028D800080008F043FCC4F804803A691368984576
:1028E80071D0B8F8043013F0090F40F0CB80C3F36F
:1028F8004513082B40F0C680D8F80010634B994266
:1029080040F2C080D8F80830D7F80490C2F80080A8
:1029180003B31868F0B119795B794FF0010BD0F85F
:1029280010E0DA0754BF43F4B05383F4D053DEF811
:1029380000C023F48052D0F808A0DB070BFA01FB93
:102948004CBF4BEA0C032CEA0B03CEF80030DAF844
:1029580000309847B8F80410D9F80020880701F02B
:10296800040366D5002B14BF03230223022BC1F3F3
:10297800001162D0032B63D0012B01D141F0020179
:10298800434BC2F854151B689968424B99425AD96F
:10299800414B99425AD9414B99425AD9404B994295
:1029A8005AD9404B99425AD93F4B99425AD33F4B37
:1029B80099425AD33E4B994234BF4FF020614FF0B1
:1029C800A051C2F82415012384F86430002E4FD09A
:1029D80033687268E36322641A685B68E26423659B
:1029E800002D4AD02B686A686364A2641A685B6821
:1029F8006265A36500220121A263204608F0B0FBAE
:102A08003846FFF7FFFE4FF0FF324FF0FF3304F177
:102A1800200008F0A3FBA56B23689B8813F40053E0
:102A280004D1636004F1080007F084FA2846BDE881
:102A3800F88F003B18BF012398E741F004019FE796
:102A480041F006019CE74FF00071BAE74FF0806152
:102A5800B7E74FF00061B4E74FF08051B1E74FF0AE
:102A68000051AEE74FF08041ABE74FF00041A8E7D7
:102A7800C4E90F66C4E91366B2E7C4E91155C4E9AD
:102A88001555B7E76FF01505C6E700BF47E8010021
:102A9800040800208FD003001FA107003F420F0049
:102AA8007F841E00FF083D0000127A000024F40015
:102AB8000048E80110B5074806F096FE044620B91C
:102AC800054808F041FC204610BD0146034808F0BF
:102AD8003BFCF8E7D5040100DB040100F504010024
:102AE8002DE9FF47DDF83090054609F1040A504604
:102AF80014461F460E460BF056FA01230393022391
:102B0800CDE9000ACDF808D00370230CDFF838802F
:102B180063F07F034370230AC8F800008370C47011
:102B28004A46394604300AF003FB0023314602AA1C
:102B3800284608F00DFB0446D8F800000BF02CFAE4
:102B4800204604B0BDE8F0870C0800202DE9F04FBE
:102B580089B0DDF84890824609F1050528468B467C
:102B6800174698460BF01FFA044638B9244808F06F
:102B7800EBFB6FF00B0009B0BDE8F08F28460BF0B7
:102B880012FA064630B91F4808F0DEFB20460BF063
:102B980003FAEEE72A46002120460AF0D4FA2A462C
:102BA800002130460AF0CFFA012304AACDE9033602
:102BB800CDE906230B23CDE90045CDF808D00595CE
:102BC80023703B0C63703B0AA370E770594602AA56
:102BD800504606AB08F0BCFA05464A464046711D09
:102BE8000AF0A6FA1DB12946074808F0ADFB2046B1
:102BF8000BF0D2F930460BF0CFF92846BBE700BFFF
:102C080006050100290501004805010038B50446FC
:102C1800FFF750FF0F4B626818600F4B0F4D53437F
:102C28002F21A3600E482C6008F08EFB2D210D4843
:102C380008F08AFB2E210C4808F086FB2C210B4853
:102C480008F082FB28681430012211460AF0BDFE04
:102C5800002038BD0808002040420F00040800206A
:102C6800570501006A0501007E0501009205010073
:102C78007FB50B4643EA000602F00305324392078C
:102C880000F0030103F0030410D0003D18BF012534
:102C9800003C18BF0124003918BF012102460091E9
:102CA800034804490295019408F04EFB04B070BD36
:102CB8005A040100A4050100F7B5044616460D465E
:102CC8000E4FFFF7D5FF38684FF0FF32C36A143054
:102CD8001C434FF0FF3308F041FA0948009622469A
:102CE8002B4608490068FFF7FBFE04463868143095
:102CF80007F020F9204603B0F0BD00BF040800200B
:102D08000808002040E70000F7B5044616460D46BF
:102D18000E4FFFF7ADFF38684FF0FF32C36A14302B
:102D28001C434FF0FF3308F019FA09480096224671
:102D38002B4608490068FFF709FF04463868143035
:102D480007F0F8F8204603B0F0BD00BF04080020E3
:102D58000808002040E700002DE9F341DFF88880EB
:102D68000646D8F800300F4693F830400134A400E6
:102D780020460BF018F9054658B940F25D3216495D
:102D8800164808F0E1FA6FF00B06304602B0BDE8CD
:102D9800F081224600210AF0D6F9D8F800004FF059
:102DA800FF324FF0FF33143008F0D8F90C48009484
:102DB80032462B460B490068FFF7C8FE0646D8F88E
:102DC800000014302C4407F0B5F854F8043C2846A9
:102DD8003B600BF0E1F8D8E7B4050100810401007D
:102DE8000808002040E7000004080020D0B50E487D
:102DF80006F0FAFC04464FF4B0520C2108F048FAE9
:102E08004FF4804600273046394607F0CDFB4FF493
:102E1800D0520C21204608F03BFA30463946BDE82E
:102E2800D04007F0C1BB00BF1BFB000070B5124CBF
:102E38007422002120460AF086F94FF4D073A3814A
:102E48004FF40003E36208230025012663600B4B5F
:102E58001022FF2104F13400C4E9145325702567BA
:102E680084F83050E67325820AF06DF9044B204649
:102E7800C4E91135E66470BD10080020C2050100E0
:102E880048161816034A044B002814BF1046184663
:102E9800704700BF70010020540100200B68013307
:102EA8000B60014B1B6818478C010020014B186010
:102EB800704700BF8C01002007B50B460021024671
:102EC8000191034801A900F079F903B05DF804FB0A
:102ED800A52E000030B5002585B0CDE901010446D6
:102EE80001A90548039500F069F9DDE90230984227
:102EF800B8BF255405B030BD2BB300002DE9F84FFD
:102F0800B0F81890044619F0080893460DD0012926
:102F18000CBF49F0100949F02009A0F818908BF36C
:102F28001188BFF36F8FBDE8F88F09F007090229F0
:102F380007D1204608F022FA0028F0D00128238B78
:102F480050D16769218B002F15DA256821F0070118
:102F5800C4E9008841F0010121830026218B01F09A
:102F6800070ACA4502D0A368002B5CD10DB9002E10
:102F780074D0002358E001F007035A1F012A20D813
:102F880021F00701062B256889B2C4E900880CD115
:102F9800002D2B4638BF00232BB1628B1B680132F2
:102FA8006283002BF8D141F002012046218308F00A
:102FB800E5F906460028D1D0238B43F0200323836C
:102FC800CBE7042B0CD121F0070189B220462183DD
:102FD80008F0D4F905460028BFD041F0200121832C
:102FE8000025BAE7032809D1226923F007031668E8
:102FF80043F00603002523832F46AFE7042806D1B4
:10300800226923F00703566843F00403F2E7052812
:1030180006D1226923F00703966843F00503E9E720
:1030280000252E46E8E7012341F0080121838BF3B0
:103038001188BFF36F8F03BB002D33D116B1204623
:103048002049B0474FF02003EFF3118B83F3128828
:10305800BFF36F8F238B23F008032383238BDA06B8
:1030680028D5012123F010032383B4F8189009F020
:10307800070900297FF45BAF51E7A1680029DBD07D
:103088000B68002B38BF0023994652463B46204622
:10309800D1F804B0D847B9F1000FCDD04946D9F8D6
:1030A8000030EEE729463B46524620462D6808F098
:1030B80081F9C1E713F020011EBF23F0200302218C
:1030C8002383D2E7E9B300002DE9F047C46800255F
:1030D80004F1FF3A40F26C7443690769E41807F198
:1030E800010745EBE375022F8CBF00230123E41A87
:1030F80065F10005002C75F1000306464FDA6FF400
:10310800C7704FF4C8720023201845F1FF31FDF74E
:10311800EDFB264B022F03FB0044D6E900539846EB
:103128004FEAE379B3684FF03C06C6FB0389A8FB76
:10313800062306FB09338CBF6FF0020C4FF0090C15
:10314800521943EBE57340F26D15A60805FB0465BB
:10315800AA446425B4FBF5F4AAEB04044FF0990AD9
:1031680067440AFB07FA05270AF1020ABAFBF7FACD
:103178000F4D5444A0FB056705FB017736190D4C2C
:103188000D4947F100073419A4FB014547F1FF3009
:1031980001FB0055A01845EB0301BDE8F0874FF48B
:1031A800C872002320462946B1E700BF70FEFFFF22
:1031B800B13A02009405F5FF805101002DE9F04F66
:1031C800884691461C460025A5B0039099F8000052
:1031D80010B9284600F018BE09F101032528099303
:1031E80007D04146039B98470028C0F20D86013559
:1031F80045E21822002116A809F0A5FF99F8013028
:10320800252B79D0002216469646174694460998EB
:10321800014610F8013B2B2B00F09E8000F29580B0
:10322800202B00F09B80232B00F09B80BCF1000F2B
:1032380005D09DF8600040F004008DF860002FB1C3
:103248009DF8600040F008008DF86000BEF1000FA6
:1032580005D09DF8600040F010008DF860002EB198
:103268009DF8600040F020008DF860002AB19DF8BC
:10327800602042F040028DF860209DF8602002F046
:103288004400442803D16FF386128DF860209DF81E
:1032980060202A2B42F080028DF860207CD19DF8B6
:1032A80061204B1C42F001028DF861201A782E2A09
:1032B8000CBF012100219DF8612061F341028DF8C6
:1032C800612075D15A782A2A6BD000210A26013349
:1032D800184610F8012BA2F13007092F40F2AA80F6
:1032E8009DF860201A91C2F3400040EAD17161F361
:1032F80041028DF860205BE009F1020209928DF825
:1033080063309DF86130DE0740F16F8154F8042B7B
:10331800002A089208DA9DF8602042F004028DF82D
:103328006020089A52420892580740F1668154F882
:10333800047B002F80F265819DF861306FF34103B3
:103348008DF861304FF0FF375BE12D2B0BD0302B20
:103358007FF46CAF01225BE7012759E74FF0010EBC
:1033680056E7012654E74FF0010C51E733460CFBB2
:103378000202303A1E4616F8010BA0F13007092F59
:10338800F4D9994292D09DF860101992D20F62F345
:1033980041018DF8601089E70B4600224FF00A0CB6
:1033A800E8E79DF86120023342F004028DF86120BD
:1033B800194611F8012B6C2A5CD040D8682A46D0EF
:1033C8006A2A61D04C2A67D019460B4613F8012B9C
:1033D800782A09938DF8632000F2DF80572A68D88D
:1033E800412A04D0A2F14503022B00F2D680042121
:1033F8009DF8623002F0DF02A2F1410A61F3020394
:10340800DAF100029DF8611042EB0A0262F3C7117B
:103418000A068DF862308DF86110CBB200F1E380B6
:1034280003F07802182A40F0B5806FF3C6038DF8D0
:1034380061309CE006FB01210346303948E7742AD5
:1034480026D07A2AC0D106229DF861300DE05A783C
:10345800682A9DF8612006D1012161F3C6028DF822
:103468006120991CB1E71346022262F3C6038DF866
:103478006130AAE75A786C2A9DF8612001D10421AD
:10348800EBE713460322F0E705229DF86130ECE7ED
:1034980007229DF86130E8E7BDF8603023F4F04377
:1034A80023F0020343F4804343F00203ADF8603095
:1034B8008BE7A2F15803202B6FD801A151F823F014
:1034C8007B350000A3350000A3350000A3350000BC
:1034D800A3350000A3350000A3350000A335000084
:1034E800A3350000F7330000A33500007B3500004A
:1034F8004D350000F7330000F7330000F7330000C4
:10350800A33500004D350000A3350000A3350000A9
:10351800A3350000A3350000B13500007B3500005D
:10352800D1350000A3350000A3350000D1350000D7
:10353800A33500007B350000A3350000A33500004B
:103548007B35000001219DF8623061F302038DF89C
:1035580062309DF8613003F07803402B02BF9DF87C
:10356800601041F001018DF86010632A05D0002336
:1035780006E002219DF86230E7E7003B18BF01230F
:103588009DF86020C2F340010B4363F341028DF8BC
:103598006020B6E613F0380FE9D09DF8603043F0AC
:1035A80001038DF86030E2E703229DF8623062F390
:1035B80002038DF862309DF8613003F07803A3F1BF
:1035C80040077B427B41DBE703229DF8623062F3D0
:1035D80002038DF862309DF8613013F0780F14BF44
:1035E80001230023CCE70123CAE79DF96020002AC4
:1035F800ACBF4FF0FF32199A95E699077FF5A2AE56
:103608001A9F0023CDE919339DF8623003F00703B0
:10361800042B09D19DF861309A0705D49DF96130D2
:10362800002BB4BF0D2706279DF862309DF8611066
:1036380003F00703012BC1F3C30136D1CB1E042BC2
:1036480020D8DFE803F00307071F1F0054F8042BF6
:10365800D31704E0073424F00704F4E80223CDE983
:1036680016239DF86060B30755D04A464146099B2A
:10367800039808F076FA0028C0F2C6830544DDF8FE
:103688002490A3E554F8042B01294FEAE273CDE90D
:10369800162305D19DF85830169300231793E0E7B9
:1036A8000229DED1BDF95820D2E7022B23D1CB1E47
:1036B800042B13D8DFE803F0030A0A1212000023D0
:1036C8002268201D169217930446CAE7073424F08F
:1036D8000700F0E80223CDE91623F5E754F8043B88
:1036E800012916934FF000031793D3D00229B8D1BC
:1036F800BDF85830D0E7042B07D1073424F007046D
:10370800F4E80223CDE91623ABE7032B04BF54F8F2
:10371800043B1693A5E79DF86390B9F1780FAED8EE
:10372800B9F1570F00F2A780B9F1250F00F0EE802C
:10373800B9F1240FA3D9B9F1410F03D0A9F1450379
:10374800022B9CD8DDE91623002A73F10001C0F290
:10375800D581310700F1D48116F0100618BF202654
:10376800C3F30A5BC3F3130306920793DDE9062349
:10377800CDE91223BBF1000F40F0C481DDE9063228
:10378800134314BF4FF0010C4FF0000C5846079933
:10379800B9F1460F4FEAC123069908BF4FF06609F1
:1037A800CA0243EA51534BEA02010C91C11719436B
:1037B8000D91DDE90C010143CDE9122300F01582DA
:1037C800BCF1000F40F0D581129B05210493139B97
:1037D800ABF2FE3B43F000430593DDE90423CDE95A
:1037E800122300231A461BF1020FC0F2CB811BB132
:1037F800DDE90401CDE91201DDE91231BBF1000F69
:1038080000F3DB811399129BCBF104000BF11C0B25
:1038180001FA0BFBA0F1200CC34021FA0CFC43EA8F
:103828000B0343EA0C03C140CDE9123109F0DF0371
:10383800472B40F0E181D01C02DB974280F2D8810F
:10384800A9F10209002F5FFA89F900DD013F9DF80F
:103858006030990600F1D081002FD4BF00230123E6
:10386800B9F1660F0E9340F0C981BB1840F1C781CA
:103878004FF0000AC7E1A9F15803202B3FF6FFAE2D
:1038880001A252F823F000BFA53A000087360000D5
:10389800873600008736000087360000873600002C
:1038A8008736000087360000873600004D37000055
:1038B8008736000041390000453A00004D370000C6
:1038C8004D3700004D37000087360000453A0000AC
:1038D80087360000873600008736000087360000EC
:1038E800DB3A0000A53A0000A93A0000873600003C
:1038F800873600001B39000087360000A53A000013
:103908008736000087360000A53A00004146484641
:1039180068E4002FDDF858900ADB3946484609F07C
:10392800BCFB002609EB000AB9F1000F0CD1A6E692
:10393800484609F0ABFBF4E70026169B0DF1750A23
:103948008DF874300DF17409AAEB090206B1013241
:103958009DF86200C30640F14C8202321999400674
:103968000A44089B44BF1A995218002B25DD9B1A5C
:103978009DF860205107C2F3800B00F14C82570676
:1039880040F14582002E00F04482089341463046BB
:10399800039B98470028C0F237825E463027089B71
:1039A8000135089303EB050B089BABEB0305002BD4
:1039B80003F1FF33089300F320823EB141463046BD
:1039C800039B98470028C0F21F8201359DF86220AA
:1039D800560640F17E829DF96120002AC0F21D82C0
:1039E800A5EB090599F800004F46A0F13002092A15
:1039F80005EB090B09F1010940F23F829DF86220AD
:103A0800199E900608D406EB0B09002EA9EB060BAD
:103A180006F1FF3600F3388238782E280BD141465C
:103A2800039B98470028C0F2EF81002E0BF1010B91
:103A380000F332820137ABEB070B38E230072BD4A7
:103A480016F0100618BF2026DDE91623002A73F1A8
:103A5800000105DA2D26524263EB4303CDE9162314
:103A6800DDE916010DF18D03009318AA1DAB08F0CE
:103A78002DF88146002F0DF18D030BDB9DF86010AA
:103A8800A3EB09026FF3861197428DF8601001D9F4
:103A9800BF1A19979A4647E72B26D5E70026DFE78E
:103AA8001698002800F09F810DF18D0300930021E6
:103AB8001DAB18AA08F00AF8BDF86230814603F079
:103AC800EF0343F4F04343F010030026ADF86230EF
:103AD800D0E7169B07293FF6D2ADDFE801F00D04C9
:103AE800060D08080D0D1D70C9E51D80C7E528469F
:103AF800E917C3E90001C2E51D60C0E52D262FE6E0
:103B08002B262DE640F2FF739B452DD1DDE90623D8
:103B18001343A9F1410918D1B9F1190F95BF44F61A
:103B2800496346F66963ADF87430ADF8743094BFF4
:103B3800462366238DF876309DF860300DF1770ABC
:103B48006FF386138DF86030FCE6B9F1190F95BF55
:103B580044F24E1346F26E13ADF87430ADF874307B
:103B680094BF4E236E23E5E74FF0000C0EE60BF1F1
:103B7800FF3B92185B41002A73F10001F7DACDE9A7
:103B8800122321E6049B05985B0843EAC0734008AA
:103B9800B0F1333FDC46CDE904300BF1010BF1D233
:103BA800A3FB01AB4843CDE904AB059B0CF1020B29
:103BB800C3180593013A012315E6023341F10001C8
:103BC80012A8CDE912310E9207F04AFFDDE9120181
:103BD8000E9A0BF1FF3B013200184941002871F1A0
:103BE80000030BF1FF3BF7DA04E60022934609E6EF
:103BF8004FF06609BF1A2AE6002331E67B1C102B1A
:103C0800A8BF10239A461021002011914FF000619F
:103C1800CDE91401DDE914100AF1FF3ABAF1FF3FCA
:103C28001FD1129BCB180A93139B6FF0704140EB86
:103C380003034FF0FF300B93DDE90AAB594508BF8A
:103C480050451AD350465946CDE91201B9F1660FCD
:103C580053D1002A20DC30230DF1750A8DF8743019
:103C68002BE0490841EAC0714008CDE9141014A8B6
:103C78000F9207F0F5FE0F9ACCE70A9B0F920B9A6A
:103C88005B0843EAC273510812A8CDE9123107F064
:103C9800E7FE0F9A0132D9E70DF1740A119900294C
:103CA80009DD11A912A80F9207F0F9FE0F9A0AF878
:103CB800010B013AF2D1199200229DF86010880692
:103CC80001D4002F3FDD53462E2103F8011B92B18A
:103CD800002F76DD5142B942A8BF39460029199113
:103CE800A7EB0107D4BF002101219DF8620061F311
:103CF80045108DF862009A4620E011A912A80F928B
:103D080007F0CDFE0F9A9DF86030302818BF02F1F9
:103D1800FF3299068DF8740001D4002F53DD2E234D
:103D28008DF875300DF17603E5E711A912A80F9209
:103D380007F0B5FE0F9A0AF8010B013F002F02DDCC
:103D480011990029F1DC0E9B002B3FD11A9709F03D
:103D5800DF01452923D1002AB4BF2D212B2150464C
:103D6800B8BF5242632A00F8029B8AF801100ADDA4
:103D78006427B2FBF7F107FB112201F1300C0AF1BD
:103D880003008AF802C00A27B2FBF7F1824607FB54
:103D9800112201F1300C30320AF802CB4270199A24
:103DA800002A1EDC1A9A002AD4BF002201229DF89C
:103DB800621062F3861100228DF862108AF80020E2
:103DC800C0E59A46BFE70DF1750ABCE700211A91D4
:103DD80050461AF8011D3029FAD02E2918BF8246FC
:103DE800B5E70122E3E7DFF83CA10646AAF1050999
:103DF800AAE5070748BF0132B0E541463846039BAC
:103E080098470028BFF6D0AD25B0BDE8F08F202731
:103E1800C7E53027C5E50893CFE5A5EB090B4E4666
:103E28000BEB090519F8010B702820D11A9A02EB3F
:103E38000509A9EB0502002A43DC534632464146F0
:103E4800039807F08EFE0028DEDB089B2844034415
:103E580005469A46AAEB0503002B7FF710AC4146AE
:103E68002020039B98470028CEDB0135F2E7414626
:103E7800039B98470028D2DAC6E74146039B984738
:103E88000028BFF6AFADBFE741463020039B9847F7
:103E98000028BFF6BAADB7E741463020039B9847E4
:103EA800013EBFE54146039B98470028ACDB3E46F0
:103EB8000BEB070517F8010BA0F13002092AF1D91D
:103EC800B4E741463020039B984700289CDB013526
:103ED800AFE7D10601D4120706D541463020039B2F
:103EE8009847002890DB01359DF86220D30607D556
:103EF80041469DF86300039B9847002884DB013501
:103F0800199E2E44721B002A02DC53464A4696E745
:103F180041463020039B98470028FFF675AF0135CE
:103F2800F0E700BFD105010008B54FF02002EFF31C
:103F3800118382F31288BFF36F8F02F019FD0348D3
:103F480007F002FA02F0BEFAFCE700BFD205010052
:103F5800094B0A4900F01F024009012808BF0B4617
:103F680003EB8203D3F8002222F0E04242F04052F1
:103F7800C3F80022704700BF0025845000288450F1
:103F880070B54FF02003EFF3118683F31288BFF367
:103F98006F8F01240C4B0D4DC3F800450223002000
:103FA800C5F8D036FFF7D4FF2046FFF7D1FFC5F894
:103FB8000447C5F80449C5F8004B86F31188BFF3D8
:103FC8006F8F002070BD00BF0010005000400050EF
:103FD80048B1054B1A68054BB2FBF3F2044B50434A
:103FE80043F00103184770476002002040420F0069
:103FF80010E50000062807D10122044BC3F800256C
:10400800BFF34F8F20BFFDE7704700BF004000504F
:1040180013B5044605F0A8FEC0F307230193C0F3C7
:10402800074300930821030E034A204608F040F98D
:10403800002002B010BD00BFFB0501002DE930488B
:10404800044609F00AFE4FF47A75A0FB05BC05FB8F
:1040580001CC4FEADB32204642EA4C430821034AAE
:1040680008F026F90020BDE8308800BF14060100DA
:1040780010B5044604F088F908210346074A20468B
:1040880008F016F92046064A082108F011F92146D9
:10409800044805F0FDFC002010BD00BF2306010008
:1040A80042060100B1400000F0B587B004460D4655
:1040B800D0F8A07009F066FC064606F08FFA234B8C
:1040C800234A002E08BF1E46224B0821844218BFEF
:1040D8001346CDE9004628461F4A08F0E9F8D4E916
:1040E8000A23CDE9022394F90E30082128461B4AF9
:1040F8000093237B08F0DCF8204605F011FD626E82
:104108000346009208212846154A08F0D1F82046AF
:1041180005A909F047FC034630B108212846114A91
:1041280008F0C6F807B0F0BD6423059A2846B91A06
:104138004B43B3FBF7F3CDE90021CDE90273082126
:104148003B46094A08F0B4F8ECE700BF4E06010008
:10415800720E01004C060100510601005D060100C7
:1041680089060100A0060100CD06010070B5124EB7
:1041780088B004460146114805F08AFC07AA4FF4A6
:104188000061304609F002FC64224FF40063002508
:1041980007990095C1F500604243D20ACDE90303AF
:1041A800CDE901312046059233460821044A08F03A
:1041B8007FF8284608B070BD40320020E941000071
:1041C8000407010010B5044609F0A6FA08210346C1
:1041D800024A204608F06CF8002010BD4A0701008A
:1041E800F0B504460D46D0F8A06089B007A909F0DB
:1041F800D9FB034630B1082128460F4A08F058F881
:1042080009B0F0BD204609F0BDFB6423079A0B4FA7
:10421800B11A4B43002808BF3846B3FBF6F3CDE983
:104228000221CDE90463CDE900062346082128468A
:10423800034A08F03DF8E3E7A00601004E06010036
:10424800600701000346006810B50C46114608B126
:10425800027822B92046024A02F054FD204610BDD9
:104268006308010010B50C68D1E90112FFF7EAFFF5
:1042780008210346024A204608F01AF8002010BD1B
:10428800680801002DE9F0478AB0054601A805F045
:104298009DFA1826019B082106FB0036194A284674
:1042A80008F006F8DFF86880019CDFF86890DFF80E
:1042B80068A0B44203D300200AB0BDE8F08705AF78
:1042C800394614222046FFF7BDFF4246034608211F
:1042D800284607F0EDFF204609F0C8FA0821002813
:1042E80014BF4B465346084A284607F0E1FF1423FB
:1042F8002046064902AACDE902570493183409F06A
:10430800BFFAD6E787080100960801006D42000051
:1043180091080100780801007E0801002DE9F043AA
:1043280006460027104BDFF8449053F8214001312E
:1043380053F8218087B0A04503D8384607B0BDE8B8
:10434800F083204609F092FA054658B1142201A9D3
:104358002046FFF777FF4A4603460821304607F014
:10436800A7FF2F461834E6E754E800009D0801002F
:1043780010B5044608211E4A07F09AFF002120467E
:10438800FFF7CCFF20B9082120461A4A07F090FF12
:1043980008212046184A07F08BFF01212046FFF725
:1043A800BDFF20B908212046124A07F081FF0821E5
:1043B8002046124A07F07CFF02212046FFF7AEFF95
:1043C80020B9082120460B4A07F072FF0821204631
:1043D8000B4A07F06DFF03212046FFF79FFF20B926
:1043E80008212046034A07F063FF002010BD00BFE4
:1043F800A3080100B2080100BA080100C9080100B9
:10440800D70801007FB50A684B6904924A6803F22D
:104418006C7303928A680292CA6801920A69082139
:1044280001320092024A07F043FF07B05DF804FB2F
:104438003B090100F7B5137806463A2B0F46154697
:1044480016D1541C23783A2B2ED1013400230A228A
:10445800204601A9019308F0DFFC019A0346A24215
:10446800386010D0107870B93C2B0ED9184A14E077
:1044780000230A22284601A9019308F0CDFC019CDB
:10448800B860AC4203D16FF0150003B0F0BD2378DB
:104498003A2BF8D1172805D90E4A0121304607F0E2
:1044A80007FFF0E70134CDE700230A22204601A9DF
:1044B800019308F0B1FC019A7860A242E3D0137826
:1044C8003A2BE0D13B2801D9034AE6E7541CBDE763
:1044D8007A0901005C0901006A0901002DE9F0432D
:1044E80004460D46174691B0012002A9FCF7CCFB03
:1044F80007A902A802F01EFC032D60D14FF00009A5
:104508007D680A22284601A9CDF8049008F084FCA9
:10451800019E8046B54218D032782D2A15D1013631
:104528000A22304601A9CDF8049008F075FC019BD9
:104538009E420AD01A782D2A07D1451E0B2D0DD977
:104548002B4A0121204607F0B3FE204607F0BDFEA6
:104558006FF01505284611B0BDE8F0835E1C0A22ED
:10456800304601A9CDF8049008F056FC019B9E4204
:10457800EBD01B78002BE8D1431E1E2B01D91D4A16
:10458800DFE7A8F26C73CDE90B53BA680A902046AE
:1045980007A9FFF74FFF0028D7D107A806F0A3FF08
:1045A8000B460246CDE90223013308BFB0F1FF3FB5
:1045B80009D101212046104A07F07AFEC8E7022DEA
:1045C800C3D17A68E3E70023012002A90493FCF72A
:1045D800C7FB054630B1034601212046074A07F0CC
:1045E80067FEB5E7204607A9FFF70CFFB2E700BF53
:1045F8008A09010099090100A6090100CF090100F3
:104608008B1E022B2DE9F04107468846144633D805
:1046180010220021606808F075FCB8F1020F064608
:104628001ED00A220021A06808F06CFCC5B22B46F7
:10463800082138461F4A07F03BFEB8F1040F1ED088
:10464800102D0FD0202D10D0082D10D13378DBB2CB
:1046580008213846184A07F02BFE0020BDE8F081F3
:104668002025E4E733889BB2F2E73368F0E70821B6
:104678003846124A07F01CFE6FF01500EEE71022CC
:104688000021E06808F03EFC0821034604460C4A75
:10469800384607F00DFE102D06D0202D07D0082D26
:1046A800E5D1E4B23470D8E7A4B23480D5E73460F9
:1046B800D3E700BF140A01003F0A0100290A0100DC
:1046C800500A010070B50F4C05460E46237839B1E3
:1046D80033B101210C4A07F0EBFD6FF00F0070BDFC
:1046E80083F00103237033B108212846074A07F0F5
:1046F800DFFD012323702846314607F0FBFD00202B
:10470800EDE700BFFF220020640A01009F0A0100B4
:1047180000232DE9F74F144606462D480D46036041
:104728002C492D48DFF8C090DFF8C0A0DFF8C0B0F2
:104738000B7003600091012D274654F8043F21D9DE
:10474800184602224946019308F0BCFC019B88B92F
:1047580022689278003A18BF012203EB02085146FA
:104768000222404608F0AEFC30B90123009A1370CB
:10477800013DE0E70022F0E74946404608F096FC94
:10478800B0B9043700227868114608F045FB0022CA
:10479800124B11461860786808F03EFB104B11491F
:1047A80018603046FFF78EFF002003B0BDE8F08F99
:1047B80098F800202D2AE5D198F80120002AE1D0A8
:1047C80043465A460821304607F072FDD0E700BF3D
:1047D800880800200023002090080020840800207A
:1047E8008C080020FD470000C90A0100CC0A01001E
:1047F800CF0A010070B53E4B05461878182802D13B
:104808000878112831D00846013A5418844225D135
:104818008A5C384C1A700A78A2F13003092B04D943
:1048280022F02003413B052B04D823683249CA549F
:10483800013323602368022B34D1102200212E4833
:1048480008F060FB2D4A136803F8010B13602C4A2B
:104858001368013313600023236023E010F8016B11
:10486800182ED3D10678112ED0D1254C08212368D3
:104878002846244A07F01CFD00212846FFF722FF9E
:10488800214B187870B9214A23681168042B0ADC77
:1048980008B11160236013F003010BD1126813688B
:1048A8001BBA136070BD0868043B00BA41F8040BDA
:1048B8000120EBE75B4203F0030358BF594202298A
:1048C80007D112681168C1F3072343EA01239BB299
:1048D800E7E70329E6D1106802681104C2F3074329
:1048E80001F47F010B4302F47F4213430360D9E7CD
:1048F8000123002088080020FD22002084080020D1
:1049080090080020E40A0100002300208C08002001
:1049180013B5094808F0AAFF58B10024074A012333
:10492800126805490648009400F070FD204602B060
:1049380010BD6FF01200FAE7A4E1000048E900009A
:1049480014E4000010B50C461146426810688360F4
:104958000023C0E900419168C1E90233C1E9053388
:104968004B600B61D168C1E90233C1E905334B6083
:104978000B61C360A36823B19B6C13B12046044943
:104988009847A3689B6A0BB120469847002010BD42
:104998003DC0000010B504468168083101F072F985
:1049A800A1682046BDE81040014A083101F006B967
:1049B8009F0B010037B5044680680D46D0F8643275
:1049C8005A0705D5002107F00AFCE06808F0FAF854
:1049D800E368DB686BB9002D37D0A068423007F078
:1049E800EBFBA36898B303F1420103F5A17008F04B
:1049F80022FBA2682946E0680DF10603423208F05E
:104A0800E4F858B9A06800F5A171423008F013FB2A
:104A1800A068423007F0D0FBADF80600204607F04A
:104A28003AFFA368D3F860329B0603D50949606949
:104A380007F0C8FB204600F015FFA368BDF8062064
:104A48002046DA879A8700F0CFFE03B030BD83F89E
:104A58004201CEE7D0E400000222836810B51A7143
:104A68009B6B0446CBB9826882F84230D363836873
:104A7800D3F86432DB040BD50321084B084A07F04E
:104A8800B6FFA0686FF4805100F5197007F04CFB71
:104A98002046BDE8104000F0FFBF10BDAD0B01007F
:104AA8009308010000232DE9F04F04469FB0CDE99B
:104AB800053383684233039307F0F3FE204607F07B
:104AC80077FE18B99F49606907F07CFB00264FF014
:104AD800FF38B146B2463546B346A06814220021D5
:104AE800083008F030FB204607F0DBFDA168E068DD
:104AF8008A8F423108F0A0F8204608F01DF911AF5E
:104B08000296DDE90532012A00F0D7800B2B40F22E
:104B1800AF80069B022B40F0AF8001218A4B8B4A65
:104B280014E002233946039A06A807F04EFC7A6877
:104B380006990346039229B96FF0070528461FB066
:104B4800BDE8F08F012905D120B1814A204607F040
:104B58004EFFF1E7059B4BB3386801F0B7F898B101
:104B680066B1A5680D9608350CAE0FCE0FC5336833
:104B78002B602046FFF70EFF0125DFE7754A01216C
:104B8800204607F034FFD7E7059B7BB1294620462E
:104B98003A6801F0F9F9022800F08F80032805D05F
:104BA800059B0133059301230293AAE7BAF1000F8D
:104BB80005D15846396807AA07F0F2FC05460437BC
:104BC80008F1FF38002D41D0029B4BB1EB683BB197
:104BD800204607F066FE204600F006FE5E4ACEE755
:104BE800EB68CBB1AE46A368DDF8149003F1080C6E
:104BF800BEE80F00ACE80F00DEF80030CCF800305B
:104C0800AB684BB96B7CFE2B01BF95F8108009F19E
:104C1800010308F1FF380593D5F804C0BCF1000F73
:104C280008D0AE460CAEBEE80F000FC6DEF8003066
:104C380033606646AB46B8F1000F03D1069B022BE2
:104C48007FF45FAF059B013305935AE7059B63B972
:104C5800A368DB690BB1DB683BB9404B01210093CA
:104C68002046119B3E4A07F0C2FE4FF0010AE2E7D8
:104C7800B8F1000F7FF455AF029B4BB1204608F006
:104C88007CF8A2680C23423211A905A807F09DFB05
:104C98000022059DA0681EAB03EB850343F8342C66
:104CA800436973B9002E3FF447AFC368B3423FF47A
:104CB80060AF0D9600F1080556E7059B0B2BDBD975
:104CC80027E7037EA5EB0905B3B14FF6FF71427ED6
:104CD800FF2A08BF0A469D4202D313449D420BD9BE
:104CE8008368012120461F4A07F081FE2046FFF70E
:104CF80051FE6FF0150521E74FF4006100F51970BA
:104D080007F007FAA06800F53E7007F053FAA368A9
:104D180011AA294602EB890220465B699847054695
:104D2800A0684FF0FF324FF0FF3300F53E7007F0F8
:104D380080FAA0686FF4006100F5197007F0F4F9C3
:104D4800FCE600BF02070100660C01009F08010095
:104D5800F10B0100050C0100230C0100520C0100AD
:104D6800E40E01008A0C01002DE9F04F044680682A
:104D78000121ABB000F5197007F0CBF9A3681B79D6
:104D8800022B17D100230B93A36860689E6B0368FE
:104D98001D690BABC6B110221DA9A8470B9A4AB1D1
:104DA80020461DA9B047A3689B6B002BECD1204679
:104DB800FFF752FEA0686FF0010100F5197007F0C7
:104DC800B3F92BB0BDE8F08F01220DF12B01A847F4
:104DD8000B9B002BEED09DF92B209DF82B30002A41
:104DE800A068D1DB4279032A00F2FD82DFE812F0E5
:104DF80004007D029402FB020D2B1AD00A2B18D056
:104E0800B0F864226FF3CA02A0F86422092B4DD0CF
:104E180033D8002BB8D0082B00F0C981A3F12002A9
:104E28005E2A00F2D081012107F0D9F99DF82B10F4
:104E3800E9E0D0F86422C2F3C7022AB1D0F86422AC
:104E4800C2F3C7029342E1D1B0F86422818F63F3C1
:104E5800CA02A0F8642261B907F0C1F9E06807F056
:104E6800B1FEAC49606907F0ADF92046FFF7F4FDE3
:104E78008AE72046FFF716FEF7E71B2B13D07F2B98
:104E8800CCD1D0F860329D077FF57EAF012107F0C5
:104E9800A6F9A368D3F86032190700F1908120467B
:104EA80007F0E6FD70E7012343716DE7D0F8603243
:104EB8009B077FF569AF012107F091F9A068838FFF
:104EC800FF2B3FF461AF0025C28F00F1420100F5CE
:104ED800A17008F02DF9A2681DA9D38F0DA813445D
:104EE80083F8425102F5A1720C2307F06EFA0D996E
:104EF8000C293FF649AF2AAB03EB810343F8345C36
:104F0800A368DA8F134493F84130202B00F06D82A8
:104F1800093B042B40F2698201294FD800250C95E2
:104F28000C9B2AAA02EB830353F834AC00265046A4
:104F380007F042F9B0468146374604963946284676
:104F480018AA00F0F3FB8346002844D1012E63D150
:104F58000C9B2AAA02EB830353F8340C07F02CF9B4
:104F6800A268064641462846083200F0DFFB05469F
:104F7800006807F021F9864206D02968821B92B2A0
:104F88002046314407F072FDA068C38F034493F8AC
:104F98004230202B3BD0093B042B38D9D0F8603263
:104FA800DF072FD5002107F02AF92021204600F03D
:104FB8003BFD0121A06807F022F9E5E60139002050
:104FC8000EAB009301900CAB1DAA07F009FB054638
:104FD8000028A5D1D8E64A465146DBF8000008F07B
:104FE80071F868B9DBF8000008F050F8049B8342B8
:104FF80038BF03469BB2002E08BFB846049301365B
:1050080001379BE72021204600F00EFDBCE6012178
:10501800204607F0E1FBB7E67FF6B6AE0C9B2AAA5E
:1050280002EB830353F834AC504607F0C5F8A36885
:105038000690A3F830B0DFF8E0B00596CDF80C8004
:10504800A26828460399083200F070FB039B0746C4
:1050580001330393BAF1000F52D13B68002B5DD1A5
:10506800A2681386059B013B0593E9D1294960692C
:1050780007F0A8F8204600F00FFD0C9B2AAA02EBC7
:10508800830353F8340C07F097F8414613AA0746F0
:10509800284600F04BFB08F101098046A068D8F8C3
:1050A8000010FF2200F5A17007F0CFFFD8F800A08C
:1050B8004FF6FF784946284618AA09F1010B00F077
:1050C80035FB002866D00022A368006803F5A173A9
:1050D80013F801CB815C614505D121B14FF6FF7111
:1050E80001328A42F4D10FB1BA4207DB9045A8BF1A
:1050F8009046013E012E1FFA88F84BD0D946D9E7D1
:1051080000680028A9D05146069A07F0DBFF00285E
:10511800A3D095E702070100710E010058460793D6
:1051280007F04AF8049BA168C21892B258464F8DFE
:10513800099207F041F8079B0890184607F03CF8D9
:105148000899099A7F1AA2EB000997FBF2F2A06866
:1051580092B2B0F830C0079BBCFBF2F102FB11C25F
:105168000CF1010E92B21FFA89F9A0F830E05AB991
:10517800009306215B4620469E4A07F038FC4946C4
:10518800204600F01BFB6DE7062120469A4A07F0EF
:105198002EFCF4E7B8F1000F3FF4F6ADA8EB0702D8
:1051A800204692B20AEB070107F060FCECE5D0F864
:1051B80060329E077FF5E8AD012107F010F8204620
:1051C80007F071FCE0E5D0F8602292077FF5DCADCE
:1051D800013B162B3FF6D8AD01A252F823F000BFD1
:1051E800C1530000455200004D520000A74E000078
:1051F800B55300006D520000914D0000914D000024
:10520800914D0000914D0000755200007D52000044
:10521800914D0000A7520000914D0000B1520000CE
:10522800914D0000914D0000914D0000914D0000FE
:10523800B5520000914D0000E3520000204607F0EF
:1052480037FBA1E5204607F02CFB204607F0B0FA13
:1052580018B96A49606906F0B5FF0121A06806F02F
:10526800BEFF02E6204607F02BFB8DE5204607F03F
:1052780030FB89E5D0F860329F0603D56049606944
:1052880006F0A0FFA368D3F860329E0603D55D49F7
:10529800606906F097FF204600F0FEFB74E50021E8
:1052A8002046FFF787FB6FE50121F9E7204607F065
:1052B800F2FA0022A368012183F84220DA63A06889
:1052C80006F08DFFA368D3F860329D067FF55CADCC
:1052D8004D49606906F076FF56E5204600F008FB68
:1052E8000121A06806F07BFF4EE55B2B01D102236C
:1052F800DAE5D0F86022900706D5622B08D14FF086
:10530800FF31204607F08CFA0022A3685A713BE56A
:10531800662BF9D10121F4E700224271A268D2F884
:10532800601289077FF530AD313B1B2B3FF62CAD62
:1053380001A151F823F000BFBD530000C95300007C
:10534800DD530000B1530000914D0000914D000065
:10535800914D0000914D0000914D0000914D0000CD
:10536800914D0000914D0000914D0000914D0000BD
:10537800914D0000914D0000B1520000A75200006D
:105388006D52000045520000914D0000B5530000D9
:10539800914D0000C1530000914D0000914D000057
:1053A800914D0000CD53000003235371204607F0B0
:1053B80078FAE9E403235371204607F06CFAE3E432
:1053C80003235371A068D0F8601201F0010181F045
:1053D8000101F0E503235371A368D3F860329B07FA
:1053E8007FF5D2AC5BE500235EE500293FF496AD7E
:1053F800E5E500BFA50C01009308010002070100C4
:10540800D5E40000DAE40000D0E400002DE9F04320
:10541800044680688846D0F80C1315461F4689B0A4
:10542800002961D14FF4447207F08DFEA368226809
:10543800E0681A6007F066FCA06800F53E7008F0A6
:10544800BDFA4FF42A794FF41A76A068304408F070
:1054580083FDA0680022831901214844103608F012
:105468005EFDB6F52A7F09F11409EED10026A3697D
:10547800A06802211E6000F5197006F04AFEA368B4
:105488001B4A18689A6206F097FEA36866F38205BD
:1054980083F82C006068C3F86052036841461D68B1
:1054A800144A2346A8470546D0B90122A3681A71B1
:1054B800D4E9090100220023CDE906230E23039332
:1054C800109B4FF40062CDE9017304950A4B0094D8
:1054D80004F0C0FBA368216AC3F80C0304F010FBB6
:1054E800284609B0BDE8F0836FF07705F8E700BFFC
:1054F8001800500027C200005155000010B504469E
:1055080080680379012B19D14FF0FF324FF0FF3338
:1055180000F53E7006F08DFE0821204600F0AAF93D
:105528000849606906F04EFE2046FFF795FAA06824
:1055380000F53E7006F03EFE002010BD6FF08500BD
:10554800FBE700BF01070100F8B5044640680021E9
:1055580003689B68984700283FD12046FFF7CEFF95
:1055680000283AD11D4F1E4EA06800F52A704FF052
:10557800FF324FF0FF33032105F020FA0546A068FB
:105588004FF0FF324FF0FF3300F53E7075B106F073
:1055980050FE20462B460121124A07F028FAA0683F
:1055A800BDE8F84000F53E7006F004BE06F041FE86
:1055B800606803685B6903B198473A462046022150
:1055C80006F0E2FD20463246002106F0DDFDA06827
:1055D80000F53E7006F0EEFDC6E7F8BD47C10000D5
:1055E800714D0000AB0C010010B5044608210C4AAF
:1055F80006F05EFE204608210A4A06F059FE2046BB
:105608000821094A06F054FE20460821074A06F0F8
:105618004FFE20460021064A00F0D0FA002010BDB7
:10562800C20C0100000D01005F0D0100B30D010067
:105638004D0E01002DE9F04716461F462A4A0B4633
:1056480008210446002506F033FEDFF8A880DFF8BD
:10565800A890DFF8A8A0AF4231D94A4608212046D1
:10566800735D06F025FE0135102D20D10821204656
:105678001E4A06F01DFE0025DFF88080DFF88090C6
:10568800AF422AD9735D0821A3F120025F2A28BFFF
:105698002E234A46204606F00BFE0135102D14D164
:1056A8002046BDE8F0470821114A06F001BE6A0706
:1056B800D1D152460821204606F0FAFDCBE74246F2
:1056C8000821204606F0F4FDCDE76B07D8D1424605
:1056D8000821204606F0ECFDD2E742460821204684
:1056E80006F0E6FDD9E700BF630E0100740E010065
:1056F800760E0100700E01006A0E0100720E0100A4
:10570800960E010010B5044613460A46014606489F
:10571800FDF754FD23691B7923B12046BDE81040ED
:1057280006F0EBBD10BD00BF1BC3000010B50B4653
:10573800144650B90E490F4A521AB3EBD20F0FD282
:1057480001EBC3014C68204610BD816841B14A682D
:10575800097839B11846214690472368002BF2D1C1
:105768000024F0E714204343D418D358F6E700BFC9
:1057780040E40000A0E400008368D3F860329B0690
:1057880003D50249406906F0F2BF7047E0E4000023
:105798000A1E0DDC0ED042238168D1F860128906FA
:1057A80008D5002A04494069B8BF524206F0DFBF55
:1057B8004123F1E7704700BF920E01000A1E0DDC7D
:1057C8000ED044238168D1F86012890608D5002AD2
:1057D80004494069B8BF524206F0C9BF4323F1E704
:1057E800704700BF920E010010B5044606F0E0FFB6
:1057F80028B160690549BDE8104006F0B8BF04F15A
:10580800080006F0C1FF0028F3D110BD020701000F
:105818002DE9F041064656F8084F0546A28F04F1D7
:105828002000E18F06F0BBFD3046B4F82480E78CF9
:1058380006F0AAFF18B10A49686906F098FFB8454A
:1058480007D1218C638C2846BDE8F041C91AFFF7BF
:10585800B5BFE18CA38C2846C91AFFF799FFF0E77A
:1058680002070100826802494069423206F07FBFA0
:105878009308010008290A4617D8836893F82E1060
:10588800914212D083F82E208368082AD3F8603218
:1058980005D0990609D50549406906F068BF9B06F9
:1058A80003D50349406906F062BF7047990E0100AD
:1058B800E5E4000038B50D4609780446FFF7DAFF3D
:1058C8006A78072A11D8A36893F82F1091420CD050
:1058D80083F82F20A368D3F860329B0605D560694A
:1058E8000249BDE8384006F042BF38BDA20E0100AB
:1058F800F8B5836805469A8F002A4ED0D88F0028BD
:105908004BD04130184403F142060346C41AB3424F
:105918001946A4B20DD311F80179202F3BD01946AE
:105928000878013B202804D001349E421946A4B2CD
:10593800F5D9631C4E1C121B1944304607F0E1FBD5
:105948000023A96828468A8F121B92B28A870A44C4
:10595800614282F8423009B206F03EFFAB68D3F8E4
:1059680060329A0603D50D49686906F000FF334690
:10597800082128460A4A07F03AF82846FFF7FCFEAD
:10598800AB68D3F860329B0607D568690549BDE85E
:10599800F84006F0ECBE0B46B8E7F8BDEAE40000B4
:1059A80093080100EEE400002DE9F04104460D469D
:1059B80017460AB1FFF7E0FEA368D3F86022D88F34
:1059C800520700F14200034421D5184607F05EFB58
:1059D8000646DFF85080013E14D2204650F8083FB2
:1059E8009A8FDA8706F0D0FE28B107B11DB10B49AE
:1059F800606906F0BCFE69422046BDE8F04109B284
:105A080006F0EABE4146606906F0B1FEE3E7082108
:105A18002046034A06F0EBFFDFE700BF020701005C
:105A2800930801004C06010013B583688DF8071030
:105A3800D3F860220446D00723D5D98F9A8F8A429B
:105A48001FD0481C9DF80720D8870B4483F84220B4
:105A5800A368D3F86012890711D5D3F8603260695A
:105A680013F0040F18BF2A22094906F080FE2046C9
:105A780006F09EFE18B10749606906F078FE02B08C
:105A880010BD012220460DF1070106F0BDFFF6E723
:105A9800960E01000207010010B504468368022132
:105AA8001B68084A06F0A3FFA368D3F860329B0777
:105AB80007D52046FFF7D6FE2046BDE81040FFF781
:105AC800A7BE10BD930801002DE9F0470446904693
