:10000000A82F0020495A0000CFBE00001D5A000052
:100010001D5A00001D5A00001D5A00001D5A000004
:100020000000000000000000000000007557000004
:100030001D5A000000000000195700001D5A000062
:10004000F9570000F9570000F9570000F957000070
:10005000F9570000F9570000F9570000F957000060
:10006000F9570000F9570000F9570000F957000050
:10007000F9570000F9570000F9570000F957000040
:10008000F9570000F9570000F9570000F957000030
:10009000F9570000F9570000F9570000F957000020
:1000A000F9570000F9570000F9570000F957000010
:1000B000F9570000F9570000F9570000F957000000
:1000C000F9570000F9570000F9570000F9570000F0
:1000D000F9570000F9570000F9570000F9570000E0
:1000E000F9570000F9570000F9570000F9570000D0
:1000F000F9570000F9570000F9570000F9570000C0
:10010000F9570000F9570000F9570000F9570000AF
:10011000F9570000F9570000F9570000F95700009F
:10012000F9570000F9570000F9570000F95700008F
:10013000F9570000F9570000F9570000F95700007F
:10014000F9570000F9570000F9570000F95700006F
:04015000F95700005B
:04015400FFFFFFFFAB
:100158007BB972B90029BEBF00204FF0004106E00C
:1001680008BF00281CBF6FF000414FF0FF3000F0BF
:10017800BBB9ADF1080C6DE904CE002909DB002BF1
:100188001ADB00F04DF8DDF804E0DDE9022304B0E5
:100198007047404261EB4101002B1BDB00F040F847
:1001A800DDF804E0DDE9022304B0404261EB4101DF
:1001B800524263EB43037047524263EB430300F040
:1001C8002FF8DDF804E0DDE9022304B0404261EBDA
:1001D80041017047524263EB430300F021F8DDF818
:1001E80004E0DDE9022304B0524263EB43037047A5
:1001F80053B94AB9002908BF00281CBF4FF0FF3186
:100208004FF0FF3000F070B9ADF1080C6DE904CE85
:1002180000F006F8DDF804E0DDE9022304B07047D9
:100228002DE9F047089E0D4604468A46002B7FD1EB
:100238008A42174641D9B2FA82F24AB1C2F1200184
:1002480005FA02F39740944020FA01F141EA030AC3
:100258004FEA17484FEA144C1FFA87F9BAFBF8FE21
:1002680008FB1EA30EFB09F14CEA0343994206D989
:10027800FB1802D2994200F224810EF1FF3E591A6E
:10028800A3B2B1FBF8F008FB101100FB09F943EA2F
:100298000144A14505D93C1902D2A14500F20E81BD
:1002A8000138A4EB090440EA0E4000211EB1D440F5
:1002B8000023C6E90043BDE8F08702B9FFDEB2FAC1
:1002C80082F2002A4FD1CB1B4FEA174E1FFA87F84C
:1002D8000121250CB3FBFEFC0EFB1C302B4608FB52
:1002E8000CF945EA0045A9450AD97D192CBF012317
:1002F8000023A94502D9002B00F0D9800CF1FF3C5E
:10030800A5EB0905A3B2B5FBFEF00EFB105508FBE3
:1003180000F843EA0544A04505D93C1902D2A04596
:1003280000F2C9800138A4EB080440EA0C40BDE79C
:100338008B4208D9002E00F0B1800021C6E90005E3
:100348000846BDE8F087B3FA83F1002946D1AB42ED
:10035800C0F0A780824240F2A4800846002EAAD0AE
:10036800C6E9004AA7E7C2F12000974001FA02F364
:100378004FEA174EC14024FA00F51FFA87F8944057
:100388001D43B1FBFEF02B0C0EFB101100FB08FC0B
:1003980043EA01439C4509D9FB182CBF01210021E0
:1003A8009C4502D9002900F095800138A3EB0C0385
:1003B800ADB2B3FBFEF10EFB113301FB08FC45EABD
:1003C8000345AC4505D97D1902D2AC4500F28980B8
:1003D8000139A5EB0C0341EA00417AE7C1F1200499
:1003E8008B4002FA01F705FA01FCE24020FA04F812
:1003F800E54000FA01FE134348EA0C024FEA1348AD
:100408004FEA124C1FFA83F9B5FBF8FA08FB1A55A4
:100418000AFB09F04CEA054C60450AD913EB0C0CB1
:100428002CBF01250025604501D9002D55D00AF1C2
:10043800FF3AACEB000C92B2BCFBF8F008FB10CC16
:1004480000FB09F942EA0C4CE14505D913EB0C0C09
:1004580001D2E1453BD8013840EA0A40ACEB090C2F
:10046800A0FB0789CC4545464A4602D306D1C64576
:1004780004D20138B8EB070569EB03022EB3BEEBD3
:1004880005036CEB020C23FA01F20CFA04F42CFAC3
:1004980001F300211443C6E900430CE73146304616
:1004A80009E7841A65EB030301209A4656E7ACF185
:1004B800020C3D4424E702383C4434E702383C440B
:1004C800EFE6AEF1020E3B44D9E63146F3E60238D8
:1004D8009C44C1E702383B4468E7AAF1020A9C44FD
:1004E800A7E702393D4474E7704700BF00000000E9
:1004F80001282DE9F0470D4609D0042852D008F00C
:100508003DFA162303604FF0FF30BDE8F0874FF047
:100518002003EFF3118283F31288BFF36F8F264B0A
:10052800D3E90067D3F808A082F31188BFF36F8F6F
:100538000CF00AFCDFF88890C0F30E02A2FB092336
:10054800C00BD40B40EA414044EA43444FEAD33855
:10055800CB0BA0FB090109FB031115A3D3E9002369
:10056800241848EB010820464146FFF741FE10A336
:10057800D3E90023361847EBE07741462046C5E922
:100588000067FFF735FE0D4B52449A42AA6007D91F
:10059800711C47F10003C5E90013A2EB0902AA6028
:1005A8000020B2E74FF0000A00260027C0E700BF8E
:1005B80000CA9A3B00000000E8030020FFC99A3BEC
:1005C80000CA9A3B0000000001282DE9F0410F46BF
:1005D80007D008F0D3F9162303604FF0FF30BDE8C9
:1005E800F0810CF0B1FB224E3C687B68A4FB064509
:1005F80006FB0355BB68C20BE41842EA414245EBCF
:10060800E375A2FB0623C90BC0F30E0006FB0133FA
:10061800A0FB0667F00BA41A40EA474065EB030508
:10062800F90B241A65EB01054FF02003EFF311874E
:1006380083F31288BFF36F8F0BA3D3E900232046FF
:100648002946FFF785FD08A3D3E90023094EC6E92B
:10065800000120462946FFF77BFDB26087F3118829
:10066800BFF36F8F0020BAE700CA9A3B0000000072
:1006780000CA9A3BE8030020014809F0EEBE00BF1B
:1006880072DF00004FF4807307B504220193074B13
:100698000DEB02011B680648DB689847054809F01E
:1006A800DCFE002003B05DF804FB00BF88060020D4
:1006B800208C040084DF000070B504460821A14A9C
:1006C8000AF07FFE204608219F4AA04D0AF079FED5
:1006D800204608219E4A0AF074FE204608219D4AB9
:1006E8000AF06FFE2A46204608210AF06AFE2046D4
:1006F8000821994A0AF065FE20460821974A0AF01F
:1007080060FE2A46204608210AF05BFE944E2046E9
:100718000821944A0AF055FE20460821924A0AF018
:1007280050FE3246204608210AF04BFE2A46204653
:1007380008210AF046FE204608218C4A0AF041FEAC
:10074800204608218A4A0AF03CFE20460821894AA8
:100758000AF037FE20460821874A0AF032FE204672
:100768000821864A0AF02DFE3246204608210AF062
:1007780028FE2A46204608210AF023FE20460821A2
:100788007F4A0AF01EFE204608217E4A0AF019FE1A
:10079800204608217C4A0AF014FE204608217B4A9C
:1007A8000AF00FFE2A46204608210AF00AFE2046D3
:1007B8000821774A0AF005FE20460821754A0AF002
:1007C80000FE2A46204608210AF0FBFD20460821A3
:1007D800714A0AF0F6FD20460821704A0AF0F1FD38
:1007E8002A46204608210AF0ECFD204608216C4ADA
:1007F8000AF0E7FD204608216A4A0AF0E2FD2A4687
:10080800204608210AF0DDFD20460821664A0AF044
:10081800D8FD20460821654A0AF0D3FD2046082164
:10082800634A0AF0CEFD2A46204608210AF0C9FD8F
:10083800204608215F4A0AF0C4FD204608215E4A86
:100848000AF0BFFD2A46204608210AF0BAFD2046D4
:1008580008215A4A0AF0B5FD20460821584A0AF0EC
:10086800B0FD2A46204608210AF0ABFD20460821A3
:10087800544A0AF0A6FD20460821534A0AF0A1FD71
:100888002A46204608210AF09CFD204608214F4AA6
:100898000AF097FD204608214D4A0AF092FD2A46A3
:1008A800204608210AF08DFD20460821494A0AF011
:1008B80088FD20460821484A0AF083FD2A4620463A
:1008C80008210AF07EFD20460821444A0AF079FDF5
:1008D80020460821424A0AF074FD2A46204608218B
:1008E8000AF06FFD204608213E4A0AF06AFD2046BC
:1008F80008213D4A0AF065FD2A46204608210AF0EB
:1009080060FD20460821394A0AF05BFD204608218F
:10091800374A0AF056FD2A46204608210AF051FDBA
:1009280020460821334A0AF04CFD20460821324A65
:100938000AF047FD2A462046BDE8704008210AF023
:1009480040BD00BF96DF0000B0DF0000E4E8000013
:10095800CDDF0000F7DF000023E0000053E00000D7
:10096800EFE000008BE00000C0E0000023E10000A1
:100978007CE10000B9E1000009E200003FE200006C
:100988009CE20000F3E200002EE300007FE3000099
:10099800ACE30000C9E3000030E400004DE40000CF
:1009A800AAE40000CAE4000018E5000038E50000E9
:1009B800A1E50000D5E50000F3E5000020E6000011
:1009C8003AE6000069E6000085E60000B7E60000A8
:1009D800D6E6000038E7000058E700009AE7000074
:1009E800B4E70000D3E70000EDE700000CE80000E2
:1009F80024E8000052E800006BE8000008B5082170
:100A0800024B034A0AF0DDFC002008BD9FE8000005
:100A1800A3E8000073B504464B4D4C4E2A46082106
:100A28000AF0CFFC3246204608210AF0CAFC2046CC
:100A38000821474A0AF0C5FC32464FF48036204662
:100A480008210AF0BEFC434B2046CDE900360821B8
:100A58000023414A0AF0B5FC404B2046019600931A
:100A680008214FF480233E4A0AF0ABFC4FF444427D
:100A78003C4B2046CDE9003208214FF440233A4A46
:100A88000AF09FFC4FF412234FF490412046CDE921
:100A98000031364A4FF4002308210AF092FC4FF443
:100AA8009A134FF450400821CDE90030304A2046CF
:100AB8004FF480130AF085FC4FF440564FF4A61308
:100AC8002046CDE9003608214FF4A013294A0AF040
:100AD80078FC4FF4804C4FF4C8132046CDE9003C15
:100AE80008214FF4C013244A0AF06BFC4FF4C33EAC
:100AF800224B2046CDE9003E08214FF40013204A3E
:100B08000AF05FFC4FF429134FF410422046CDE958
:100B1800003208214FF420131A4A0AF052FC4FF40D
:100B28004E134FF460412046CDE90031164A4FF488
:100B3800401308210AF045FC20462A4608210AF0FD
:100B480040FC002002B070BDBAE80000E8E80000F0
:100B580016E90000FFFF030044E90000FFFF07005B
:100B680072E90000FF0F0F00A0E90000CEE90000C5
:100B7800FCE900002AEA000058EA000000182600F4
:100B880086EA0000B4EA0000E2EA000038B504464C
:100B9800084D00221F21286809F01CFB00220C21A7
:100BA800286809F017FB20460821034A0AF009FCC7
:100BB800002038BD7806002010EB000008B5024878
:100BC80000F076FD002008BD4800002008B5024866
:100BD80000F08EFD002008BD4800002013460022CA
:100BE80010B5114658680BF016FAC4B221460448ED
:100BF80000F0ACFD2146034809F02FFC002010BD91
:100C08004800002026EB000010B5094C01212046C1
:100C180000F09CFD074809F020FC204600F048FD44
:100C2800054809F01AFC204600F062FD002010BDBE
:100C3800480000203DEB00005BEB000010B501F020
:100C48009BF9044601F0C4F9044B186083682046F8
:100C58009847034809F001FC002010BD88060020D1
:100C6800A1EB00000D4B10B553F83240844213D865
:100C780003EBC2035B6883420ED38C420CD88B42D1
:100C88000AD3022A08BF00214FF0010004BF044B19
:100C98001970044B1A6010BD0020FCE7ACD70000A7
:100CA800A42100208C06002010B50A4C01220C213A
:100CB800206809F08FFA0021A42008F013FD012212
:100CC8001F21206809F086FA034809F0C6FB0020B6
:100CD80010BD00BF78060020B6EB000038B52248EA
:100CE80007F020FE214C206010B94FF0FF3038BDCE
:100CF8004FF440720C2109F060FA0028F5DB2068F7
:100D08004FF400721F2109F058FA0028EDDB206823
:100D18001721174A09F051FA0028E6DB2068026912
:100D2800836812689D6912F4000F14BF4FF40033F2
:100D38004FF480234FF4A0321721A8470028D4DBB2
:100D48000C490D4B20684B604FF400038B6083689F
:100D5800DB690BB101229847084809F07EFB084877
:100D680009F07BFB0020C2E7CCEB000078060020EE
:100D780000C105007C06002081060000D3EB0000BE
:100D8800EFEB000038B5344C344D204609F065FBD4
:100D9800284609F062FB324809F05FFB284609F053
:100DA8005CFB4FF6FF7300212E4A2F4809F055FBD4
:100DB8004FF6FF734FF480212C4A2D4809F04DFB64
:100DC8004CF2FF334FF440212A4A2B4809F045FBE7
:100DD8004FF490434FF412224FF40021274809F0B2
:100DE8003CFB4FF450434FF49A124FF480112448BF
:100DF80009F033FB4FF440534FF4A6124FF4A011FF
:100E0800204809F02AFB4FF480434FF4C8124FF4EE
:100E1800C0111D4809F021FB4FF4C3334FF40011F2
:100E28001A4A1B4809F019FB4FF410434FF42912D2
:100E38004FF42011174809F010FB4FF4604316488F
:100E48004FF44E124FF4401109F007FB2046BDE85D
:100E5800384009F002BB00BFBAE80000E8E800002B
:100E680016E90000FFFF030044E90000FFFF070048
:100E780072E90000FF0F0F00A0E90000CEE90000B2
:100E8800FCE900002AEA000058EA000000182600E1
:100E980086EA0000B4EA0000E2EA0000F8B501259D
:100EA8004F1E244B07440022394606461D70FFF7A3
:100EB800D9FE2A46044639463046FFF7D3FE0222B9
:100EC800394604433046FFF7CDFE03223946044332
:100ED8003046FFF7C7FE0422394604433046FFF781
:100EE800C1FE0522394604433046FFF7BBFE062201
:100EF800394604433046FFF7B5FE07223946044316
:100F08003046FFF7AFFE0822394604433046FFF764
:100F1800A9FE0922044339463046FFF7A3FE0443DD
:100F280006D1054809F099FAFFF72CFF2046F8BDCD
:100F38002C46FBE7A42100200CEC00002DE9F74F1C
:100F4800144600228046114660680BF064F80022BF
:100F580007461146A0680BF05EF80022814611464C
:100F6800E0680BF058F800220090114620690BF059
:100F780052F8044681003846FFF790FF00285ED0FB
:100F8800364B1B68042B01D0072B04D1082140469F
:100F9800334A0AF016FA4FF4FA500CF07BF805467B
:100FA8004FF4FA500CF076F84FF4FA630646009ABC
:100FB800DFF8BCB053430193002C0EDC0821294A0A
:100FC80040460AF0FEF930460CF05DF828460CF071
:100FD8005AF8002003B0BDE8F08FB4F5FA6F234645
:100FE800A8BF4FF4FA63294648464FEA830A05EB3F
:100FF8008303994226D1DBF800305246DB68294644
:1010080038469847184B1B780BB3DBF800305B6900
:1010180052463146384698475246314628460BF0E4
:10102800E9F8019B9944B0B1082140460F4A0AF0FB
:10103800C8F930460CF027F828460CF024F84FF091
:10104800FF30C7E7009A41F8040B1044D1E7DBF8FA
:1010580000301B69DCE7A4F5FA64ADE78C060020D4
:101068004AEC00007FEC0000A42100206FEC000097
:10107800880600202DE9F0411446002280461146DA
:1010880060680AF0C8FF002206461146A0680AF008
:10109800C2FF8500074629463046FFF7FFFE20B30A
:1010A800134B1B68042B01D0072B04D108214046A1
:1010B800104A0AF086F928460BF0ECFF04463A4637
:1010C8000146304600F098FD26460B4F2544AE42B7
:1010D80005D120460BF0D7FF0020BDE8F081384647
:1010E80056F8041B09F0B9F9F1E74FF0FF30F4E7BF
:1010F8008C0600204AEC00008FEC000037B5134640
:1011080000220546114658680AF085FF0121044669
:10111800FFF7C4FEA8B10C4A0C4B12781B6872B1D9
:101128005B69042220460DEB0201984728460821F6
:10113800019B074A0AF045F9002003B030BD1B693E
:10114800EFE74FF0FF30F8E7A421002088060020E1
:1011580097EC000073B515460022064611466868EC
:101168000AF059FF002204461146A8680AF053FF06
:10117800012101902046FFF791FEA8B10C4B1B6896
:10118800042B01D0072B04D108213046094A0AF064
:1011980018F90422084B20461B680DEB0201DB6896
:1011A8009847002002B070BD4FF0FF30FAE700BF4B
:1011B8008C0600204AEC0000880600202DE9F04F3C
:1011C8001646002285B01146054670680AF023FFCE
:1011D800002204461146B0680AF01DFFB0F5FA6F08
:1011E800074607D9082128462F4A0AF0EAF84FF09F
:1011F800FF3024E04FEA800841462046FFF74EFEC4
:101208000028F4D040460BF045FF284B06461A78D4
:10121800274B1B68B2B15B69424620463146984766
:1012280034464FF00008DFF89090DFF890A0DFF820
:1012380090B0B84508D330460BF025FF002005B024
:10124800BDE8F08F1B69E7E7A7EB0802022A2368CD
:101258000CD0032A12D0012A1AD108212846154A8F
:101268000AF0AFF808F104081034E2E762680821D0
:10127800009228464A460AF0A4F8F3E7A268082133
:10128800019262682846009252460AF09AF8E9E705
:10129800E26808210292A2682846019262680092D8
:1012A8005A460AF08EF8DDE7A0EC0000A4210020E1
:1012B80088060020F2EC0000EDEC0000E8EC0000ED
:1012C800E3EC00002DE9F0411446002205461146E2
:1012D80060680AF0A0FE002207461146A0680AF0DE
:1012E8009AFE002206461146E0680AF094FE0022A3
:1012F8008046114620690AF08EFEB0F5FA6F07D9CC
:1013080008212846184A0AF05CF84FF0FF3024E01C
:10131800840021463846FFF7C1FD0028F5D0134B5D
:101328001B68042B01D0072B04D108212846104A3A
:101338000AF047F820460BF0ADFE05460346221892
:1013480093420CD10B4B22461B682946DB68384672
:10135800984728460BF097FE0020BDE8F08143F837
:10136800046B4644ECE700BFA0EC00008C060020AC
:101378004AEC00008806002008B5044809F06DF81A
:10138800BDE808400249034809F067B8F8EC0000D6
:101398009FE800004FED0000084B1B685B7B5BB1CA
:1013A800074B984208D1074B4FF0FF3218694FF0AE
:1013B800FF33303008F041BF704700BFB00600204F
:1013C8000000AD0B4800002038B9044B1B685B7B5C
:1013D8001BB101F1300007F04BBE7047B00600208A
:1013E80073B54C68054694B3D4E90043886880B364
:1013F800D0E9006070B36BB398422ED10133092B4A
:101408002BD88DF8013040F20113ADF802300023DB
:10141800097828468DF800108DF804308DF80520DD
:1014280008F00DFF21463246684606F0D3FF044611
:101438002869183007F01CFE04F1744000F5A60076
:101448000A280DD8084B33F9100002B070BD2346A6
:10145800CCE7064601330344D1E76FF01500F4E703
:101468006FF00F00F1E700BF5CDF00007FB5FF23DE
:101478008DF803300DF10303002201930123CDE918
:101488000232052303A98DF80C30064801AB0492FB
:101498000593FFF7A5FF0028A8BF9DF8030007B034
:1014A8005DF804FB480000202DE9F04100240746C0
:1014B8000D460C4EDFF83880C6F808260A4A116037
:1014C8005460AC4202D30948BDE8F081D6F804362E
:1014D800DB07FBD53819042241460AF0B2FE043472
:1014E800EFE700BF00B002500CB602500000AD0B91
:1014F80018B602502DE9F0410D4E0C46C6F80826E4
:101508000C4A0746116001210025DFF83080516040
:10151800A54202D30848BDE8F08104224046791963
:101528000AF08FFED6F804369B07FBD50435EFE7A3
:1015380000B002500CB602500000AD0B18B60250B5
:10154800034B1B685B7B0BB9FFF7AEBF0BF0E3B92E
:10155800B00600202DE9F74F064614468846424853
:1015680008F06DFE734203F0030306F0030558BF4D
:101578005D426D4205F00305A54228BF2546D8F116
:10158800000303F0030308F0030A58BFC3F1000A7D
:10159800CAF1000A0AF0030AA24528BFA246631B43
:1015A800A4EB0A0424F0030423F00307A742C8BFEE
:1015B800274603F00309C8BFA3EB0409A7B108EB4A
:1015C8000A0B394672195846FFF7BAFF0446FFF767
:1015D800E3FE264B9C4231D1554505D03A46594643
:1015E80008EB05000AF016FE9DB1C5F1040A0421B6
:1015F800A6EB0A026846FFF7A3FF0446FFF7CCFEF6
:101608001A4B9C421AD12A4640460DEB0A010AF0B1
:1016180018FEB9F1000F24D0721908213A4468461F
:10162800FFF78EFF0446FFF7B7FE104B9C4205D12B
:1016380078194A46694640440AF003FE0A4B18697D
:10164800183004F1744407F013FD04F5A6040A2CBD
:101658008EBF6FF00F00064B33F9140003B0BDE8DE
:10166800F08F024CEAE700BF480000200000AD0BF5
:101678005CDF0000034B1B685B7B0BB9FFF73ABFCD
:101688000BF046B9B006002008B506F0BBFD054BC7
:10169800054A1B68D2F840161B7B04480B43C2F866
:1016A800403608BDB006002000B002500000AD0B67
:1016B80010B586B00DF10303002201930123CDE993
:1016C80002322F2303A98DF80C3001AB8DF80320CB
:1016D80004920593FFF784FE04469DF8031003481F
:1016E80008F0BBFE204606B010BD00BFD9F00000D0
:1016F8007FB50DF10303002201930123CDE90232E6
:101708001F2303A98DF80C3001AB8DF80320049238
:101718000593FFF765FE011E9DF80320094801DBCC
:10172800022A09D008F099FE2120002107F0DAFFEB
:10173800002007B05DF804FB08F08FFE024808F0AF
:101748008CFEF5E7E7F0000005F1000010B588B061
:101758000DF10703002203930123CDE904323F234F
:101768008DF807108DF8143005A903AB079206937E
:10177800FFF736FE041E03DA2146034808F06DFE23
:10178800204608B010BD00BF16F100006023426873
:10179800F0B5B3FBF2F3534F013B3860C370C37B22
:1017A8000024002B14BF04230023437014BF032319
:1017B800234683704FF050232246012187B0C3F897
:1017C800B84505462B2003F051FF474E474B346080
:1017D800736041F20F0333813B6830461A784449FD
:1017E80032735A78B2729A78F272DB7874737374BF
:1017F800404BF4811A693474FFF746FF00F17440D6
:1018080000F5A6000A2869D83B4B33F9104024B9E3
:10181800FFF72CFE002830DA04463868143001221D
:1018280011460BF049F9AB7C0BBB2B7C1BB105F1C6
:10183800340006F011FE6B7CABB105F148030022C1
:1018480001930423CDE902324F2303A98DF80C300C
:10185800284801AB05920493FFF7C2FD011E02DA86
:10186800264808F0FAFD2B7C0BB10123AB74244801
:1018780008F0F3FD204607B0F0BDF37AC0B2023B92
:10188800012B29D9B37A033B012B8CBF00230123F9
:10189800C0F380129342C0D00DF1030301220193DB
:1018A800002380F04000CDE9022305938DF8030062
:1018B80001AB104803A98DF80C200493FFF790FDA5
:1018C80004460028A9D1FFF7D1FD041E01DBE30778
:1018D800F9D404EAE474A0E70123D9E76FF00F0410
:1018E8009BE700BFB00600209006002011120D0EE5
:1018F800D1130000480000205CDF000030F1000038
:101908004AF100000B4B10B51B681B7C8BB10A4CCD
:10191800236803B13AB1094A136801331360084ACE
:10192800C2F8983502E004339842F4D101440439EE
:10193800216010BDB0060020AC060020A8060020DB
:1019480000B002507FB50B4643EA000602F00305DB
:101958003243920700F0030103F0030410D0003D66
:1019680018BF0125003C18BF0124003918BF012108
:1019780002460091034804490295019408F06DFD60
:1019880004B070BD5DF10000FBF100002DE9F043EB
:101998000546904689464B4E85B0FFF7D3FF306821
:1019A8004FF0FF32C36A14301D434FF0FF3308F085
:1019B80044FC002241462846FFF7A4FFB9F1000F76
:1019C8007AD0B8F1000F77D0B8F1040F02D918F027
:1019D800030F71D115F003046ED13B4F4FF0FF3266
:1019E8004FF0FF33386908F028FC062322463846B2
:1019F80001A9CDE9014403948DF80430FFF7F0FC08
:101A080000280CBF04466FF00404384608F017FCA1
:101A1800E4B9B8F1030F44D804212A460DEB0100BC
:101A2800FFF78EFD0446FFF7B7FC284B9C420DD10B
:101A38004246494601A80AF004FC04212A460DEB57
:101A48000100FFF717FE0446FFF7A6FC38691830B7
:101A580007F00EFB042300220DEB03011A48CDE921
:101A6800012203928DF80430FFF7BAFC051E18BF57
:101A78006FF004053869002C08BF2C4604F1744443
:101A880004F5A60407F0F4FA0A2C18D8104B33F919
:101A980014403068143007F0EBFA204605B0BDE872
:101AA800F08309F06043B3F1005F03D12A46414651
:101AB8004846C6E7074CC9E76FF01504E9E76FF039
:101AC8000F04E6E7B0060020480000200000AD0B38
:101AD8005CDF00000A00AD0BF8B5054614460F465A
:101AE800104EFFF72FFF30684FF0FF32C36A1430F3
:101AF8001D434FF0FF3308F0A0FB00222146284683
:101B0800FFF700FF5FB124B122463946FFF722FDF7
:101B180004463068143007F0ABFA2046F8BD6FF081
:101B28001504F6E7B00600202DE9F0474FF0040A47
:101B3800DFF880808146D8F800300E4693F83050A0
:101B480015FB0AF71AFB05A528460BF0A3FA04466D
:101B580050B940F2C5521549154808F07EFC6FF09F
:101B68000B052846BDE8F0872A4600210AF074FBD9
:101B7800D8F800004FF0FF334FF0FF32143008F070
:101B88005CFB514648460122FFF7BCFE2A46214627
:101B9800FFF7E0FC0546D8F80000143007F068FAB3
:101BA800E359204633600BF06EFADAE70BF20000D7
:101BB80084F10000B006002010B586B00DF10303D3
:101BC800002201930123CDE902323F2303A98DF8B6
:101BD8000C3001AB8DF8032005920493FFF700FC4D
:101BE800041E03DA2146034808F037FC204606B0F5
:101BF80010BD00BF9EF10000F8B5174605460E4619
:101C08000E4C01212046FFF7A1FD0D4808F025FCE8
:101C18002046FFF74DFD0B4808F01FFC2046FFF754
:101C280067FD094808F019FC31462846BA00FFF755
:101C380053FF2046BDE8F840FFF7BEBF480000202C
:101C4800BAF100005BEB0000D4F1000038B504469F
:101C5800002201210A2003F009FD2369084ADC65F6
:101C6800606800F1100106F09FFC064B98420CBF1B
:101C780000256FF00F05206908F037FB284638BDAE
:101C880037A300000000AD0BF0B5056985B02B6DDA
:101C9800AC6D7BB99CB900222846114608F000FBC0
:101CA800AC6305F1200007F0E3F9002385F8643000
:101CB80005B0F0BD002C35D09C4228BF1C46E96C0D
:101CC800466879B173B101F06043B3F1005F09D0A0
:101CD800082C28BF082405F16507224638460AF073
:101CE800B0FA3946B268EB6C944228BF14460091AA
:101CF8002C661BB12B6D002B18BF234601936B6D0F
:101D080002931BB1AB6D002B18BF23460022694616
:101D18003046039306F01CFD034B9842C8D06FF081
:101D28000404B8E71C46CAE70000AD0B2DE9F84FDC
:101D38001D468B888846990407461646046904D5CB
:101D4800236913B96368984509D04FF0FF324FF003
:101D5800FF3304F1080008F0A1FAC4F804803A69D6
:101D68001368984571D0B8F8043013F0090F40F0A3
:101D7800CB80C3F34513082B40F0C680D8F8001079
:101D8800634B994240F2C080D8F80830D7F80490E5
:101D9800C2F8008003B31868F0B119795B794FF085
:101DA800010BD0F810E0DA0754BF43F4B05383F4C2
:101DB800D053DEF800C023F48052D0F808A0DB0727
:101DC8000BFA01FB4CBF4BEA0C032CEA0B03CEF8D1
:101DD8000030DAF800309847B8F80410D9F8002035
:101DE800880701F0040366D5002B14BF03230223E0
:101DF800022BC1F3001162D0032B63D0012B01D158
:101E080041F00201434BC2F854151B689968424BD4
:101E180099425AD9414B99425AD9414B99425AD978
:101E2800404B99425AD9404B99425AD93F4B994213
:101E38005AD33F4B99425AD33E4B994234BF4FF045
:101E480020614FF0A051C2F82415012384F86430B2
:101E5800002E4FD033687268E36322641A685B68A7
:101E6800E2642365002D4AD02B686A686364A26423
:101E78001A685B686265A36500220121A263204697
:101E880008F00EFA3846FFF7FFFE4FF0FF324FF02A
:101E9800FF3304F1200008F001FAA56B23689B8842
:101EA80013F4005304D1636004F1080007F0E0F86C
:101EB8002846BDE8F88F003B18BF012398E741F09A
:101EC80004019FE741F006019CE74FF00071BAE773
:101ED8004FF08061B7E74FF00061B4E74FF08051F1
:101EE800B1E74FF00051AEE74FF08041ABE74FF05C
:101EF8000041A8E7C4E90F66C4E91366B2E7C4E97C
:101F08001155C4E91555B7E76FF01505C6E700BFC9
:101F180047E80100B40600208FD003001FA1070086
:101F28003F420F007F841E00FF083D0000127A0028
:101F38000024F4000048E801D0B50E4806F0F2FC91
:101F480004464FF4B0520C2108F02BFA4FF48046A7
:101F580000273046394607F0C5FB4FF4D0520C2114
:101F6800204608F01EFA30463946BDE8D04007F052
:101F7800B9BB00BFCCEB000070B5124C7422002135
:101F880020460AF069F94FF4D073A3814FF4000397
:101F9800E36208230025012663600B4B1022FF2112
:101FA80004F13400C4E914532570256784F83050CF
:101FB800E67325820AF050F9044B2046C4E911352E
:101FC800E66470BDB806002039F2000048161816FD
:101FD80000487047D00000200B6801330B60014BAC
:101FE8001B681847EC000020014B1860704700BFC1
:101FF800EC00002007B50B4600210246019103487A
:1020080001A900F079F903B05DF804FBE11F0000B5
:1020180030B5002585B0CDE90101044601A9054880
:10202800039500F069F9DDE902309842B8BF2554FC
:1020380005B030BD3DA400002DE9F84FB0F8189068
:10204800044619F0080893460DD001290CBF49F041
:10205800100949F02009A0F818908BF31188BFF3F4
:102068006F8FBDE8F88F09F00709022907D12046CC
:1020780008F00DFA0028F0D00128238B50D16769A9
:10208800218B002F15DA256821F00701C4E90088A3
:1020980041F0010121830026218B01F0070ACA457E
:1020A80002D0A368002B5CD10DB9002E74D0002398
:1020B80058E001F007035A1F012A20D821F0070130
:1020C800062B256889B2C4E900880CD1002D2B465F
:1020D80038BF00232BB1628B1B6801326283002B4F
:1020E800F8D141F002012046218308F0D0F90646D4
:1020F8000028D1D0238B43F020032383CBE7042B84
:102108000CD121F0070189B22046218308F0BFF9DC
:1021180005460028BFD041F0200121830025BAE7F9
:10212800032809D1226923F00703166843F0060340
:10213800002523832F46AFE7042806D1226923F020
:102148000703566843F00403F2E7052806D122691D
:1021580023F00703966843F00503E9E700252E46B8
:10216800E8E7012341F0080121838BF31188BFF3CD
:102178006F8F03BB002D33D116B120462049B047DD
:102188004FF02003EFF3118B83F31288BFF36F8FA7
:10219800238B23F008032383238BDA0628D5012118
:1021A80023F010032383B4F8189009F007090029D5
:1021B8007FF45BAF51E7A1680029DBD00B68002BE7
:1021C80038BF0023994652463B462046D1F804B012
:1021D800D847B9F1000FCDD04946D9F80030EEE71D
:1021E80029463B46524620462D6808F06CF9C1E75F
:1021F80013F020011EBF23F0200302212383D2E71E
:10220800FBA400002DE9F047C468002504F1FF3A5B
:1022180040F26C7443690769E41807F1010745EB5C
:10222800E375022F8CBF00230123E41A65F1000532
:10223800002C75F1000306464FDA6FF4C7704FF4AF
:10224800C8720023201845F1FF31FDF781FF264BA6
:10225800022F03FB0044D6E9005398464FEAE3797E
:10226800B3684FF03C06C6FB0389A8FB062306FBB0
:1022780009338CBF6FF0020C4FF0090C521943EB75
:10228800E57340F26D15A60805FB0465AA446425AC
:10229800B4FBF5F4AAEB04044FF0990A67440AFB6F
:1022A80007FA05270AF1020ABAFBF7FA0F4D544458
:1022B800A0FB056705FB017736190D4C0D4947F161
:1022C80000073419A4FB014547F1FF3001FB005515
:1022D800A01845EB0301BDE8F0874FF4C87200234E
:1022E80020462946B1E700BF70FEFFFFB13A020061
:1022F8009405F5FF805101002DE9F04F884691467D
:102308001C460025A5B0039099F8000010B928468E
:1023180000F018BE09F101032528099307D04146AA
:10232800039B98470028C0F20D86013545E2182224
:10233800002116A809F090FF99F80130252B79D0D3
:10234800002216469646174694460998014610F804
:10235800013B2B2B00F09E8000F29580202B00F093
:102368009B80232B00F09B80BCF1000F05D09DF8CB
:10237800600040F004008DF860002FB19DF8600007
:1023880040F008008DF86000BEF1000F05D09DF800
:10239800600040F010008DF860002EB19DF86000DC
:1023A80040F020008DF860002AB19DF8602042F0CE
:1023B80040028DF860209DF8602002F04400442817
:1023C80003D16FF386128DF860209DF860202A2BC8
:1023D80042F080028DF860207CD19DF861204B1C72
:1023E80042F001028DF861201A782E2A0CBF0121D3
:1023F80000219DF8612061F341028DF8612075D1BB
:102408005A782A2A6BD000210A260133184610F878
:10241800012BA2F13007092F40F2AA809DF8602015
:102428001A91C2F3400040EAD17161F341028DF87C
:1024380060205BE009F1020209928DF863309DF893
:102448006130DE0740F16F8154F8042B002A0892AE
:1024580008DA9DF8602042F004028DF86020089A9E
:1024680052420892580740F1668154F8047B002FC5
:1024780080F265819DF861306FF341038DF861301A
:102488004FF0FF375BE12D2B0BD0302B7FF46CAF77
:1024980001225BE7012759E74FF0010E56E70126B5
:1024A80054E74FF0010C51E733460CFB0202303A77
:1024B8001E4616F8010BA0F13007092FF4D99942EE
:1024C80092D09DF860101992D20F62F341018DF8F5
:1024D800601089E70B4600224FF00A0CE8E79DF8E8
:1024E8006120023342F004028DF86120194611F888
:1024F800012B6C2A5CD040D8682A46D06A2A61D061
:102508004C2A67D019460B4613F8012B782A0993F1
:102518008DF8632000F2DF80572A68D8412A04D05A
:10252800A2F14503022B00F2D68004219DF8623007
:1025380002F0DF02A2F1410A61F30203DAF10002BC
:102548009DF8611042EB0A0262F3C7110A068DF882
:1025580062308DF86110CBB200F1E38003F07802AD
:10256800182A40F0B5806FF3C6038DF861309CE0FF
:1025780006FB01210346303948E7742A26D07A2A17
:10258800C0D106229DF861300DE05A78682A9DF87E
:10259800612006D1012161F3C6028DF86120991CE2
:1025A800B1E71346022262F3C6038DF86130AAE749
:1025B8005A786C2A9DF8612001D10421EBE7134673
:1025C8000322F0E705229DF86130ECE707229DF829
:1025D8006130E8E7BDF8603023F4F04323F00203EC
:1025E80043F4804343F00203ADF860308BE7A2F177
:1025F8005803202B6FD801A151F823F0B72600000B
:10260800DF260000DF260000DF260000DF260000AE
:10261800DF260000DF260000DF260000DF2600009E
:1026280033250000DF260000B726000089260000B9
:10263800332500003325000033250000DF26000085
:1026480089260000DF260000DF260000DF260000C4
:10265800DF260000ED260000B72600000D27000049
:10266800DF260000DF2600000D270000DF2600001F
:10267800B7260000DF260000DF260000B72600008E
:1026880001219DF8623061F302038DF862309DF8F4
:10269800613003F07803402B02BF9DF8601041F0D1
:1026A80001018DF86010632A05D0002306E002219D
:1026B8009DF86230E7E7003B18BF01239DF86020D2
:1026C800C2F340010B4363F341028DF86020B6E684
:1026D80013F0380FE9D09DF8603043F001038DF80E
:1026E8006030E2E703229DF8623062F302038DF85E
:1026F80062309DF8613003F07803A3F140077B4214
:102708007B41DBE703229DF8623062F302038DF818
:1027180062309DF8613013F0780F14BF0123002355
:10272800CCE70123CAE79DF96020002AACBF4FF02F
:10273800FF32199A95E699077FF5A2AE1A9F0023F2
:10274800CDE919339DF8623003F00703042B09D152
:102758009DF861309A0705D49DF96130002BB4BF0C
:102768000D2706279DF862309DF8611003F00703D6
:10277800012BC1F3C30136D1CB1E042B20D8DFE8CF
:1027880003F00307071F1F0054F8042BD31704E0B6
:10279800073424F00704F4E80223CDE916239DF852
:1027A8006060B30755D04A464146099B039808F034
:1027B80061FA0028C0F2C6830544DDF82490A3E539
:1027C80054F8042B01294FEAE273CDE9162305D109
:1027D8009DF85830169300231793E0E70229DED1BD
:1027E800BDF95820D2E7022B23D1CB1E042B13D8D6
:1027F800DFE803F0030A0A12120000232268201DF2
:10280800169217930446CAE7073424F00700F0E845
:102818000223CDE91623F5E754F8043B0129169362
:102828004FF000031793D3D00229B8D1BDF8583020
:10283800D0E7042B07D1073424F00704F4E8022377
:10284800CDE91623ABE7032B04BF54F8043B1693DA
:10285800A5E79DF86390B9F1780FAED8B9F1570F95
:1028680000F2A780B9F1250F00F0EE80B9F1240F2E
:10287800A3D9B9F1410F03D0A9F14503022B9CD884
:10288800DDE91623002A73F10001C0F2D581310772
:1028980000F1D48116F0100618BF2026C3F30A5B96
:1028A800C3F3130306920793DDE90623CDE9122348
:1028B800BBF1000F40F0C481DDE90632134314BFB9
:1028C8004FF0010C4FF0000C58460799B9F1460F2C
:1028D8004FEAC123069908BF4FF06609CA0243EAC6
:1028E80051534BEA02010C91C11719430D91DDE9CF
:1028F8000C010143CDE9122300F01582BCF1000F51
:1029080040F0D581129B05210493139BABF2FE3B4B
:1029180043F000430593DDE90423CDE912230023A6
:102928001A461BF1020FC0F2CB811BB1DDE904018D
:10293800CDE91201DDE91231BBF1000F00F3DB81B3
:102948001399129BCBF104000BF11C0B01FA0BFB42
:10295800A0F1200CC34021FA0CFC43EA0B0343EA24
:102968000C03C140CDE9123109F0DF03472B40F0D9
:10297800E181D01C02DB974280F2D881A9F10209DB
:10298800002F5FFA89F900DD013F9DF86030990654
:1029980000F1D081002FD4BF00230123B9F1660FC5
:1029A8000E9340F0C981BB1840F1C7814FF0000A6F
:1029B800C7E1A9F15803202B3FF6FFAE01A252F858
:1029C80023F000BFE12B0000C3270000C32700004D
:1029D800C3270000C3270000C3270000C327000047
:1029E800C3270000C327000089280000C327000070
:1029F8007D2A0000812B000089280000892800001A
:102A080089280000C3270000812B0000C32700008D
:102A1800C3270000C3270000C3270000172C0000AD
:102A2800E12B0000E52B0000C3270000C3270000AE
:102A3800572A0000C3270000E12B0000C32700002D
:102A4800C3270000E12B00004146484668E4002FF8
:102A5800DDF858900ADB3946484609F0A7FB0026FE
:102A680009EB000AB9F1000F0CD1A6E6484609F0B7
:102A780096FBF4E70026169B0DF1750A8DF8743065
:102A88000DF17409AAEB090206B101329DF8620042
:102A9800C30640F14C820232199940060A44089B49
:102AA80044BF1A995218002B25DD9B1A9DF8602007
:102AB8005107C2F3800B00F14C82570640F1458262
:102AC800002E00F04482089341463046039B984705
:102AD8000028C0F237825E463027089B01350893EC
:102AE80003EB050B089BABEB0305002B03F1FF334E
:102AF800089300F320823EB141463046039B984735
:102B08000028C0F21F8201359DF86220560640F168
:102B18007E829DF96120002AC0F21D82A5EB09057D
:102B280099F800004F46A0F13002092A05EB090B7D
:102B380009F1010940F23F829DF86220199E900632
:102B480008D406EB0B09002EA9EB060B06F1FF369D
:102B580000F3388238782E280BD14146039B9847DA
:102B68000028C0F2EF81002E0BF1010B00F3328236
:102B78000137ABEB070B38E230072BD416F0100601
:102B880018BF2026DDE91623002A73F1000105DAB3
:102B98002D26524263EB4303CDE91623DDE91601E6
:102BA8000DF18D03009318AA1DAB08F018F88146A3
:102BB800002F0DF18D030BDB9DF86010A3EB0902CC
:102BC8006FF3861197428DF8601001D9BF1A1997D3
:102BD8009A4647E72B26D5E70026DFE71698002810
:102BE80000F09F810DF18D03009300211DAB18AA01
:102BF80007F0F5FFBDF86230814603F0EF0343F4B8
:102C0800F04343F010030026ADF86230D0E7169B7E
:102C180007293FF6D2ADDFE801F00D04060D0808DC
:102C28000D0D1D70C9E51D80C7E52846E917C3E9E4
:102C38000001C2E51D60C0E52D262FE62B262DE6F6
:102C480040F2FF739B452DD1DDE906231343A9F11B
:102C5800410918D1B9F1190F95BF44F6496346F6F1
:102C68006963ADF87430ADF8743094BF46236623B9
:102C78008DF876309DF860300DF1770A6FF3861382
:102C88008DF86030FCE6B9F1190F95BF44F24E1388
:102C980046F26E13ADF87430ADF8743094BF4E231D
:102CA8006E23E5E74FF0000C0EE60BF1FF3B9218A0
:102CB8005B41002A73F10001F7DACDE9122321E61E
:102CC800049B05985B0843EAC0734008B0F1333FA2
:102CD800DC46CDE904300BF1010BF1D2A3FB01ABCB
:102CE8004843CDE904AB059B0CF1020BC3180593CF
:102CF800013A012315E6023341F1000112A8CDE99A
:102D080012310E9207F035FFDDE912010E9A0BF130
:102D1800FF3B013200184941002871F100030BF113
:102D2800FF3BF7DA04E60022934609E64FF066090E
:102D3800BF1A2AE6002331E67B1C102BA8BF1023FC
:102D48009A461021002011914FF00061CDE914013D
:102D5800DDE914100AF1FF3ABAF1FF3F1FD1129BC7
:102D6800CB180A93139B6FF0704140EB03034FF0AD
:102D7800FF300B93DDE90AAB594508BF50451AD31C
:102D880050465946CDE91201B9F1660F53D1002AD0
:102D980020DC30230DF1750A8DF874302BE04908DA
:102DA80041EAC0714008CDE9141014A80F9207F049
:102DB800E0FE0F9ACCE70A9B0F920B9A5B0843EA56
:102DC800C273510812A8CDE9123107F0D2FE0F9A4A
:102DD8000132D9E70DF1740A1199002909DD11A909
:102DE80012A80F9207F0E4FE0F9A0AF8010B013AB5
:102DF800F2D1199200229DF86010880601D4002FA4
:102E08003FDD53462E2103F8011B92B1002F76DDDA
:102E18005142B942A8BF394600291991A7EB0107C9
:102E2800D4BF002101219DF8620061F345108DF89F
:102E380062009A4620E011A912A80F9207F0B8FE86
:102E48000F9A9DF86030302818BF02F1FF329906BA
:102E58008DF8740001D4002F53DD2E238DF87530C2
:102E68000DF17603E5E711A912A80F9207F0A0FE6D
:102E78000F9A0AF8010B013F002F02DD1199002972
:102E8800F1DC0E9B002B3FD11A9709F0DF01452991
:102E980023D1002AB4BF2D212B215046B8BF52425E
:102EA800632A00F8029B8AF801100ADD6427B2FB46
:102EB800F7F107FB112201F1300C0AF103008AF83F
:102EC80002C00A27B2FBF7F1824607FB112201F183
:102ED800300C30320AF802CB4270199A002A1EDCF4
:102EE8001A9A002AD4BF002201229DF8621062F3C8
:102EF800861100228DF862108AF80020C0E59A46F3
:102F0800BFE70DF1750ABCE700211A9150461AF87F
:102F1800011D3029FAD02E2918BF8246B5E70122B3
:102F2800E3E7DFF83CA10646AAF10509AAE5070789
:102F380048BF0132B0E541463846039B9847002810
:102F4800BFF6D0AD25B0BDE8F08F2027C7E5302704
:102F5800C5E50893CFE5A5EB090B4E460BEB090534
:102F680019F8010B702820D11A9A02EB0509A9EB70
:102F78000502002A43DC534632464146039807F0CF
:102F880079FE0028DEDB089B2844034405469A4660
:102F9800AAEB0503002B7FF710AC41462020039BCA
:102FA80098470028CEDB0135F2E74146039B984756
:102FB8000028D2DAC6E74146039B98470028BFF6A7
:102FC800AFADBFE741463020039B98470028BFF6C6
:102FD800BAADB7E741463020039B9847013EBFE5AD
:102FE8004146039B98470028ACDB3E460BEB0705A0
:102FF80017F8010BA0F13002092AF1D9B4E74146CC
:103008003020039B984700289CDB0135AFE7D106A9
:1030180001D4120706D541463020039B9847002863
:1030280090DB01359DF86220D30607D541469DF80F
:103038006300039B9847002884DB0135199E2E44C2
:10304800721B002A02DC53464A4696E74146302066
:10305800039B98470028FFF675AF0135F0E700BFDE
:1030680048F2000008B54FF02002EFF3118382F315
:103078001288BFF36F8F02F019FD034807F0EDF9CE
:1030880002F0BEFAFCE700BF49F20000094B0A490A
:1030980000F01F024009012808BF0B4603EB82031A
:1030A800D3F8002222F0E04242F04052C3F8002256
:1030B800704700BF002584500028845070B54FF039
:1030C8002003EFF3118683F31288BFF36F8F012477
:1030D8000C4B0D4DC3F8004502230020C5F8D0362F
:1030E800FFF7D4FF2046FFF7D1FFC5F80447C5F81E
:1030F8000449C5F8004B86F31188BFF36F8F002091
:1031080070BD00BF001000500040005048B1054B92
:103118001A68054BB2FBF3F2044B504343F001032A
:1031280018477047C001002040420F0000D6000039
:10313800062807D10122044BC3F80025BFF34F8F9F
:1031480020BFFDE7704700BF0040005013B504469C
:1031580005F0A8FEC0F307230193C0F307430093CB
:103168000821030E034A204608F02BF9002002B07C
:1031780010BD00BF72F200002DE93048044609F086
:10318800E3FD4FF47A75A0FB05BC05FB01CC4FEAC3
:10319800DB32204642EA4C430821034A08F011F981
:1031A8000020BDE8308800BF8BF2000010B504464F
:1031B80004F088F908210346074A204608F001F977
:1031C8002046064A082108F0FCF82146044805F084
:1031D800FDFC002010BD00BF9AF20000B9F200000B
:1031E800ED310000F0B587B004460D46D0F8A07068
:1031F80009F03FFC064606F08FFA234B234A002EBF
:1032080008BF1E46224B0821844218BF1346CDE949
:10321800004628461F4A08F0D4F8D4E90A23CDE925
:10322800022394F90E30082128461B4A0093237B79
:1032380008F0C7F8204605F011FD626E03460092BB
:1032480008212846154A08F0BCF8204605A909F0C7
:1032580020FC034630B108212846114A08F0B1F88D
:1032680007B0F0BD6423059A2846B91A4B43B3FB4F
:10327800F7F3CDE90021CDE9027308213B46094A5D
:1032880008F09FF8ECE700BFC5F20000E9FA00007B
:10329800C3F20000C8F20000D4F2000000F30000FE
:1032A80017F3000044F3000070B5124E88B00446CE
:1032B8000146114805F08AFC07AA4FF40061304620
:1032C80009F0DBFB64224FF40063002507990095A1
:1032D800C1F500604243D20ACDE90303CDE90131CB
:1032E8002046059233460821044A08F06AF8284621
:1032F80008B070BDE8300020253300007BF30000E3
:1033080010B5044609F07FFA08210346024A204610
:1033180008F057F8002010BDC1F30000F0B50446CE
:103328000D46D0F8A06089B007A909F0B2FB0346A2
:1033380030B1082128460F4A08F043F809B0F0BD1B
:10334800204609F096FB6423079A0B4FB11A4B43AA
:10335800002808BF3846B3FBF6F3CDE90221CDE9D2
:103368000463CDE90006234608212846034A08F0ED
:1033780028F8E3E717F30000C5F20000D7F30000D0
:103388000346006810B50C46114608B1027822B908
:103398002046024A02F054FD204610BDDAF400002F
:1033A80010B50C68D1E90112FFF7EAFF08210346BE
:1033B800024A204608F005F8002010BDDFF400009E
:1033C8002DE9F0478AB0054601A805F09DFA1826B0
:1033D800019B082106FB0036194A284607F0F1FF31
:1033E800DFF86880019CDFF86890DFF868A0B442D5
:1033F80003D300200AB0BDE8F08705AF3946142290
:103408002046FFF7BDFF424603460821284607F03D
:10341800D8FF204609F0A1FA0821002814BF4B461E
:103428005346084A284607F0CCFF1423204606498D
:1034380002AACDE902570493183409F098FAD6E79E
:10344800FEF400000DF50000A933000008F50000A7
:10345800EFF40000F5F400002DE9F04306460027DC
:10346800104BDFF8449053F82140013153F8218084
:1034780087B0A04503D8384607B0BDE8F08320469A
:1034880009F06BFA054658B1142201A92046FFF746
:1034980077FF4A4603460821304607F092FF2F4639
:1034A8001834E6E738D9000014F5000010B50446D2
:1034B80008211E4A07F085FF00212046FFF7CCFFB0
:1034C80020B9082120461A4A07F07BFF0821204628
:1034D800184A07F076FF01212046FFF7BDFF20B903
:1034E80008212046124A07F06CFF08212046124A9C
:1034F80007F067FF02212046FFF7AEFF20B9082139
:1035080020460B4A07F05DFF082120460B4A07F0CA
:1035180058FF03212046FFF79FFF20B908212046C6
:10352800034A07F04EFF002010BD00BF1AF5000047
:1035380029F5000031F5000040F500004EF50000C7
:103548007FB50A684B6904924A6803F26C73039268
:103558008A680292CA6801920A69082101320092B7
:10356800024A07F02EFF07B05DF804FBB2F5000031
:10357800F7B5137806463A2B0F46154616D1541C54
:1035880023783A2B2ED1013400230A22204601A9A0
:10359800019308F0CAFC019A0346A242386010D091
:1035A800107870B93C2B0ED9184A14E000230A226F
:1035B800284601A9019308F0B8FC019CB860AC4208
:1035C80003D16FF0150003B0F0BD23783A2BF8D182
:1035D800172805D90E4A0121304607F0F2FEF0E718
:1035E8000134CDE700230A22204601A9019308F0FF
:1035F8009CFC019A7860A242E3D013783A2BE0D180
:103608003B2801D9034AE6E7541CBDE7F1F5000061
:10361800D3F50000E1F500002DE9F04304460D461E
:10362800174691B0012002A9FCF762FF07A902A87A
:1036380002F01EFC032D60D14FF000097D680A22BC
:10364800284601A9CDF8049008F06FFC019E804639
:10365800B54218D032782D2A15D101360A223046C3
:1036680001A9CDF8049008F060FC019B9E420AD0A5
:103678001A782D2A07D1451E0B2D0DD92B4A012169
:10368800204607F09EFE204607F0A8FE6FF01505BD
:10369800284611B0BDE8F0835E1C0A22304601A915
:1036A800CDF8049008F041FC019B9E42EBD01B78BA
:1036B800002BE8D1431E1E2B01D91D4ADFE7A8F2D3
:1036C8006C73CDE90B53BA680A90204607A9FFF737
:1036D8004FFF0028D7D107A806F08EFF0B460246F9
:1036E800CDE90223013308BFB0F1FF3F09D1012121
:1036F8002046104A07F065FEC8E7022DC3D17A6854
:10370800E3E70023012002A90493FCF75DFF0546C7
:1037180030B1034601212046074A07F052FEB5E7BB
:10372800204607A9FFF70CFFB2E700BF01F600002B
:1037380010F600001DF6000046F600008B1E022B56
:103748002DE9F04107468846144633D81022002157
:10375800606808F060FCB8F1020F06461ED00A2225
:103768000021A06808F057FCC5B22B46082138464E
:103778001F4A07F026FEB8F1040F1ED0102D0FD0F7
:10378800202D10D0082D10D13378DBB2082138460F
:10379800184A07F016FE0020BDE8F0812025E4E76E
:1037A80033889BB2F2E73368F0E708213846124ABB
:1037B80007F007FE6FF01500EEE710220021E06821
:1037C80008F029FC0821034604460C4A384607F04D
:1037D800F8FD102D06D0202D07D0082DE5D1E4B234
:1037E8003470D8E7A4B23480D5E73460D3E700BF9B
:1037F8008BF60000B6F60000A0F60000C7F6000041
:1038080070B50F4C05460E46237839B133B1012106
:103818000C4A07F0D6FD6FF00F0070BD83F001036E
:10382800237033B108212846074A07F0CAFD01234F
:1038380023702846314607F0E6FD0020EDE700BF7B
:10384800A7210020DBF6000016F7000000232DE971
:10385800F74F144606462D480D4603602C492D485F
:10386800DFF8C090DFF8C0A0DFF8C0B00B700360CD
:103878000091012D274654F8043F21D91846022209
:103888004946019308F0A7FC019B88B92268927801
:10389800003A18BF012203EB0208514602224046B3
:1038A80008F099FC30B90123009A1370013DE0E754
:1038B8000022F0E74946404608F081FCB0B90437D9
:1038C80000227868114608F030FB0022124B11469E
:1038D8001860786808F029FB104B114918603046C9
:1038E800FFF78EFF002003B0BDE8F08F98F80020A6
:1038F8002D2AE5D198F80120002AE1D043465A46FE
:103908000821304607F05DFDD0E700BF30070020F2
:10391800A8210020380700202C07002034070020A9
:103928003939000040F7000043F7000046F700006F
:1039380070B53E4B05461878182802D1087811282A
:1039480031D00846013A5418844225D18A5C384C53
:103958001A700A78A2F13003092B04D922F0200347
:10396800413B052B04D823683249CA5401332360EC
:103978002368022B34D1102200212E4808F04BFB7B
:103988002D4A136803F8010B13602C4A136801339E
:1039980013600023236023E010F8016B182ED3D1A5
:1039A8000678112ED0D1254C082123682846244AB0
:1039B80007F007FD00212846FFF722FF214B187862
:1039C80070B9214A23681168042B0ADC08B1116018
:1039D800236013F003010BD1126813681BBA13603C
:1039E80070BD0868043B00BA41F8040B0120EBE7FE
:1039F8005B4203F0030358BF5942022907D11268FA
:103A08001168C1F3072343EA01239BB2E7E70329BF
:103A1800E6D1106802681104C2F3074301F47F017C
:103A28000B4302F47F4213430360D9E7A921002026
:103A380030070020A52100202C070020380700208F
:103A48005BF70000A82100203407002013B50948BF
:103A580008F083FF58B10024074A0123126805497A
:103A68000648009400F070FD204602B010BD6FF0CB
:103A78001200FAE790D200002CDA000000D500000E
:103A880010B50C4611464268106883600023C0E9EF
:103A980000419168C1E90233C1E905334B600B610C
:103AA800D168C1E90233C1E905334B600B61C360DA
:103AB800A36823B19B6C13B1204604499847A368B7
:103AC8009B6A0BB120469847002010BD4FB10000FB
:103AD80010B504468168083101F072F9A1682046E2
:103AE800BDE81040014A083101F006B916F8000097
:103AF80037B5044680680D46D0F864325A0705D5B4
:103B0800002107F0F5FBE06808F0E5F8E368DB68FA
:103B18006BB9002D37D0A068423007F0D6FBA368F8
:103B280098B303F1420103F5A17008F00DFBA268F8
:103B38002946E0680DF10603423208F0CFF858B97B
:103B4800A06800F5A171423008F0FEFAA068423082
:103B580007F0BBFBADF80600204607F025FFA36879
:103B6800D3F860329B0603D50949606907F0B3FBB7
:103B7800204600F015FFA368BDF806202046DA8726
:103B88009A8700F0CFFE03B030BD83F84201CEE73C
:103B9800C0D500000222836810B51A719B6B0446D9
:103BA800CBB9826882F84230D3638368D3F8643231
:103BB800DB040BD50321084B084A07F0A1FFA068D6
:103BC8006FF4805100F5197007F037FB2046BDE807
:103BD800104000F0FFBF10BD24F800000AF50000F7
:103BE80000232DE9F04F04469FB0CDE905338368E3
:103BF8004233039307F0DEFE204607F062FE18B951
:103C08009F49606907F067FB00264FF0FF38B1460F
:103C1800B2463546B346A06814220021083008F0A1
:103C28001BFB204607F0C6FDA168E0688A8F423179
:103C380008F08BF8204608F008F911AF0296DDE984
:103C48000532012A00F0D7800B2B40F2AF80069B8B
:103C5800022B40F0AF8001218A4B8B4A14E00223EB
:103C68003946039A06A807F039FC7A68069903468C
:103C7800039229B96FF0070528461FB0BDE8F08FF9
:103C8800012905D120B1814A204607F039FFF1E723
:103C9800059B4BB3386801F0B7F898B166B1A568D1
:103CA8000D9608350CAE0FCE0FC533682B60204635
:103CB800FFF70EFF0125DFE7754A0121204607F0CF
:103CC8001FFFD7E7059B7BB1294620463A6801F0DC
:103CD800F9F9022800F08F80032805D0059B0133ED
:103CE800059301230293AAE7BAF1000F05D15846BC
:103CF800396807AA07F0DDFC0546043708F1FF38E4
:103D0800002D41D0029B4BB1EB683BB1204607F038
:103D180051FE204600F006FE5E4ACEE7EB68CBB1C6
:103D2800AE46A368DDF8149003F1080CBEE80F0056
:103D3800ACE80F00DEF80030CCF80030AB684BB9C7
:103D48006B7CFE2B01BF95F8108009F1010308F187
:103D5800FF380593D5F804C0BCF1000F08D0AE4673
:103D68000CAEBEE80F000FC6DEF8003033606646C2
:103D7800AB46B8F1000F03D1069B022B7FF45FAF6F
:103D8800059B013305935AE7059B63B9A368DB6973
:103D98000BB1DB683BB9404B012100932046119BD6
:103DA8003E4A07F0ADFE4FF0010AE2E7B8F1000F16
:103DB8007FF455AF029B4BB1204608F067F8A26824
:103DC8000C23423211A905A807F088FB0022059DA3
:103DD800A0681EAB03EB850343F8342C436973B921
:103DE800002E3FF447AFC368B3423FF460AF0D966F
:103DF80000F1080556E7059B0B2BDBD927E7037E67
:103E0800A5EB0905B3B14FF6FF71427EFF2A08BF43
:103E18000A469D4202D313449D420BD9836801216F
:103E280020461F4A07F06CFE2046FFF751FE6FF050
:103E3800150521E74FF4006100F5197007F0F2F954
:103E4800A06800F53E7007F03EFAA36811AA29465B
:103E580002EB890220465B6998470546A0684FF047
:103E6800FF324FF0FF3300F53E7007F06BFAA068A1
:103E78006FF4006100F5197007F0DFF9FCE600BF88
:103E880082DF0000DDF8000016F5000068F8000089
:103E98007CF800009AF80000C9F800005BFB0000FD
:103EA80001F900002DE9F04F044680680121ABB00C
:103EB80000F5197007F0B6F9A3681B79022B17D122
:103EC80000230B93A36860689E6B03681D690BABA6
:103ED800C6B110221DA9A8470B9A4AB120461DA9B0
:103EE800B047A3689B6B002BECD12046FFF752FE2E
:103EF800A0686FF0010100F5197007F09EF92BB06A
:103F0800BDE8F08F01220DF12B01A8470B9B002B78
:103F1800EED09DF92B209DF82B30002AA068D1DB2C
:103F28004279032A00F2FD82DFE812F004007D02E4
:103F38009402FB020D2B1AD00A2B18D0B0F8642279
:103F48006FF3CA02A0F86422092B4DD033D8002B96
:103F5800B8D0082B00F0C981A3F120025E2A00F234
:103F6800D081012107F0C4F99DF82B10E9E0D0F8C1
:103F78006422C2F3C7022AB1D0F86422C2F3C7028E
:103F88009342E1D1B0F86422818F63F3CA02A0F8AA
:103F9800642261B907F0ACF9E06807F09CFEAC490F
:103FA800606907F098F92046FFF7F4FD8AE7204694
:103FB800FFF716FEF7E71B2B13D07F2BCCD1D0F8D9
:103FC80060329D077FF57EAF012107F091F9A36864
:103FD800D3F86032190700F19081204607F0D1FD2F
:103FE80070E7012343716DE7D0F860329B077FF5D6
:103FF80069AF012107F07CF9A068838FFF2B3FF49C
:1040080061AF0025C28F00F1420100F5A17008F0F0
:1040180018F9A2681DA9D38F0DA8134483F842513B
:1040280002F5A1720C2307F059FA0D990C293FF6F5
:1040380049AF2AAB03EB810343F8345CA368DA8FFA
:10404800134493F84130202B00F06D82093B042B78
:1040580040F2698201294FD800250C950C9B2AAAA9
:1040680002EB830353F834AC0026504607F02DF9D1
:10407800B0468146374604963946284618AA00F0C5
:10408800F3FB8346002844D1012E63D10C9B2AAA56
:1040980002EB830353F8340C07F017F9A2680646BD
:1040A80041462846083200F0DFFB0546006807F065
:1040B8000CF9864206D02968821B92B22046314408
:1040C80007F05DFDA068C38F034493F84230202BAE
:1040D8003BD0093B042B38D9D0F86032DF072FD505
:1040E800002107F015F92021204600F03BFD0121B1
:1040F800A06807F00DF9E5E6013900200EAB009342
:1041080001900CAB1DAA07F0F4FA05460028A5D1CA
:10411800D8E64A465146DBF8000008F05CF868B972
:10412800DBF8000008F03BF8049B834238BF0346E5
:104138009BB2002E08BFB8460493013601379BE7AF
:104148002021204600F00EFDBCE60121204607F0A4
:10415800CCFBB7E67FF6B6AE0C9B2AAA02EB83032C
:1041680053F834AC504607F0B0F8A3680690A3F8AB
:1041780030B0DFF8E0B00596CDF80C80A26828468C
:104188000399083200F070FB039B07460133039341
:10419800BAF1000F52D13B68002B5DD1A26813869B
:1041A800059B013B0593E9D12949606907F093F81C
:1041B800204600F00FFD0C9B2AAA02EB830353F85C
:1041C800340C07F082F8414613AA0746284600F047
:1041D8004BFB08F101098046A068D8F80010FF22BF
:1041E80000F5A17007F0BAFFD8F800A04FF6FF78E5
:1041F8004946284618AA09F1010B00F035FB0028AA
:1042080066D00022A368006803F5A17313F801CBF8
:10421800815C614505D121B14FF6FF7101328A42B7
:10422800F4D10FB1BA4207DB9045A8BF9046013ED2
:10423800012E1FFA88F84BD0D946D9E70068002824
:10424800A9D05146069A07F0C6FF0028A3D095E7E3
:1042580082DF0000E8FA00005846079307F035F8B7
:10426800049BA168C21892B258464F8D099207F074
:104278002CF8079B0890184607F027F80899099A20
:104288007F1AA2EB000997FBF2F2A06892B2B0F88D
:1042980030C0079BBCFBF2F102FB11C20CF1010E0E
:1042A80092B21FFA89F9A0F830E05AB900930621B2
:1042B8005B4620469E4A07F023FC4946204600F00C
:1042C8001BFB6DE7062120469A4A07F019FCF4E724
:1042D800B8F1000F3FF4F6ADA8EB0702204692B202
:1042E8000AEB070107F04BFCECE5D0F860329E07BB
:1042F8007FF5E8AD012106F0FBFF204607F05CFCE6
:10430800E0E5D0F8602292077FF5DCAD013B162B83
:104318003FF6D8AD01A252F823F000BFFD440000DB
:104328008143000089430000E33F0000F14400009E
:10433800A9430000CD3E0000CD3E0000CD3E000068
:10434800CD3E0000B1430000B9430000CD3E00005F
:10435800E3430000CD3E0000ED430000CD3E0000E9
:10436800CD3E0000CD3E0000CD3E0000F1430000F0
:10437800CD3E00001F440000204607F022FBA1E5C7
:10438800204607F017FB204607F09BFA18B96A4940
:10439800606906F0A0FF0121A06806F0A9FF02E607
:1043A800204607F016FB8DE5204607F01BFB89E544
:1043B800D0F860329F0603D56049606906F08BFF2C
:1043C800A368D3F860329E0603D55D49606906F09C
:1043D80082FF204600F0FEFB74E500212046FFF72F
:1043E80087FB6FE50121F9E7204607F0DDFA002297
:1043F800A368012183F84220DA63A06806F078FFF9
:10440800A368D3F860329D067FF55CAD4D496069BD
:1044180006F061FF56E5204600F008FB0121A06880
:1044280006F066FF4EE55B2B01D10223DAE5D0F8F2
:104438006022900706D5622B08D14FF0FF31204645
:1044480007F077FA0022A3685A713BE5662BF9D189
:104458000121F4E700224271A268D2F860128907AC
:104468007FF530AD313B1B2B3FF62CAD01A151F848
:1044780023F000BFF944000005450000194500007D
:10448800ED440000CD3E0000CD3E0000CD3E0000D2
:10449800CD3E0000CD3E0000CD3E0000CD3E0000E8
:1044A800CD3E0000CD3E0000CD3E0000CD3E0000D8
:1044B800CD3E0000ED430000E3430000A9430000A7
:1044C80081430000CD3E0000F1440000CD3E0000D5
:1044D800FD440000CD3E0000CD3E0000CD3E000072
:1044E8000945000003235371204607F063FAE9E405
:1044F80003235371204607F057FAE3E4032353716B
:10450800A068D0F8601201F0010181F00101F0E526
:1045180003235371A368D3F860329B077FF5D2ACAD
:104528005BE500235EE500293FF496ADE5E500BFB5
:104538001CF900000AF5000082DF0000C5D5000064
:10454800CAD50000C0D500002DE9F04304468068B4
:104558008846D0F80C1315461F4689B0002961D14A
:104568004FF4447207F078FEA3682268E0681A6086
:1045780007F051FCA06800F53E7008F096FA4FF479
:104588002A794FF41A76A068304408F05CFDA068D8
:104598000022831901214844103608F037FDB6F58A
:1045A8002A7F09F11409EED10026A369A068022127
:1045B8001E6000F5197006F035FEA3681B4A1868DE
:1045C8009A6206F082FEA36866F3820583F82C00DF
:1045D8006068C3F86052036841461D68144A234660
:1045E800A8470546D0B90122A3681A71D4E9090180
:1045F80000220023CDE906230E230393109B4FF4DA
:104608000062CDE9017304950A4B009404F0C0FBE5
:10461800A368216AC3F80C0304F010FB284609B00C
:10462800BDE8F0836FF07705F8E700BF1800500089
:1046380039B300008D46000010B504468068037940
:10464800012B19D14FF0FF324FF0FF3300F53E70C8
:1046580006F078FE0821204600F0AAF908496069AA
:1046680006F039FE2046FFF795FAA06800F53E707F
:1046780006F029FE002010BD6FF08500FBE700BFA3
:1046880081DF0000F8B504464068002103689B6894
:10469800984700283FD12046FFF7CEFF00283AD19F
:1046A8001D4F1E4EA06800F52A704FF0FF324FF0E4
:1046B800FF33032105F020FA0546A0684FF0FF32CA
:1046C8004FF0FF3300F53E7075B106F03BFE204613
:1046D8002B460121124A07F013FAA068BDE8F840FA
:1046E80000F53E7006F0EFBD06F02CFE606803682A
:1046F8005B6903B198473A462046022106F0CDFD92
:1047080020463246002106F0C8FDA06800F53E703C
:1047180006F0D9FDC6E7F8BD59B20000AD3E00006D
:1047280022F9000010B5044608210C4A06F049FE9B
:10473800204608210A4A06F044FE20460821094A74
:1047480006F03FFE20460821074A06F03AFE2046BA
:104758000021064A00F0D0FA002010BD39F9000007
:1047680077F90000D6F900002AFA0000C4FA000020
:104778002DE9F04716461F462A4A0B4608210446EB
:10478800002506F01EFEDFF8A880DFF8A890DFF805
:10479800A8A0AF4231D94A4608212046735D06F0E9
:1047A80010FE0135102D20D1082120461E4A06F0A2
:1047B80008FE0025DFF88080DFF88090AF422AD914
:1047C800735D0821A3F120025F2A28BF2E234A46E1
:1047D800204606F0F6FD0135102D14D12046BDE81F
:1047E800F0470821114A06F0ECBD6A07D1D15246BC
:1047F8000821204606F0E5FDCBE742460821204681
:1048080006F0DFFDCDE76B07D8D1424608212046E8
:1048180006F0D7FDD2E742460821204606F0D1FD32
:10482800D9E700BFDAFA0000EBFA0000EDFA000061
:10483800E7FA0000E1FA0000E9FA00000DFB0000C9
:1048480010B5044613460A4601460648FDF754FDCE
:1048580023691B7923B12046BDE8104006F0D6BD78
:1048680010BD00BF2DB4000010B50B46144650B95A
:104878000E490F4A521AB3EBD20F0FD201EBC30104
:104888004C68204610BD816841B14A68097839B141
:104898001846214690472368002BF2D10024F0E700
:1048A80014204343D418D358F6E700BF2CD5000092
:1048B8008CD500008368D3F860329B0603D5024983
:1048C800406906F0DDBF7047D0D500000A1E0DDC38
:1048D8000ED042238168D1F86012890608D5002AD3
:1048E80004494069B8BF524206F0CABF4123F1E704
:1048F800704700BF09FB00000A1E0DDC0ED04423E0
:104908008168D1F86012890608D5002A04494069EF
:10491800B8BF524206F0B4BF4323F1E7704700BF67
:1049280009FB000010B5044606F0CBFF28B160690A
:104938000549BDE8104006F0A3BF04F1080006F0E1
:10494800ACFF0028F3D110BD82DF00002DE9F04153
:10495800064656F8084F0546A28F04F12000E18F5D
:1049680006F0A6FD3046B4F82480E78C06F095FFE3
:1049780018B10A49686906F083FFB84507D1218C48
:10498800638C2846BDE8F041C91AFFF7B5BFE18C32
:10499800A38C2846C91AFFF799FFF0E782DF0000C9
:1049A800826802494069423206F06ABF0AF500008F
:1049B80008290A4617D8836893F82E10914212D016
:1049C80083F82E208368082AD3F8603205D0990628
:1049D80009D50549406906F053BF9B0603D503492D
:1049E800406906F04DBF704710FB0000D5D50000A8
:1049F80038B50D4609780446FFF7DAFF6A78072AC2
:104A080011D8A36893F82F1091420CD083F82F2067
:104A1800A368D3F860329B0605D560690249BDE8F2
:104A2800384006F02DBF38BD19FB0000F8B5836883
:104A380005469A8F002A4ED0D88F00284BD0413097
:104A4800184403F142060346C41AB3421946A4B2F5
:104A58000DD311F80179202F3BD019460878013B76
:104A6800202804D001349E421946A4B2F5D9631C0B
:104A78004E1C121B1944304607F0CCFB0023A968D2
:104A880028468A8F121B92B28A870A44614282F8AA
:104A9800423009B206F029FFAB68D3F860329A06B3
:104AA80003D50D49686906F0EBFE33460821284610
:104AB8000A4A07F025F82846FFF7FCFEAB68D3F84A
:104AC80060329B0607D568690549BDE8F84006F0DD
:104AD800D7BE0B46B8E7F8BDDAD500000AF50000E6
:104AE800DED500002DE9F04104460D4617460AB10F
:104AF800FFF7E0FEA368D3F86022D88F520700F1D1
:104B08004200034421D5184607F049FB0646DFF862
:104B18005080013E14D2204650F8083F9A8FDA8719
:104B280006F0BBFE28B107B11DB10B49606906F05C
:104B3800A7FE69422046BDE8F04109B206F0D5BE9D
:104B48004146606906F09CFEE3E708212046034AD7
:104B580006F0D6FFDFE700BF82DF00000AF500009D
:104B6800C3F2000013B583688DF80710D3F86022EC
:104B78000446D00723D5D98F9A8F8A421FD0481C64
:104B88009DF80720D8870B4483F84220A368D3F800
:104B98006012890711D5D3F86032606913F0040FE9
:104BA80018BF2A22094906F06BFE204606F089FE46
:104BB80018B10749606906F063FE02B010BD012212
:104BC80020460DF1070106F0A8FFF6E70DFB0000EF
:104BD80082DF000010B50446836802211B68084A7A
:104BE80006F08EFFA368D3F860329B0707D52046EE
:104BF800FFF7D6FE2046BDE81040FFF7A7BE10BD60
:104C08000AF500002DE9F047044690460E460029B3
:104C18006ED00025735D202B25D0093B042B22D9AB
:104C2800DFF8D090304607F0BAFAA36880B2598D01
:104C3800401BA1EB0803984206EB050A15D950461C
:104C4800002710F8012B202A06D0A2F1090CBCF18C
:104C5800040F02D80A2A31D03B4608EB07029142DA
:104C68002BD90137EDE70135D4E753460027B84281
:104C780017D013F8012B05EB07090A2A1BD1606925
:104C880006F0C4FB3A465146204606F0CEFE1949C6
:104C9800606906F0A2FF4146204609F10105FFF7C9
:104CA8002BFE6069711906F098FF60691149BDE82B
:104CB800F04706F092BF0137D9E71F46606906F052
:104CC800A5FB3A465146204606F0AFFE3D44735DCB
:104CD800202B0BD0093B042B08D94946606906F004
:104CE8007CFF41462046FFF707FE9BE70135EEE7CC
:104CF800BDE8F08782DF00002DE9F04F0E46002165
:104D0800044617460D468BB0304605AA01F1010846
:104D1800FFF7AAFDB0B995B127B13A460821204658
:104D280006F0EEFE0021224FDFF88CA0DFF88CB0F1
:104D38004B1C304605AA0293FFF796FD60B90BB0ED
:104D4800BDE8F08F006810B107F029FA80B28542FB
:104D580038BF05464146D7E70368D0F8049038467F
:104D6800039307F01CFA039B804683B11A7872B14B
:104D7800CDE9005352463B460821204606F0C0FEC6
:104D8800B9F1000F05D10B49606906F026FF0299B9
:104D9800CEE75A4620463B46082106F0B1FE6A1C7B
:104DA80002EB48024946204692B2FFF72BFFEEE796
:104DB8003BFB000082DF000022FB000029FB000013
:104DC800F7B5064608680D46B8B107F0E8F984B2A9
:104DD8000B4F384607F0E3F90444082130462B68A6
:104DE800084AA4B2009706F08BFE2246304669684E
:104DF80003B0BDE8F040FFF705BF0446E8E700BF91
:104E080037FB00001DF9000010B50749044607F0FC
:104E1800D6F938B12046054907F0D1F9B0FA80F043
:104E2800400910BD0120FCE72DFB000030FB00000D
:104E380010B583680446D3F860329B0603D504494D
:104E4800406906F0DBFEA368024A00209A6210BDA2
:104E5800E2D500001800500008B5836908211B68D6
:104E6800024A06F0AEFA002008BD00BF3EFB000073
:104E78007FB5044600250E4EA2680DF10E030121F0
:104E8800E06802F5A17206F029FFBDF80E00A368DC
:104E980050B103F5A173009332462B4608212046F2
:104EA80006F08FFA0135E7E783F8420104B070BDD8
:104EB8004EFB000010B583680446D3F860329A06AA
:104EC80003D50749406906F099FEA368D3F8603214
:104ED8009B0603D50349606906F090FE002010BDCB
:104EE800E9D50000EED50000022907B50DD15368B9
:104EF800012101930C4B009313680C4A06F061FAE8
:104F08006FF0150003B05DF804FB8368084AD3F816
:104F18006032082113F0020F064B18BF1346064AE9
:104F280006F04FFA0020EDE761FB000058FB000097
:104F3800A5EE0000C3EE000076FB0000F0B50129E5
:104F4800044685B00DD0536801210193564B6FF08C
:104F5800150500931368554A06F033FA284605B03C
:104F6800F0BD8368D3F860329A0603D5504940698A
:104F780006F044FE00256FF0F9012046FFF7A6FC75
:104F8800FA212046FFF7B8FCA0684FF48072294642
:104F980000F5A1708DF80B5007F05EF9454960697E
:104FA80006F02CFE606906F031FA4FF47A766068F4
:104FB800012203680DF10B011F6903ABB847039B7E
:104FC80053B9013E4FF47A70B6B207F0BFFE002E17
:104FD800EDD16FF0850531E09DF80B30A2681B2BF1
:104FE80057D092F842111B29E1D1522B51D10023FD
:104FF800154485F8423192F843115B2951D11F4677
:10500800022602F5A27010F8011B01363B29B6B240
:105018002AD1B6F5807FDCD0002306F5A1701044B4
:1050280010F8015B55BBFA2B28BFFA23FA2F5385DA
:105038003B4628BFFA2382F842511385A368D3F868
:1050480060329B0603D51C49606906F0D7FD002D28
:1050580084D0A368194A03219A622046184A06F0A8
:10506800B0F96FF0070579E707EB870301EB430316
:10507800303BB6F5807F9FB2C5D1AAE703EB830327
:10508800013605EB4305B6B2303DFF2EABB2C7D9AA
:105098009FE751190135ADB2092D81F8423186D902
:1050A800002382F8423194E761FB000058FB0000BE
:1050B800F4D500007FFF0000F8D50000180050006C
:1050C80087FB00002DE9F04F07461546894689B051
:1050D80021B90324204609B0BDE8F08F104606F038
:1050E800A0FE0028F5D04FF000080224414624E035
:1050F8005C463CE029460AF5A17007F005F806462B
:1051080000284CD007F04BF882B2601C31460132BF
:10511800304407F07FF822465946304607F091F8A8
:105128004FF020033355BAF8400008F10108013068
:105138000444AAF84040002401994B1C484603AA9D
:105148000193FFF791FB0646E8B100222846316833
:1051580005F07DFF0028EFD1D6F800B0D7F808A0F9
:10516800BBF1000FC4D0584607F019F884B2BAF85A
:1051780040202244FF2ABDDD2B4603213846094A38
:1051880006F0BEFC0124B8F1000FA3D0B8682A4687
:1051980000F1400100F5A17006F064FA9AE70224D4
:1051A800F1E700BF84FF00002DE9F84305464FF002
:1051B8002003EFF3118683F31288BFF36F8F104B30
:1051C8001C68002C38BF00249CB14FF00C090D4F0F
:1051D800DFF83480D4E90132002D08BF13462BB123
:1051E80098F8142009FB02F2B85C98472468002C50
:1051F800F0D186F31188BFF36F8FBDE8F88300BF45
:10520800640A00206C0A002048210020012342097A
:1052180000F01F0003FA00F0C043054B03EB8203C4
:10522800D3E8EF2F0240C3E8E12F0029F8D17047F7
:10523800780A0020012238B5174B1D7D05F01F03A1
:105248009A40D043154B690903EB8103D3E8EF1F5C
:1052580001EA0004C3E8EC4FBCF1000FF6D111429B
:1052680013D00F4B0F4C8BB10C236B43E2185178C2
:10527800E05C05F0F0FE0020FFF796FF0C2300220B
:105288006B43E118E250C1E9012238BD83F311886C
:10529800BFF36F8FEFE700BF482100207C0A002092
:1052A8005FB000006C0A00202DE9F8432F4B074639
:1052B8001C7D4FEA54184FEA88082D4B4344D3E825
:1052C800AF3F04F01F0943FA09F313F0010F294E09
:1052D8000AD10146204600F06BF828B107C80C2314
:1052E80003FB046383E807000C236343F55CF218AF
:1052F8002DB92046FFF78AFF2846BDE8F8837B1CB6
:105308000FD04FF400450021D2F808C01A480023F6
:10531800E5FB0C01194AFAF76BFF0121381A07F06F
:10532800F5FC03F04FFF0120FFF73EFF012303FACE
:1053380009F9134B9844D8E8EF3F43EA0903C8E852
:10534800E23F002AF7D10F4B33B10C236343F21825
:105358005178F05CFDF7ECFEFFF76CFF2046FFF795
:1053680055FF04F009F90120C7E700BF48210020D4
:10537800780A00206C0A00203F420F0040420F00CC
:105388007C0A002039310000044B03EB8000D0E890
:10539800AF0FB0FA80F04009704700BF800A0020C4
:1053A80008B9024B0B600020704700BF7CDC00008E
:1053B8002DE9F74F0E4601A9FFF7F2FF4FF4004A17
:1053C8004FF00009441EDFF86C8024B2631C04D13E
:1053D8000025284603B0BDE8F08F019A04EB44038A
:1053E80012F8230002EB8305FFF7CEFFF8B14FF068
:1053F800000C6968DFF840B04246EAFB01BC4B4646
:1054080058466146FAF7F4FE4FF0000CA968DFF839
:1054180028B04246EAFB01BC07464B46584661465F
:10542800FAF7E6FE721CD4D00744B742D1D9013C42
:1054380024B2CBE740420F003F420F00014804F07E
:1054480099BD00BF7CDC000008B508B34368042B95
:1054580007D0082B13D0F3B1006803F0C1FD00207A
:105468000CE000220368D3E8EF1F012903D1C3E849
:10547800E02F0028F7D1094808BF104608BD036887
:1054880000201B78064A03F5807342F82300F5E7ED
:105498006FF4E040F2E70348F0E700BFE98FFFFF51
:1054A80000000350EA8FFFFF10B5044618B90D4BF2
:1054B8000D485B689847616808290DD031F00403EE
:1054C8000AD011F0020108D02146084807F0A1FAD5
:1054D800002323600023636010BD1422206806F0B7
:1054E800BBFEF7E754020020D6FF00009C0A00200C
:1054F80010B5044618B9164B16485B689847636898
:10550800042B23D0082B21D0CBB92368BBB94FF08B
:10551800FF324FF0FF3321460F4803F027FB08B94D
:1055280023681BB90A4B0D485B6898471422002171
:10553800206806F091FE636843F002036360206808
:1055480007F0B3FA636843F00103636010BD00BF5E
:1055580054020020D6FF00009C0A0020FCFF000037
:1055680008B540B34368042B0BD0082B16D003B3FF
:1055780000684FF0FF324FF0FF3303F0B3FC58B12F
:1055880015E001220368D3E8EF1F002903D1C3E81F
:10559800E02F0028F7D10AD1002008BD0368074A88
:1055A8001B7803F5807352F82330002BF4D004489D
:1055B800F3E70448F1E76FF4E040EEE7000003503A
:1055C800E98FFFFFEA8FFFFF08B506494023142241
:1055D800054807F003FABDE808400449044804F008
:1055E80027BD00BFB80A00209C0A002094DC0000F8
:1055F80084DC0000014910220A60704710ED00E0C9
:1056080072B6404080F31188BFF36F8FBFF34F8F9E
:1056180030BF62B6BFF36F8F704700BF72B64940A4
:1056280081F3118820BF80F3118862B6704700BFEC
:1056380043B2002B08DB012200F01F0002FA00F041
:10564800024A5B0942F82300704700BF00E100E00E
:10565800054B420953F82220012300F01F0003FAEA
:1056680000F01040704700BF00E100E043B2002B9B
:1056780001F10101ACBF03F16043064B4FEA411150
:10568800C9B2ABBF03F5614300F00F0083F8001304
:105698001954704714ED00E030BFFFF7FDBF00BF9D
:1056A8000B4A08B50B4B22F07F029A60BFF34F8F6D
:1056B800BFF36F8FD3F8882022F47002C3F88820D4
:1056C80003F07CF904F0A6F800F0AEF903F0C0F995
:1056D8000000000000ED00E00A4A0B4993680968E1
:1056E800C3F8AC00C3F8B01008494B6843F08053C6
:1056F8004B60002383F31188BFF36F8F9368D3F84F
:10570800B000704748210020CCDE000000ED00E02A
:1057180014498A684FF030001044EFF3098C80E890
:10572800F01F202080F31288BFF36F8F0E4F4FF0C9
:105738000066CA698A603E60D2F8AC000023C2F8ED
:10574800AC3080F3118802F1300090E8F01F8CF340
:10575800098802F1000004B506F0BCFBBDE804406E
:10576800704700004821002004ED00E01EF0040FFF
:105778000CBFEFF30880EFF30980816911F8021C70
:105788000229FFD001B506F096FB01BD42F8203C86
:10579800009B0B4942F81C3C019B21F0010142F897
:1057A800183C029B42F8081C42F8143C4FF08073E6
:1057B80042F8043C0023203A0265C0F8AC30704738
:1057C800EDA50000094B9860D0F89C3083F30B8856
:1057D800104681F30988002163B681F31188BFF36D
:1057E8006F8F0022002304F0FDFE00BF4821002037
:1057F80001B572B60B4A906900281EBF002191615D
:1058080007F04CF962B6EFF30580A0F110004FEAFB
:10581800C0000549014409C99847BDE8014003494A
:105828000847000048210020D8D20000395800005D
:10583800044B9968D869884203D003494FF08052D5
:105848000A6070474821002004ED00E00E4B9A6A78
:105858009A6A9A6A920708D55A6B9A6A120604D508
:1058680018B19A6A22F080029A620020064B9A6A5E
:105878009A6A9A6AD20658BF9A6A9A6A42F0FF02EE
:105888009A620870704700BF00ED00E00D4B9A6AFD
:105898009A6A9A6A920508D59A6B9A6A120404D58C
:1058A80018B19A6A22F400429A620020054B9A6A5B
:1058B8009A6AD20558BF9A6A9A6A42F47F429A62F3
:1058C8000870704700ED00E0094B9A6A9A6A986A76
:1058D8009A6A9A6A9A6A9A6A9A6A10F480106FEABF
:1058E80002426FEA124218BF02209A62704700BF54
:1058F80000ED00E070B53E4B0E465B6800258AB0AF
:10590800C3F3080385F31188BFF36F8F02F07F415B
:10591800B1F17F4F11D102F00C0108290DD0120707
:1059280001D4064601250022033B8DF80720032BEE
:1059380056D8DFE803F0044D514A2E46F3E72C4BC6
:10594800DC6A14F002044BD1DA6A002A17DBDB6A3E
:105958005B0014D5B36933F8022C4DF602739A42F2
:105968000CD003F1604303F626631B78FBB10120DA
:105978000DF10701FFF76AFF044600E034689DF85F
:10598800073093B92022314602A806F05AFC099B39
:1059980045B3C3F3080222B96FEA53236FEA4323DE
:1059A8000993204602A906F084FA0AB070BD114B8B
:1059B8001B782BB101200DF10701FFF767FFDBE72B
:1059C8000D4B1B889BB2002BD9D0FFF77DFFD3E787
:1059D80000200DF10701CDE700200DF10701ECE7EC
:1059E8000024CCE723F4FF7323F00103D8E700BFBA
:1059F80000ED00E029ED00E02AED00E0044B5A69D3
:105A080042F010025A615A6942F480625A61704742
:105A180000ED00E0EFF30880EFF3098101B572466D
:105A2800FFF768FF01BD00BF002320210348C2180B
:105A38000133452B82F80013F9D1704700E100E0EB
:105A4800002080F31488BFF36F8F002080F30A884A
:105A580080F30B8807F0B2FB002011490860BFF300
:105A68004F8F104880F3088800F042F8202080F318
:105A780011880D484FF0AA014FF4006206F0ECFBC4
:105A880009484FF40061401880F30988EFF3148047
:105A98000221084380F31488BFF36F8FFFF700FEDD
:105AA80094ED00E0A82F0020E8300020BFF34F8FCE
:105AB8000549064BCA6802F4E0621343CB60BFF3A2
:105AC8004F8F00BFFDE700BF00ED00E00400FA05BE
